{
  "address": "0x6DcBc91229d812910b54dF91b5c2b592572CD6B0",
  "abi": [
    {
      "inputs": [
        {
          "internalType": "address",
          "name": "_token",
          "type": "address"
        }
      ],
      "stateMutability": "nonpayable",
      "type": "constructor"
    },
    {
      "inputs": [
        {
          "internalType": "address",
          "name": "owner",
          "type": "address"
        },
        {
          "internalType": "address",
          "name": "spender",
          "type": "address"
        }
      ],
      "name": "allowance",
      "outputs": [
        {
          "internalType": "uint256",
          "name": "",
          "type": "uint256"
        }
      ],
      "stateMutability": "view",
      "type": "function"
    },
    {
      "inputs": [],
      "name": "asset",
      "outputs": [
        {
          "internalType": "address",
          "name": "",
          "type": "address"
        }
      ],
      "stateMutability": "view",
      "type": "function"
    },
    {
      "inputs": [
        {
          "internalType": "address",
          "name": "account",
          "type": "address"
        },
        {
          "internalType": "uint256",
          "name": "amount",
          "type": "uint256"
        }
      ],
      "name": "stakeFor",
      "outputs": [],
      "stateMutability": "nonpayable",
      "type": "function"
    },
    {
      "inputs": [
        {
          "internalType": "uint256",
          "name": "assets",
          "type": "uint256"
        },
        {
          "internalType": "address",
          "name": "receiver",
          "type": "address"
        },
        {
          "internalType": "address",
          "name": "owner",
          "type": "address"
        }
      ],
      "name": "withdraw",
      "outputs": [
        {
          "internalType": "uint256",
          "name": "",
          "type": "uint256"
        }
      ],
      "stateMutability": "nonpayable",
      "type": "function"
    }
  ],
  "transactionHash": "0xe15ec3c8e8280b6ec8c4c1a7cff0d6e62dda99cca2a5abacad3f25c518335ade",
  "args": [
    "0x447786d977Ea11Ad0600E193b2d07A06EfB53e5F"
  ],
  "solcInputHash": "2a79c4162b5952a6aa195452c697c39b",
  "bytecode": "0x608060405234801561001057600080fd5b5060405161041c38038061041c8339818101604052810190610032919061008d565b806000806101000a81548173ffffffffffffffffffffffffffffffffffffffff021916908373ffffffffffffffffffffffffffffffffffffffff160217905550506100ff565b600081519050610087816100e8565b92915050565b60006020828403121561009f57600080fd5b60006100ad84828501610078565b91505092915050565b60006100c1826100c8565b9050919050565b600073ffffffffffffffffffffffffffffffffffffffff82169050919050565b6100f1816100b6565b81146100fc57600080fd5b50565b61030e8061010e6000396000f3fe608060405234801561001057600080fd5b506004361061004c5760003560e01c80632ee409081461005157806338d52e0f1461006d578063b460af941461008b578063dd62ed3e146100bb575b600080fd5b61006b6004803603810190610066919061018f565b6100eb565b005b6100756100ef565b6040516100829190610238565b60405180910390f35b6100a560048036038101906100a091906101cb565b610118565b6040516100b29190610253565b60405180910390f35b6100d560048036038101906100d09190610153565b610121565b6040516100e29190610253565b60405180910390f35b5050565b60008060009054906101000a900473ffffffffffffffffffffffffffffffffffffffff16905090565b60009392505050565b600092915050565b600081359050610138816102aa565b92915050565b60008135905061014d816102c1565b92915050565b6000806040838503121561016657600080fd5b600061017485828601610129565b925050602061018585828601610129565b9150509250929050565b600080604083850312156101a257600080fd5b60006101b085828601610129565b92505060206101c18582860161013e565b9150509250929050565b6000806000606084860312156101e057600080fd5b60006101ee8682870161013e565b93505060206101ff86828701610129565b925050604061021086828701610129565b9150509250925092565b6102238161026e565b82525050565b610232816102a0565b82525050565b600060208201905061024d600083018461021a565b92915050565b60006020820190506102686000830184610229565b92915050565b600061027982610280565b9050919050565b600073ffffffffffffffffffffffffffffffffffffffff82169050919050565b6000819050919050565b6102b38161026e565b81146102be57600080fd5b50565b6102ca816102a0565b81146102d557600080fd5b5056fea26469706673582212201c0d9f5d406d3bf3e8f4a1a2a89706eee29382672179f30ae943812a5306fb2764736f6c63430008040033",
  "devdoc": {
    "kind": "dev",
    "methods": {},
    "version": 1
  },
  "userdoc": {
    "kind": "user",
    "methods": {},
    "version": 1
  },
  "storageLayout": {
    "storage": [
      {
        "astId": 6846,
        "contract": "contracts/mock/aura/MockAuraBaseRewardPool.sol:MockAuraBaseRewardPool",
        "label": "token",
        "offset": 0,
        "slot": "0",
        "type": "t_address"
      }
    ],
    "types": {
      "t_address": {
        "encoding": "inplace",
        "label": "address",
        "numberOfBytes": "20"
      }
    }
  }
}