{
  "address": "0x245e77E56b1514D77910c9303e4b44dDb44B788c",
  "abi": [
    {
      "inputs": [
        {
          "internalType": "address",
          "name": "_token",
          "type": "address"
        }
      ],
      "stateMutability": "nonpayable",
      "type": "constructor"
    },
    {
      "inputs": [
        {
          "internalType": "uint256",
          "name": "amount",
          "type": "uint256"
        }
      ],
      "name": "deposit",
      "outputs": [
        {
          "internalType": "uint256",
          "name": "",
          "type": "uint256"
        }
      ],
      "stateMutability": "nonpayable",
      "type": "function"
    },
    {
      "inputs": [],
      "name": "getPricePerFullShare",
      "outputs": [
        {
          "internalType": "uint256",
          "name": "",
          "type": "uint256"
        }
      ],
      "stateMutability": "view",
      "type": "function"
    },
    {
      "inputs": [],
      "name": "want",
      "outputs": [
        {
          "internalType": "contract IERC20Upgradeable",
          "name": "",
          "type": "address"
        }
      ],
      "stateMutability": "view",
      "type": "function"
    },
    {
      "inputs": [
        {
          "internalType": "uint256",
          "name": "amount",
          "type": "uint256"
        }
      ],
      "name": "withdraw",
      "outputs": [
        {
          "internalType": "uint256",
          "name": "",
          "type": "uint256"
        }
      ],
      "stateMutability": "nonpayable",
      "type": "function"
    }
  ],
  "transactionHash": "0x9d37110e5a26f69731badc9068d5e0ec12765be86cdeed6857ea61d27469027a",
  "args": [
    "0x447786d977Ea11Ad0600E193b2d07A06EfB53e5F"
  ],
  "solcInputHash": "2a79c4162b5952a6aa195452c697c39b",
  "bytecode": "0x608060405234801561001057600080fd5b506040516103643803806103648339818101604052810190610032919061008d565b806000806101000a81548173ffffffffffffffffffffffffffffffffffffffff021916908373ffffffffffffffffffffffffffffffffffffffff160217905550506100ff565b600081519050610087816100e8565b92915050565b60006020828403121561009f57600080fd5b60006100ad84828501610078565b91505092915050565b60006100c1826100c8565b9050919050565b600073ffffffffffffffffffffffffffffffffffffffff82169050919050565b6100f1816100b6565b81146100fc57600080fd5b50565b6102568061010e6000396000f3fe608060405234801561001057600080fd5b506004361061004c5760003560e01c80631f1fcd51146100515780632e1a7d4d1461006f57806377c7b8fc1461009f578063b6b55f25146100bd575b600080fd5b6100596100ed565b6040516100669190610185565b60405180910390f35b6100896004803603810190610084919061013e565b610116565b60405161009691906101a0565b60405180910390f35b6100a761011d565b6040516100b491906101a0565b60405180910390f35b6100d760048036038101906100d2919061013e565b610122565b6040516100e491906101a0565b60405180910390f35b60008060009054906101000a900473ffffffffffffffffffffffffffffffffffffffff16905090565b6000919050565b600090565b6000919050565b60008135905061013881610209565b92915050565b60006020828403121561015057600080fd5b600061015e84828501610129565b91505092915050565b610170816101e5565b82525050565b61017f816101db565b82525050565b600060208201905061019a6000830184610167565b92915050565b60006020820190506101b56000830184610176565b92915050565b600073ffffffffffffffffffffffffffffffffffffffff82169050919050565b6000819050919050565b60006101f0826101f7565b9050919050565b6000610202826101bb565b9050919050565b610212816101db565b811461021d57600080fd5b5056fea264697066735822122045240f384093943613c53332ae9018bf092e12982d54a8dc610d637cabede22164736f6c63430008040033",
  "devdoc": {
    "kind": "dev",
    "methods": {},
    "version": 1
  },
  "userdoc": {
    "kind": "user",
    "methods": {},
    "version": 1
  },
  "storageLayout": {
    "storage": [
      {
        "astId": 6906,
        "contract": "contracts/mock/drops/MockCompoudingVault.sol:MockCompoudingVault",
        "label": "token",
        "offset": 0,
        "slot": "0",
        "type": "t_address"
      }
    ],
    "types": {
      "t_address": {
        "encoding": "inplace",
        "label": "address",
        "numberOfBytes": "20"
      }
    }
  }
}