{
  "address": "0xE2b5bDE7e80f89975f7229d78aD9259b2723d11F",
  "abi": [
    {
      "inputs": [],
      "stateMutability": "nonpayable",
      "type": "constructor"
    },
    {
      "anonymous": false,
      "inputs": [
        {
          "indexed": true,
          "internalType": "address",
          "name": "from",
          "type": "address"
        },
        {
          "indexed": true,
          "internalType": "address",
          "name": "asset",
          "type": "address"
        },
        {
          "indexed": false,
          "internalType": "uint256",
          "name": "amount",
          "type": "uint256"
        }
      ],
      "name": "LogWithdraw",
      "type": "event"
    },
    {
      "anonymous": false,
      "inputs": [
        {
          "indexed": false,
          "internalType": "address",
          "name": "manager",
          "type": "address"
        },
        {
          "indexed": false,
          "internalType": "bool",
          "name": "status",
          "type": "bool"
        }
      ],
      "name": "ManagerSet",
      "type": "event"
    },
    {
      "anonymous": false,
      "inputs": [
        {
          "indexed": false,
          "internalType": "address[]",
          "name": "oracleList",
          "type": "address[]"
        },
        {
          "indexed": false,
          "internalType": "bool[]",
          "name": "statusList",
          "type": "bool[]"
        }
      ],
      "name": "OraclesSet",
      "type": "event"
    },
    {
      "anonymous": false,
      "inputs": [
        {
          "indexed": true,
          "internalType": "address",
          "name": "previousOwner",
          "type": "address"
        },
        {
          "indexed": true,
          "internalType": "address",
          "name": "newOwner",
          "type": "address"
        }
      ],
      "name": "OwnershipTransferred",
      "type": "event"
    },
    {
      "anonymous": false,
      "inputs": [
        {
          "indexed": false,
          "internalType": "address[]",
          "name": "oracleList",
          "type": "address[]"
        },
        {
          "indexed": false,
          "internalType": "int256[]",
          "name": "prices",
          "type": "int256[]"
        },
        {
          "indexed": false,
          "internalType": "uint256",
          "name": "timestamp",
          "type": "uint256"
        }
      ],
      "name": "PricesSubmitted",
      "type": "event"
    },
    {
      "anonymous": false,
      "inputs": [
        {
          "indexed": false,
          "internalType": "int256",
          "name": "min",
          "type": "int256"
        },
        {
          "indexed": false,
          "internalType": "int256",
          "name": "max",
          "type": "int256"
        }
      ],
      "name": "RateSet",
      "type": "event"
    },
    {
      "inputs": [
        {
          "internalType": "address[]",
          "name": "oracles",
          "type": "address[]"
        },
        {
          "internalType": "int256[]",
          "name": "prices",
          "type": "int256[]"
        }
      ],
      "name": "batchUpdate",
      "outputs": [],
      "stateMutability": "nonpayable",
      "type": "function"
    },
    {
      "inputs": [
        {
          "internalType": "address",
          "name": "oracle",
          "type": "address"
        }
      ],
      "name": "getUpdateAvailablePriceRange",
      "outputs": [
        {
          "internalType": "bool",
          "name": "isSupport",
          "type": "bool"
        },
        {
          "internalType": "int256",
          "name": "minPrice",
          "type": "int256"
        },
        {
          "internalType": "int256",
          "name": "maxPrice",
          "type": "int256"
        },
        {
          "internalType": "uint256",
          "name": "nextRound",
          "type": "uint256"
        }
      ],
      "stateMutability": "view",
      "type": "function"
    },
    {
      "inputs": [
        {
          "internalType": "address",
          "name": "",
          "type": "address"
        }
      ],
      "name": "isManager",
      "outputs": [
        {
          "internalType": "bool",
          "name": "",
          "type": "bool"
        }
      ],
      "stateMutability": "view",
      "type": "function"
    },
    {
      "inputs": [],
      "name": "maxChangeRate",
      "outputs": [
        {
          "internalType": "int256",
          "name": "",
          "type": "int256"
        }
      ],
      "stateMutability": "view",
      "type": "function"
    },
    {
      "inputs": [],
      "name": "minChangeRate",
      "outputs": [
        {
          "internalType": "int256",
          "name": "",
          "type": "int256"
        }
      ],
      "stateMutability": "view",
      "type": "function"
    },
    {
      "inputs": [],
      "name": "owner",
      "outputs": [
        {
          "internalType": "address",
          "name": "",
          "type": "address"
        }
      ],
      "stateMutability": "view",
      "type": "function"
    },
    {
      "inputs": [],
      "name": "renounceOwnership",
      "outputs": [],
      "stateMutability": "nonpayable",
      "type": "function"
    },
    {
      "inputs": [
        {
          "internalType": "address",
          "name": "manager",
          "type": "address"
        },
        {
          "internalType": "bool",
          "name": "status",
          "type": "bool"
        }
      ],
      "name": "setManager",
      "outputs": [],
      "stateMutability": "nonpayable",
      "type": "function"
    },
    {
      "inputs": [
        {
          "internalType": "address[]",
          "name": "oracles",
          "type": "address[]"
        },
        {
          "internalType": "bool[]",
          "name": "statusList",
          "type": "bool[]"
        }
      ],
      "name": "setOracles",
      "outputs": [],
      "stateMutability": "nonpayable",
      "type": "function"
    },
    {
      "inputs": [
        {
          "internalType": "int256",
          "name": "min",
          "type": "int256"
        },
        {
          "internalType": "int256",
          "name": "max",
          "type": "int256"
        }
      ],
      "name": "setRate",
      "outputs": [],
      "stateMutability": "nonpayable",
      "type": "function"
    },
    {
      "inputs": [
        {
          "internalType": "address",
          "name": "",
          "type": "address"
        }
      ],
      "name": "supportOracles",
      "outputs": [
        {
          "internalType": "bool",
          "name": "",
          "type": "bool"
        }
      ],
      "stateMutability": "view",
      "type": "function"
    },
    {
      "inputs": [
        {
          "internalType": "address",
          "name": "newOwner",
          "type": "address"
        }
      ],
      "name": "transferOwnership",
      "outputs": [],
      "stateMutability": "nonpayable",
      "type": "function"
    },
    {
      "inputs": [
        {
          "internalType": "address",
          "name": "asset",
          "type": "address"
        },
        {
          "internalType": "address",
          "name": "receiver",
          "type": "address"
        }
      ],
      "name": "withdraw",
      "outputs": [],
      "stateMutability": "nonpayable",
      "type": "function"
    }
  ],
  "transactionHash": "0xe479227e3cd83ed9143117ab66cd2466654b0f4d38935c17f7dd1e6c783a352c",
  "args": [],
  "solcInputHash": "2a79c4162b5952a6aa195452c697c39b",
  "bytecode": "0x608060405234801561001057600080fd5b5061002d61002261004460201b60201c565b61004c60201b60201c565b61012c60038190555061012c600481905550610110565b600033905090565b60008060009054906101000a900473ffffffffffffffffffffffffffffffffffffffff169050816000806101000a81548173ffffffffffffffffffffffffffffffffffffffff021916908373ffffffffffffffffffffffffffffffffffffffff1602179055508173ffffffffffffffffffffffffffffffffffffffff168173ffffffffffffffffffffffffffffffffffffffff167f8be0079c531659141344cd1fd0a4f28419497f9722a3daafe3b4186f6b6457e060405160405180910390a35050565b61241980620001206000396000f3fe608060405234801561001057600080fd5b50600436106100cf5760003560e01c8063ac4b81d31161008c578063e1f95e4511610066578063e1f95e45146101ed578063f2fde38b1461020b578063f3ae241514610227578063f940e38514610257576100cf565b8063ac4b81d31461016e578063ba544ced146101a1578063bfe402f4146101d1576100cf565b806313364508146100d457806348971acd146100f0578063715018a61461010c57806385faf624146101165780638da5cb5b14610134578063a5e90eee14610152575b600080fd5b6100ee60048036038101906100e9919061145b565b610273565b005b61010a600480360381019061010591906114c7565b6103f3565b005b61011461073b565b005b61011e61074f565b60405161012b9190611aba565b60405180910390f35b61013c610755565b6040516101499190611971565b60405180910390f35b61016c6004803603810190610167919061141f565b61077e565b005b610188600480360381019061018391906113ba565b61081a565b6040516101989493929190611a75565b60405180910390f35b6101bb60048036038101906101b691906113ba565b6109bf565b6040516101c89190611a5a565b60405180910390f35b6101eb60048036038101906101e69190611585565b6109df565b005b6101f5610a9f565b6040516102029190611aba565b60405180910390f35b610225600480360381019061022091906113ba565b610aa5565b005b610241600480360381019061023c91906113ba565b610b29565b60405161024e9190611a5a565b60405180910390f35b610271600480360381019061026c91906113e3565b610b49565b005b61027b610d14565b80518251146102bf576040517f08c379a00000000000000000000000000000000000000000000000000000000081526004016102b690611c20565b60405180910390fd5b60005b82518110156103b557818181518110610304577f4e487b7100000000000000000000000000000000000000000000000000000000600052603260045260246000fd5b602002602001015160016000858481518110610349577f4e487b7100000000000000000000000000000000000000000000000000000000600052603260045260246000fd5b602002602001015173ffffffffffffffffffffffffffffffffffffffff1673ffffffffffffffffffffffffffffffffffffffff16815260200190815260200160002060006101000a81548160ff02191690831515021790555080806103ad90612097565b9150506102c2565b507feb256ec3927d5d5812547681f0cec38acd12c94205e0a4b586cb989c57df0cee82826040516103e79291906119de565b60405180910390a15050565b600260003373ffffffffffffffffffffffffffffffffffffffff1673ffffffffffffffffffffffffffffffffffffffff16815260200190815260200160002060009054906101000a900460ff1680610484575061044e610d92565b73ffffffffffffffffffffffffffffffffffffffff1661046c610755565b73ffffffffffffffffffffffffffffffffffffffff16145b6104c3576040517f08c379a00000000000000000000000000000000000000000000000000000000081526004016104ba90611bc0565b60405180910390fd5b8051825114610507576040517f08c379a00000000000000000000000000000000000000000000000000000000081526004016104fe90611b80565b60405180910390fd5b60005b82518110156106fb57600083828151811061054e577f4e487b7100000000000000000000000000000000000000000000000000000000600052603260045260246000fd5b60200260200101519050600160008273ffffffffffffffffffffffffffffffffffffffff1673ffffffffffffffffffffffffffffffffffffffff16815260200190815260200160002060009054906101000a900460ff16156106e75760008173ffffffffffffffffffffffffffffffffffffffff1663668a0f026040518163ffffffff1660e01b815260040160206040518083038186803b1580156105f257600080fd5b505afa158015610606573d6000803e3d6000fd5b505050506040513d601f19601f8201168201806040525081019061062a91906115c1565b90508173ffffffffffffffffffffffffffffffffffffffff1663202ee0ed6001836106559190611e0a565b86868151811061068e577f4e487b7100000000000000000000000000000000000000000000000000000000600052603260045260246000fd5b60200260200101516040518363ffffffff1660e01b81526004016106b3929190611c5b565b600060405180830381600087803b1580156106cd57600080fd5b505af11580156106e1573d6000803e3d6000fd5b50505050505b5080806106f390612097565b91505061050a565b507f8497944601feab42f42de752a3f83e454989ea3f827513babfbc7910781eb2fe82824260405161072f93929190611a15565b60405180910390a15050565b610743610d14565b61074d6000610d9a565b565b60045481565b60008060009054906101000a900473ffffffffffffffffffffffffffffffffffffffff16905090565b610786610d14565b80600260008473ffffffffffffffffffffffffffffffffffffffff1673ffffffffffffffffffffffffffffffffffffffff16815260200190815260200160002060006101000a81548160ff0219169083151502179055507fff83ce179bad4fbdb0e98074011487cde624295a52d8189d92d5d8b06c914eda828260405161080e92919061198c565b60405180910390a15050565b60008060008060008573ffffffffffffffffffffffffffffffffffffffff166350d25bcd6040518163ffffffff1660e01b815260040160206040518083038186803b15801561086857600080fd5b505afa15801561087c573d6000803e3d6000fd5b505050506040513d601f19601f820116820180604052508101906108a0919061155c565b90506103e8600354826108b39190611eca565b6108bd9190611e60565b93506103e8600454826108d09190611eca565b6108da9190611e60565b925060018673ffffffffffffffffffffffffffffffffffffffff1663668a0f026040518163ffffffff1660e01b815260040160206040518083038186803b15801561092457600080fd5b505afa158015610938573d6000803e3d6000fd5b505050506040513d601f19601f8201168201806040525081019061095c91906115c1565b6109669190611e0a565b9150600160008773ffffffffffffffffffffffffffffffffffffffff1673ffffffffffffffffffffffffffffffffffffffff16815260200190815260200160002060009054906101000a900460ff169450509193509193565b60016020528060005260406000206000915054906101000a900460ff1681565b6109e7610d14565b6000821380156109f857506103e882125b8015610a045750600081135b8015610a1157506103e881125b610a50576040517f08c379a0000000000000000000000000000000000000000000000000000000008152600401610a4790611b20565b60405180910390fd5b81600381905550806004819055507f1c393c49b54f486a33825e7b6383870c1e1fb1b2d8a480de3eb2286ba8e60bee600354600454604051610a93929190611ad5565b60405180910390a15050565b60035481565b610aad610d14565b600073ffffffffffffffffffffffffffffffffffffffff168173ffffffffffffffffffffffffffffffffffffffff161415610b1d576040517f08c379a0000000000000000000000000000000000000000000000000000000008152600401610b1490611b40565b60405180910390fd5b610b2681610d9a565b50565b60026020528060005260406000206000915054906101000a900460ff1681565b610b51610d14565b60008073ffffffffffffffffffffffffffffffffffffffff168373ffffffffffffffffffffffffffffffffffffffff161415610bf35760003090508073ffffffffffffffffffffffffffffffffffffffff163191508273ffffffffffffffffffffffffffffffffffffffff166108fc839081150290604051600060405180830381858888f19350505050158015610bec573d6000803e3d6000fd5b5050610caa565b8273ffffffffffffffffffffffffffffffffffffffff166370a08231306040518263ffffffff1660e01b8152600401610c2c9190611971565b60206040518083038186803b158015610c4457600080fd5b505afa158015610c58573d6000803e3d6000fd5b505050506040513d601f19601f82011682018060405250810190610c7c91906115c1565b9050610ca982828573ffffffffffffffffffffffffffffffffffffffff16610e5e9092919063ffffffff16565b5b8273ffffffffffffffffffffffffffffffffffffffff168273ffffffffffffffffffffffffffffffffffffffff167f9207361cc2a04b9c7a06691df1eb87c6a63957ae88bf01d0d18c81e3d127209983604051610d079190611c40565b60405180910390a3505050565b610d1c610d92565b73ffffffffffffffffffffffffffffffffffffffff16610d3a610755565b73ffffffffffffffffffffffffffffffffffffffff1614610d90576040517f08c379a0000000000000000000000000000000000000000000000000000000008152600401610d8790611ba0565b60405180910390fd5b565b600033905090565b60008060009054906101000a900473ffffffffffffffffffffffffffffffffffffffff169050816000806101000a81548173ffffffffffffffffffffffffffffffffffffffff021916908373ffffffffffffffffffffffffffffffffffffffff1602179055508173ffffffffffffffffffffffffffffffffffffffff168173ffffffffffffffffffffffffffffffffffffffff167f8be0079c531659141344cd1fd0a4f28419497f9722a3daafe3b4186f6b6457e060405160405180910390a35050565b610edf8363a9059cbb60e01b8484604051602401610e7d9291906119b5565b604051602081830303815290604052907bffffffffffffffffffffffffffffffffffffffffffffffffffffffff19166020820180517bffffffffffffffffffffffffffffffffffffffffffffffffffffffff8381831617835250505050610ee4565b505050565b6000610f46826040518060400160405280602081526020017f5361666545524332303a206c6f772d6c6576656c2063616c6c206661696c65648152508573ffffffffffffffffffffffffffffffffffffffff16610fac9092919063ffffffff16565b9050600081511480610f68575080806020019051810190610f679190611533565b5b610fa7576040517f08c379a0000000000000000000000000000000000000000000000000000000008152600401610f9e90611c00565b60405180910390fd5b505050565b6060610fbb8484600085610fc4565b90509392505050565b606082471015611009576040517f08c379a000000000000000000000000000000000000000000000000000000000815260040161100090611b60565b60405180910390fd5b6000808673ffffffffffffffffffffffffffffffffffffffff168587604051611032919061195a565b60006040518083038185875af1925050503d806000811461106f576040519150601f19603f3d011682016040523d82523d6000602084013e611074565b606091505b509150915061108587838387611091565b92505050949350505050565b606083156110f4576000835114156110ec576110ac85611107565b6110eb576040517f08c379a00000000000000000000000000000000000000000000000000000000081526004016110e290611be0565b60405180910390fd5b5b8290506110ff565b6110fe838361112a565b5b949350505050565b6000808273ffffffffffffffffffffffffffffffffffffffff163b119050919050565b60008251111561113d5781518083602001fd5b806040517f08c379a00000000000000000000000000000000000000000000000000000000081526004016111719190611afe565b60405180910390fd5b600061118d61118884611ca9565b611c84565b905080838252602082019050828560208602820111156111ac57600080fd5b60005b858110156111dc57816111c288826112be565b8452602084019350602083019250506001810190506111af565b5050509392505050565b60006111f96111f484611cd5565b611c84565b9050808382526020820190508285602086028201111561121857600080fd5b60005b85811015611248578161122e8882611351565b84526020840193506020830192505060018101905061121b565b5050509392505050565b600061126561126084611d01565b611c84565b9050808382526020820190508285602086028201111561128457600080fd5b60005b858110156112b4578161129a888261137b565b845260208401935060208301925050600181019050611287565b5050509392505050565b6000813590506112cd81612387565b92915050565b600082601f8301126112e457600080fd5b81356112f484826020860161117a565b91505092915050565b600082601f83011261130e57600080fd5b813561131e8482602086016111e6565b91505092915050565b600082601f83011261133857600080fd5b8135611348848260208601611252565b91505092915050565b6000813590506113608161239e565b92915050565b6000815190506113758161239e565b92915050565b60008135905061138a816123b5565b92915050565b60008151905061139f816123b5565b92915050565b6000815190506113b4816123cc565b92915050565b6000602082840312156113cc57600080fd5b60006113da848285016112be565b91505092915050565b600080604083850312156113f657600080fd5b6000611404858286016112be565b9250506020611415858286016112be565b9150509250929050565b6000806040838503121561143257600080fd5b6000611440858286016112be565b925050602061145185828601611351565b9150509250929050565b6000806040838503121561146e57600080fd5b600083013567ffffffffffffffff81111561148857600080fd5b611494858286016112d3565b925050602083013567ffffffffffffffff8111156114b157600080fd5b6114bd858286016112fd565b9150509250929050565b600080604083850312156114da57600080fd5b600083013567ffffffffffffffff8111156114f457600080fd5b611500858286016112d3565b925050602083013567ffffffffffffffff81111561151d57600080fd5b61152985828601611327565b9150509250929050565b60006020828403121561154557600080fd5b600061155384828501611366565b91505092915050565b60006020828403121561156e57600080fd5b600061157c84828501611390565b91505092915050565b6000806040838503121561159857600080fd5b60006115a68582860161137b565b92505060206115b78582860161137b565b9150509250929050565b6000602082840312156115d357600080fd5b60006115e1848285016113a5565b91505092915050565b60006115f68383611632565b60208301905092915050565b600061160e838361176a565b60208301905092915050565b600061162683836117b9565b60208301905092915050565b61163b81611fe1565b82525050565b61164a81611fe1565b82525050565b600061165b82611d5d565b6116658185611dbb565b935061167083611d2d565b8060005b838110156116a157815161168888826115ea565b975061169383611d94565b925050600181019050611674565b5085935050505092915050565b60006116b982611d68565b6116c38185611dcc565b93506116ce83611d3d565b8060005b838110156116ff5781516116e68882611602565b97506116f183611da1565b9250506001810190506116d2565b5085935050505092915050565b600061171782611d73565b6117218185611ddd565b935061172c83611d4d565b8060005b8381101561175d578151611744888261161a565b975061174f83611dae565b925050600181019050611730565b5085935050505092915050565b61177381611ff3565b82525050565b61178281611ff3565b82525050565b600061179382611d7e565b61179d8185611dee565b93506117ad818560208601612033565b80840191505092915050565b6117c281611fff565b82525050565b6117d181611fff565b82525050565b60006117e282611d89565b6117ec8185611df9565b93506117fc818560208601612033565b6118058161216d565b840191505092915050565b600061181d601683611df9565b91506118288261217e565b602082019050919050565b6000611840602683611df9565b915061184b826121a7565b604082019050919050565b6000611863602683611df9565b915061186e826121f6565b604082019050919050565b6000611886602183611df9565b915061189182612245565b604082019050919050565b60006118a9602083611df9565b91506118b482612294565b602082019050919050565b60006118cc601883611df9565b91506118d7826122bd565b602082019050919050565b60006118ef601d83611df9565b91506118fa826122e6565b602082019050919050565b6000611912602a83611df9565b915061191d8261230f565b604082019050919050565b6000611935602083611df9565b91506119408261235e565b602082019050919050565b61195481612029565b82525050565b60006119668284611788565b915081905092915050565b60006020820190506119866000830184611641565b92915050565b60006040820190506119a16000830185611641565b6119ae6020830184611779565b9392505050565b60006040820190506119ca6000830185611641565b6119d7602083018461194b565b9392505050565b600060408201905081810360008301526119f88185611650565b90508181036020830152611a0c81846116ae565b90509392505050565b60006060820190508181036000830152611a2f8186611650565b90508181036020830152611a43818561170c565b9050611a52604083018461194b565b949350505050565b6000602082019050611a6f6000830184611779565b92915050565b6000608082019050611a8a6000830187611779565b611a9760208301866117c8565b611aa460408301856117c8565b611ab1606083018461194b565b95945050505050565b6000602082019050611acf60008301846117c8565b92915050565b6000604082019050611aea60008301856117c8565b611af760208301846117c8565b9392505050565b60006020820190508181036000830152611b1881846117d7565b905092915050565b60006020820190508181036000830152611b3981611810565b9050919050565b60006020820190508181036000830152611b5981611833565b9050919050565b60006020820190508181036000830152611b7981611856565b9050919050565b60006020820190508181036000830152611b9981611879565b9050919050565b60006020820190508181036000830152611bb98161189c565b9050919050565b60006020820190508181036000830152611bd9816118bf565b9050919050565b60006020820190508181036000830152611bf9816118e2565b9050919050565b60006020820190508181036000830152611c1981611905565b9050919050565b60006020820190508181036000830152611c3981611928565b9050919050565b6000602082019050611c55600083018461194b565b92915050565b6000604082019050611c70600083018561194b565b611c7d60208301846117c8565b9392505050565b6000611c8e611c9f565b9050611c9a8282612066565b919050565b6000604051905090565b600067ffffffffffffffff821115611cc457611cc361213e565b5b602082029050602081019050919050565b600067ffffffffffffffff821115611cf057611cef61213e565b5b602082029050602081019050919050565b600067ffffffffffffffff821115611d1c57611d1b61213e565b5b602082029050602081019050919050565b6000819050602082019050919050565b6000819050602082019050919050565b6000819050602082019050919050565b600081519050919050565b600081519050919050565b600081519050919050565b600081519050919050565b600081519050919050565b6000602082019050919050565b6000602082019050919050565b6000602082019050919050565b600082825260208201905092915050565b600082825260208201905092915050565b600082825260208201905092915050565b600081905092915050565b600082825260208201905092915050565b6000611e1582612029565b9150611e2083612029565b9250827fffffffffffffffffffffffffffffffffffffffffffffffffffffffffffffffff03821115611e5557611e546120e0565b5b828201905092915050565b6000611e6b82611fff565b9150611e7683611fff565b925082611e8657611e8561210f565b5b600160000383147f800000000000000000000000000000000000000000000000000000000000000083141615611ebf57611ebe6120e0565b5b828205905092915050565b6000611ed582611fff565b9150611ee083611fff565b9250827f7fffffffffffffffffffffffffffffffffffffffffffffffffffffffffffffff0482116000841360008413161615611f1f57611f1e6120e0565b5b817f80000000000000000000000000000000000000000000000000000000000000000583126000841260008413161615611f5c57611f5b6120e0565b5b827f80000000000000000000000000000000000000000000000000000000000000000582126000841360008412161615611f9957611f986120e0565b5b827f7fffffffffffffffffffffffffffffffffffffffffffffffffffffffffffffff0582126000841260008412161615611fd657611fd56120e0565b5b828202905092915050565b6000611fec82612009565b9050919050565b60008115159050919050565b6000819050919050565b600073ffffffffffffffffffffffffffffffffffffffff82169050919050565b6000819050919050565b60005b83811015612051578082015181840152602081019050612036565b83811115612060576000848401525b50505050565b61206f8261216d565b810181811067ffffffffffffffff8211171561208e5761208d61213e565b5b80604052505050565b60006120a282612029565b91507fffffffffffffffffffffffffffffffffffffffffffffffffffffffffffffffff8214156120d5576120d46120e0565b5b600182019050919050565b7f4e487b7100000000000000000000000000000000000000000000000000000000600052601160045260246000fd5b7f4e487b7100000000000000000000000000000000000000000000000000000000600052601260045260246000fd5b7f4e487b7100000000000000000000000000000000000000000000000000000000600052604160045260246000fd5b6000601f19601f8301169050919050565b7f736574526174653a20496e76616c696420506172616d00000000000000000000600082015250565b7f4f776e61626c653a206e6577206f776e657220697320746865207a65726f206160008201527f6464726573730000000000000000000000000000000000000000000000000000602082015250565b7f416464726573733a20696e73756666696369656e742062616c616e636520666f60008201527f722063616c6c0000000000000000000000000000000000000000000000000000602082015250565b7f62617463685570646174653a20496e76616c696420706172616d206c656e677460008201527f6800000000000000000000000000000000000000000000000000000000000000602082015250565b7f4f776e61626c653a2063616c6c6572206973206e6f7420746865206f776e6572600082015250565b7f62617463685570646174653a204e6f74206d616e616765720000000000000000600082015250565b7f416464726573733a2063616c6c20746f206e6f6e2d636f6e7472616374000000600082015250565b7f5361666545524332303a204552433230206f7065726174696f6e20646964206e60008201527f6f74207375636365656400000000000000000000000000000000000000000000602082015250565b7f7365744f7261636c65733a20496e76616c696420706172616d206c656e677468600082015250565b61239081611fe1565b811461239b57600080fd5b50565b6123a781611ff3565b81146123b257600080fd5b50565b6123be81611fff565b81146123c957600080fd5b50565b6123d581612029565b81146123e057600080fd5b5056fea26469706673582212207d2579b5fb29b68f62aed53340abe0cd86c3048cb3f391db3c25264f06fc525964736f6c63430008040033",
  "devdoc": {
    "kind": "dev",
    "methods": {
      "batchUpdate(address[],int256[])": {
        "params": {
          "oracles": "list of the chainlink oracle",
          "prices": "list of prices to submit"
        }
      },
      "getUpdateAvailablePriceRange(address)": {
        "params": {
          "oracle": "address of the chainlink oracle"
        }
      },
      "owner()": {
        "details": "Returns the address of the current owner."
      },
      "renounceOwnership()": {
        "details": "Leaves the contract without owner. It will not be possible to call `onlyOwner` functions. Can only be called by the current owner. NOTE: Renouncing ownership will leave the contract without an owner, thereby disabling any functionality that is only available to the owner."
      },
      "setManager(address,bool)": {
        "params": {
          "manager": "address of manager",
          "status": "bool status of the manager"
        }
      },
      "setOracles(address[],bool[])": {
        "params": {
          "oracles": "array of chainlink aggregator contracts",
          "statusList": "array of bool status"
        }
      },
      "setRate(int256,int256)": {
        "params": {
          "max": "% of max",
          "min": "% of min"
        }
      },
      "transferOwnership(address)": {
        "details": "Transfers ownership of the contract to a new account (`newOwner`). Can only be called by the current owner."
      }
    },
    "title": "contract for managing NFT oracles that protocol supports",
    "version": 1
  },
  "userdoc": {
    "events": {
      "LogWithdraw(address,address,uint256)": {
        "notice": "emitted when withdraw happens"
      },
      "ManagerSet(address,bool)": {
        "notice": "emitted when manager is set"
      },
      "OraclesSet(address[],bool[])": {
        "notice": "emitted when oracles are set"
      },
      "PricesSubmitted(address[],int256[],uint256)": {
        "notice": "emitted when prices are submitted"
      },
      "RateSet(int256,int256)": {
        "notice": "emitted when updatable price range is set"
      }
    },
    "kind": "user",
    "methods": {
      "batchUpdate(address[],int256[])": {
        "notice": "submit prices to chainlink aggregators"
      },
      "getUpdateAvailablePriceRange(address)": {
        "notice": "calculate the updatable price range for the next round"
      },
      "isManager(address)": {
        "notice": "manager who can call this function to submit prices"
      },
      "minChangeRate()": {
        "notice": "updatable price range for the next round"
      },
      "setManager(address,bool)": {
        "notice": "set manager who can call this contract to submit prices"
      },
      "setOracles(address[],bool[])": {
        "notice": "set oracle contracts into nfts"
      },
      "setRate(int256,int256)": {
        "notice": "set min and max rate for the price updatable range"
      },
      "supportOracles(address)": {
        "notice": "chainlink aggregator oracle contract => support?"
      },
      "withdraw(address,address)": {
        "notice": "withdraw assets from the contract"
      }
    },
    "version": 1
  },
  "storageLayout": {
    "storage": [
      {
        "astId": 1475,
        "contract": "contracts/oracle/NFTOracleManager.sol:NFTOracleManager",
        "label": "_owner",
        "offset": 0,
        "slot": "0",
        "type": "t_address"
      },
      {
        "astId": 7345,
        "contract": "contracts/oracle/NFTOracleManager.sol:NFTOracleManager",
        "label": "supportOracles",
        "offset": 0,
        "slot": "1",
        "type": "t_mapping(t_address,t_bool)"
      },
      {
        "astId": 7350,
        "contract": "contracts/oracle/NFTOracleManager.sol:NFTOracleManager",
        "label": "isManager",
        "offset": 0,
        "slot": "2",
        "type": "t_mapping(t_address,t_bool)"
      },
      {
        "astId": 7353,
        "contract": "contracts/oracle/NFTOracleManager.sol:NFTOracleManager",
        "label": "minChangeRate",
        "offset": 0,
        "slot": "3",
        "type": "t_int256"
      },
      {
        "astId": 7355,
        "contract": "contracts/oracle/NFTOracleManager.sol:NFTOracleManager",
        "label": "maxChangeRate",
        "offset": 0,
        "slot": "4",
        "type": "t_int256"
      }
    ],
    "types": {
      "t_address": {
        "encoding": "inplace",
        "label": "address",
        "numberOfBytes": "20"
      },
      "t_bool": {
        "encoding": "inplace",
        "label": "bool",
        "numberOfBytes": "1"
      },
      "t_int256": {
        "encoding": "inplace",
        "label": "int256",
        "numberOfBytes": "32"
      },
      "t_mapping(t_address,t_bool)": {
        "encoding": "mapping",
        "key": "t_address",
        "label": "mapping(address => bool)",
        "numberOfBytes": "32",
        "value": "t_bool"
      }
    }
  }
}