{
  "address": "0x9155497EAE31D432C0b13dBCc0615a37f55a2c87",
  "abi": [
    {
      "inputs": [
        {
          "internalType": "contract IUniswapV2Pair",
          "name": "pairAddr",
          "type": "address"
        },
        {
          "internalType": "address",
          "name": "tokenAddr",
          "type": "address"
        },
        {
          "internalType": "contract IDropsOracle",
          "name": "tokenOracleAddr",
          "type": "address"
        }
      ],
      "stateMutability": "nonpayable",
      "type": "constructor"
    },
    {
      "inputs": [],
      "name": "decimals",
      "outputs": [
        {
          "internalType": "uint8",
          "name": "",
          "type": "uint8"
        }
      ],
      "stateMutability": "pure",
      "type": "function"
    },
    {
      "inputs": [],
      "name": "latestAnswer",
      "outputs": [
        {
          "internalType": "int256",
          "name": "answer",
          "type": "int256"
        }
      ],
      "stateMutability": "view",
      "type": "function"
    },
    {
      "inputs": [],
      "name": "pair",
      "outputs": [
        {
          "internalType": "contract IUniswapV2Pair",
          "name": "",
          "type": "address"
        }
      ],
      "stateMutability": "view",
      "type": "function"
    },
    {
      "inputs": [],
      "name": "token",
      "outputs": [
        {
          "internalType": "address",
          "name": "",
          "type": "address"
        }
      ],
      "stateMutability": "view",
      "type": "function"
    },
    {
      "inputs": [],
      "name": "tokenOracle",
      "outputs": [
        {
          "internalType": "contract IDropsOracle",
          "name": "",
          "type": "address"
        }
      ],
      "stateMutability": "view",
      "type": "function"
    }
  ],
  "transactionHash": "0x681503b90f7f813dc79f67588ab8f2c6113d84b70c409490f394654abb3a347c",
  "args": [
    "0x698AbbBC986C59D02941E18BC96fe2396493339B",
    "0x8d137e3337eb1B58A222Fef2B2Cc7C423903d9cf",
    "0xEbF67AB8cFF336D3F609127E8BbF8BD6DD93cd81"
  ],
  "solcInputHash": "2a79c4162b5952a6aa195452c697c39b",
  "bytecode": "0x60e06040523480156200001157600080fd5b50604051620012d4380380620012d483398181016040528101906200003791906200012a565b8273ffffffffffffffffffffffffffffffffffffffff1660808173ffffffffffffffffffffffffffffffffffffffff1660601b815250508173ffffffffffffffffffffffffffffffffffffffff1660a08173ffffffffffffffffffffffffffffffffffffffff1660601b815250508073ffffffffffffffffffffffffffffffffffffffff1660c08173ffffffffffffffffffffffffffffffffffffffff1660601b815250505050506200022a565b600081519050620000f681620001dc565b92915050565b6000815190506200010d81620001f6565b92915050565b600081519050620001248162000210565b92915050565b6000806000606084860312156200014057600080fd5b6000620001508682870162000113565b93505060206200016386828701620000e5565b92505060406200017686828701620000fc565b9150509250925092565b60006200018d82620001bc565b9050919050565b6000620001a18262000180565b9050919050565b6000620001b58262000180565b9050919050565b600073ffffffffffffffffffffffffffffffffffffffff82169050919050565b620001e78162000180565b8114620001f357600080fd5b50565b620002018162000194565b81146200020d57600080fd5b50565b6200021b81620001a8565b81146200022757600080fd5b50565b60805160601c60a05160601c60c05160601c611040620002946000396000818161042f01526106c40152600081816102b701528181610362015261070c015260008181610102015281816101f2015281816104fc015281816105f701526106e801526110406000f3fe608060405234801561001057600080fd5b50600436106100575760003560e01c8063313ce5671461005c57806350d25bcd1461007a5780636c5ec25c14610098578063a8aa1b31146100b6578063fc0c546a146100d4575b600080fd5b6100646100f2565b6040516100719190610c39565b60405180910390f35b6100826100fb565b60405161008f9190610c1e565b60405180910390f35b6100a06106c2565b6040516100ad9190610be8565b60405180910390f35b6100be6106e6565b6040516100cb9190610c03565b60405180910390f35b6100dc61070a565b6040516100e99190610bcd565b60405180910390f35b60006012905090565b60008060007f000000000000000000000000000000000000000000000000000000000000000073ffffffffffffffffffffffffffffffffffffffff16630902f1ac6040518163ffffffff1660e01b815260040160606040518083038186803b15801561016657600080fd5b505afa15801561017a573d6000803e3d6000fd5b505050506040513d601f19601f8201168201806040525081019061019e9190610ae1565b506dffffffffffffffffffffffffffff1691506dffffffffffffffffffffffffffff169150600073c02aaa39b223fe8d0a0e5c4f27ead9083c756cc273ffffffffffffffffffffffffffffffffffffffff167f000000000000000000000000000000000000000000000000000000000000000073ffffffffffffffffffffffffffffffffffffffff16630dfe16816040518163ffffffff1660e01b815260040160206040518083038186803b15801561025657600080fd5b505afa15801561026a573d6000803e3d6000fd5b505050506040513d601f19601f8201168201806040525081019061028e9190610a8f565b73ffffffffffffffffffffffffffffffffffffffff16146102af57826102b1565b815b905060007f000000000000000000000000000000000000000000000000000000000000000073ffffffffffffffffffffffffffffffffffffffff1663313ce5676040518163ffffffff1660e01b815260040160206040518083038186803b15801561031b57600080fd5b505afa15801561032f573d6000803e3d6000fd5b505050506040513d601f19601f820116820180604052508101906103539190610b59565b905060128160ff161461042b577f000000000000000000000000000000000000000000000000000000000000000073ffffffffffffffffffffffffffffffffffffffff1663313ce5676040518163ffffffff1660e01b815260040160206040518083038186803b1580156103c657600080fd5b505afa1580156103da573d6000803e3d6000fd5b505050506040513d601f19601f820116820180604052508101906103fe9190610b59565b600a61040a9190610cd8565b670de0b6b3a76400008361041e9190610df6565b6104289190610c54565b91505b60007f000000000000000000000000000000000000000000000000000000000000000073ffffffffffffffffffffffffffffffffffffffff166350d25bcd6040518163ffffffff1660e01b815260040160206040518083038186803b15801561049357600080fd5b505afa1580156104a7573d6000803e3d6000fd5b505050506040513d601f19601f820116820180604052508101906104cb9190610ab8565b9050600073c02aaa39b223fe8d0a0e5c4f27ead9083c756cc273ffffffffffffffffffffffffffffffffffffffff167f000000000000000000000000000000000000000000000000000000000000000073ffffffffffffffffffffffffffffffffffffffff16630dfe16816040518163ffffffff1660e01b815260040160206040518083038186803b15801561056057600080fd5b505afa158015610574573d6000803e3d6000fd5b505050506040513d601f19601f820116820180604052508101906105989190610a8f565b73ffffffffffffffffffffffffffffffffffffffff16146105b957846105bb565b855b905060006105d382866105ce9190610df6565b61072e565b905060006105f3670de0b6b3a7640000856105ee9190610df6565b61072e565b90507f000000000000000000000000000000000000000000000000000000000000000073ffffffffffffffffffffffffffffffffffffffff166318160ddd6040518163ffffffff1660e01b815260040160206040518083038186803b15801561065b57600080fd5b505afa15801561066f573d6000803e3d6000fd5b505050506040513d601f19601f820116820180604052508101906106939190610b30565b818360026106a19190610df6565b6106ab9190610df6565b6106b59190610c54565b9850505050505050505090565b7f000000000000000000000000000000000000000000000000000000000000000081565b7f000000000000000000000000000000000000000000000000000000000000000081565b7f000000000000000000000000000000000000000000000000000000000000000081565b6000808214156107415760009050610a0c565b600082905060019150700100000000000000000000000000000000811061077157608081901c9050604082901b91505b68010000000000000000811061079057604081901c9050602082901b91505b64010000000081106107ab57602081901c9050601082901b91505b6201000081106107c457601081901c9050600882901b91505b61010081106107dc57600881901c9050600482901b91505b601081106107f357600481901c9050600282901b91505b6008811061080357600182901b91505b600182848161083b577f4e487b7100000000000000000000000000000000000000000000000000000000600052601260045260246000fd5b048301901c9150600182848161087a577f4e487b7100000000000000000000000000000000000000000000000000000000600052601260045260246000fd5b048301901c915060018284816108b9577f4e487b7100000000000000000000000000000000000000000000000000000000600052601260045260246000fd5b048301901c915060018284816108f8577f4e487b7100000000000000000000000000000000000000000000000000000000600052601260045260246000fd5b048301901c91506001828481610937577f4e487b7100000000000000000000000000000000000000000000000000000000600052601260045260246000fd5b048301901c91506001828481610976577f4e487b7100000000000000000000000000000000000000000000000000000000600052601260045260246000fd5b048301901c915060018284816109b5577f4e487b7100000000000000000000000000000000000000000000000000000000600052601260045260246000fd5b048301901c915060008284816109f4577f4e487b7100000000000000000000000000000000000000000000000000000000600052601260045260246000fd5b04905080831015610a055782610a07565b805b925050505b919050565b600081519050610a2081610f80565b92915050565b600081519050610a3581610f97565b92915050565b600081519050610a4a81610fae565b92915050565b600081519050610a5f81610fc5565b92915050565b600081519050610a7481610fdc565b92915050565b600081519050610a8981610ff3565b92915050565b600060208284031215610aa157600080fd5b6000610aaf84828501610a11565b91505092915050565b600060208284031215610aca57600080fd5b6000610ad884828501610a26565b91505092915050565b600080600060608486031215610af657600080fd5b6000610b0486828701610a3b565b9350506020610b1586828701610a3b565b9250506040610b2686828701610a65565b9150509250925092565b600060208284031215610b4257600080fd5b6000610b5084828501610a50565b91505092915050565b600060208284031215610b6b57600080fd5b6000610b7984828501610a7a565b91505092915050565b610b8b81610e50565b82525050565b610b9a81610ecd565b82525050565b610ba981610ef1565b82525050565b610bb881610e62565b82525050565b610bc781610ec0565b82525050565b6000602082019050610be26000830184610b82565b92915050565b6000602082019050610bfd6000830184610b91565b92915050565b6000602082019050610c186000830184610ba0565b92915050565b6000602082019050610c336000830184610baf565b92915050565b6000602082019050610c4e6000830184610bbe565b92915050565b6000610c5f82610ea6565b9150610c6a83610ea6565b925082610c7a57610c79610f44565b5b828204905092915050565b6000808291508390505b6001851115610ccf57808604811115610cab57610caa610f15565b5b6001851615610cba5780820291505b8081029050610cc885610f73565b9450610c8f565b94509492505050565b6000610ce382610ea6565b9150610cee83610ec0565b9250610d1b7fffffffffffffffffffffffffffffffffffffffffffffffffffffffffffffffff8484610d23565b905092915050565b600082610d335760019050610def565b81610d415760009050610def565b8160018114610d575760028114610d6157610d90565b6001915050610def565b60ff841115610d7357610d72610f15565b5b8360020a915084821115610d8a57610d89610f15565b5b50610def565b5060208310610133831016604e8410600b8410161715610dc55782820a905083811115610dc057610dbf610f15565b5b610def565b610dd28484846001610c85565b92509050818404811115610de957610de8610f15565b5b81810290505b9392505050565b6000610e0182610ea6565b9150610e0c83610ea6565b9250817fffffffffffffffffffffffffffffffffffffffffffffffffffffffffffffffff0483118215151615610e4557610e44610f15565b5b828202905092915050565b6000610e5b82610e86565b9050919050565b6000819050919050565b60006dffffffffffffffffffffffffffff82169050919050565b600073ffffffffffffffffffffffffffffffffffffffff82169050919050565b6000819050919050565b600063ffffffff82169050919050565b600060ff82169050919050565b6000610ed882610edf565b9050919050565b6000610eea82610e86565b9050919050565b6000610efc82610f03565b9050919050565b6000610f0e82610e86565b9050919050565b7f4e487b7100000000000000000000000000000000000000000000000000000000600052601160045260246000fd5b7f4e487b7100000000000000000000000000000000000000000000000000000000600052601260045260246000fd5b60008160011c9050919050565b610f8981610e50565b8114610f9457600080fd5b50565b610fa081610e62565b8114610fab57600080fd5b50565b610fb781610e6c565b8114610fc257600080fd5b50565b610fce81610ea6565b8114610fd957600080fd5b50565b610fe581610eb0565b8114610ff057600080fd5b50565b610ffc81610ec0565b811461100757600080fd5b5056fea2646970667358221220f98ac70d41aa8492e88dcde3003bb1211a60a165b5f0f767941aaff794aa905064736f6c63430008040033",
  "devdoc": {
    "kind": "dev",
    "methods": {
      "latestAnswer()": {
        "details": "returns the latest price of asset"
      }
    },
    "title": "Price Aggreatofr for uniswap V2 LP tokens",
    "version": 1
  },
  "userdoc": {
    "kind": "user",
    "methods": {
      "latestAnswer()": {
        "notice": "we can reference LP pricing from https://blog.alphaventuredao.io/fair-lp-token-pricing/"
      },
      "pair()": {
        "notice": "address of Pair"
      },
      "token()": {
        "notice": "address of token that is not WETH"
      },
      "tokenOracle()": {
        "notice": "address of oracle for token ETH price"
      }
    },
    "version": 1
  },
  "storageLayout": {
    "storage": [],
    "types": null
  }
}