{
  "address": "0x46d4674578a2daBbD0CEAB0500c6c7867999db34",
  "abi": [
    {
      "inputs": [
        {
          "internalType": "uint256",
          "name": "vaultId",
          "type": "uint256"
        },
        {
          "internalType": "contract IDropsOracle",
          "name": "oracleAddr",
          "type": "address"
        },
        {
          "internalType": "contract INFTXInvetoryStaking",
          "name": "staking",
          "type": "address"
        }
      ],
      "stateMutability": "nonpayable",
      "type": "constructor"
    },
    {
      "inputs": [],
      "name": "decimals",
      "outputs": [
        {
          "internalType": "uint8",
          "name": "",
          "type": "uint8"
        }
      ],
      "stateMutability": "view",
      "type": "function"
    },
    {
      "inputs": [],
      "name": "latestAnswer",
      "outputs": [
        {
          "internalType": "int256",
          "name": "answer",
          "type": "int256"
        }
      ],
      "stateMutability": "view",
      "type": "function"
    },
    {
      "inputs": [],
      "name": "nftxInventoryStaking",
      "outputs": [
        {
          "internalType": "contract INFTXInvetoryStaking",
          "name": "",
          "type": "address"
        }
      ],
      "stateMutability": "view",
      "type": "function"
    },
    {
      "inputs": [],
      "name": "nftxVaultID",
      "outputs": [
        {
          "internalType": "uint256",
          "name": "",
          "type": "uint256"
        }
      ],
      "stateMutability": "view",
      "type": "function"
    },
    {
      "inputs": [],
      "name": "oracle",
      "outputs": [
        {
          "internalType": "contract IDropsOracle",
          "name": "",
          "type": "address"
        }
      ],
      "stateMutability": "view",
      "type": "function"
    }
  ],
  "transactionHash": "0xf491ec0c2ead1777f069656982de95814057e45315fc2201e987d1cc71a7f060",
  "args": [
    27,
    "0xEbF67AB8cFF336D3F609127E8BbF8BD6DD93cd81",
    "0x3e135c3e981fae3383a5ae0d323860a34cfab893"
  ],
  "solcInputHash": "2a79c4162b5952a6aa195452c697c39b",
  "bytecode": "0x60e06040523480156200001157600080fd5b5060405162000a5838038062000a588339818101604052810190620000379190620000fb565b82608081815250508173ffffffffffffffffffffffffffffffffffffffff1660a08173ffffffffffffffffffffffffffffffffffffffff1660601b815250508073ffffffffffffffffffffffffffffffffffffffff1660c08173ffffffffffffffffffffffffffffffffffffffff1660601b8152505050505062000205565b600081519050620000c781620001b7565b92915050565b600081519050620000de81620001d1565b92915050565b600081519050620000f581620001eb565b92915050565b6000806000606084860312156200011157600080fd5b60006200012186828701620000e4565b93505060206200013486828701620000b6565b92505060406200014786828701620000cd565b9150509250925092565b60006200015e826200018d565b9050919050565b6000620001728262000151565b9050919050565b6000620001868262000151565b9050919050565b600073ffffffffffffffffffffffffffffffffffffffff82169050919050565b6000819050919050565b620001c28162000165565b8114620001ce57600080fd5b50565b620001dc8162000179565b8114620001e857600080fd5b50565b620001f681620001ad565b81146200020257600080fd5b50565b60805160a05160601c60c05160601c610802620002566000396000818161019c015261037101526000818160f60152818161027001526103290152600081816101d8015261034d01526108026000f3fe608060405234801561001057600080fd5b50600436106100575760003560e01c8063313ce5671461005c57806350d25bcd1461007a5780637dc0d1d014610098578063adeabd71146100b6578063ea8947db146100d4575b600080fd5b6100646100f2565b6040516100719190610504565b60405180910390f35b610082610197565b60405161008f91906104ce565b60405180910390f35b6100a0610327565b6040516100ad9190610498565b60405180910390f35b6100be61034b565b6040516100cb91906104e9565b60405180910390f35b6100dc61036f565b6040516100e991906104b3565b60405180910390f35b60007f000000000000000000000000000000000000000000000000000000000000000073ffffffffffffffffffffffffffffffffffffffff1663313ce5676040518163ffffffff1660e01b815260040160206040518083038186803b15801561015a57600080fd5b505afa15801561016e573d6000803e3d6000fd5b505050506040513d601f19601f820116820180604052508101906101929190610424565b905090565b6000807f000000000000000000000000000000000000000000000000000000000000000073ffffffffffffffffffffffffffffffffffffffff16634363fcd27f00000000000000000000000000000000000000000000000000000000000000006040518263ffffffff1660e01b815260040161021391906104e9565b60206040518083038186803b15801561022b57600080fd5b505afa15801561023f573d6000803e3d6000fd5b505050506040513d601f19601f8201168201806040525081019061026391906103fb565b9050670de0b6b3a76400007f000000000000000000000000000000000000000000000000000000000000000073ffffffffffffffffffffffffffffffffffffffff166350d25bcd6040518163ffffffff1660e01b815260040160206040518083038186803b1580156102d457600080fd5b505afa1580156102e8573d6000803e3d6000fd5b505050506040513d601f19601f8201168201806040525081019061030c91906103d2565b826103179190610589565b610321919061051f565b91505090565b7f000000000000000000000000000000000000000000000000000000000000000081565b7f000000000000000000000000000000000000000000000000000000000000000081565b7f000000000000000000000000000000000000000000000000000000000000000081565b6000815190506103a281610787565b92915050565b6000815190506103b78161079e565b92915050565b6000815190506103cc816107b5565b92915050565b6000602082840312156103e457600080fd5b60006103f284828501610393565b91505092915050565b60006020828403121561040d57600080fd5b600061041b848285016103a8565b91505092915050565b60006020828403121561043657600080fd5b6000610444848285016103bd565b91505092915050565b610456816106e1565b82525050565b61046581610705565b82525050565b610474816106a0565b82525050565b610483816106ca565b82525050565b610492816106d4565b82525050565b60006020820190506104ad600083018461044d565b92915050565b60006020820190506104c8600083018461045c565b92915050565b60006020820190506104e3600083018461046b565b92915050565b60006020820190506104fe600083018461047a565b92915050565b60006020820190506105196000830184610489565b92915050565b600061052a826106a0565b9150610535836106a0565b92508261054557610544610758565b5b600160000383147f80000000000000000000000000000000000000000000000000000000000000008314161561057e5761057d610729565b5b828205905092915050565b6000610594826106a0565b915061059f836106a0565b9250827f7fffffffffffffffffffffffffffffffffffffffffffffffffffffffffffffff04821160008413600084131616156105de576105dd610729565b5b817f8000000000000000000000000000000000000000000000000000000000000000058312600084126000841316161561061b5761061a610729565b5b827f8000000000000000000000000000000000000000000000000000000000000000058212600084136000841216161561065857610657610729565b5b827f7fffffffffffffffffffffffffffffffffffffffffffffffffffffffffffffff058212600084126000841216161561069557610694610729565b5b828202905092915050565b6000819050919050565b600073ffffffffffffffffffffffffffffffffffffffff82169050919050565b6000819050919050565b600060ff82169050919050565b60006106ec826106f3565b9050919050565b60006106fe826106aa565b9050919050565b600061071082610717565b9050919050565b6000610722826106aa565b9050919050565b7f4e487b7100000000000000000000000000000000000000000000000000000000600052601160045260246000fd5b7f4e487b7100000000000000000000000000000000000000000000000000000000600052601260045260246000fd5b610790816106a0565b811461079b57600080fd5b50565b6107a7816106ca565b81146107b257600080fd5b50565b6107be816106d4565b81146107c957600080fd5b5056fea2646970667358221220ecfc60bf32b52d665047da57f3208aa01ed2942104096923c81b93794760158064736f6c63430008040033",
  "devdoc": {
    "kind": "dev",
    "methods": {},
    "title": "Price Aggreatofr for xToken of NFTX",
    "version": 1
  },
  "userdoc": {
    "kind": "user",
    "methods": {
      "nftxInventoryStaking()": {
        "notice": "address of NFTX inventory staking"
      },
      "nftxVaultID()": {
        "notice": "address of NFTX vaultID"
      },
      "oracle()": {
        "notice": "address of oracle contract"
      }
    },
    "version": 1
  },
  "storageLayout": {
    "storage": [],
    "types": null
  }
}