{
  "address": "0x03030c8eb100533f87e03f1D87cA8A7668F0C78D",
  "abi": [
    {
      "anonymous": false,
      "inputs": [
        {
          "indexed": false,
          "internalType": "uint8",
          "name": "version",
          "type": "uint8"
        }
      ],
      "name": "Initialized",
      "type": "event"
    },
    {
      "anonymous": false,
      "inputs": [
        {
          "indexed": true,
          "internalType": "address",
          "name": "from",
          "type": "address"
        },
        {
          "indexed": true,
          "internalType": "address",
          "name": "asset",
          "type": "address"
        },
        {
          "indexed": false,
          "internalType": "uint256",
          "name": "amount",
          "type": "uint256"
        }
      ],
      "name": "LogEmergencyWithdraw",
      "type": "event"
    },
    {
      "anonymous": false,
      "inputs": [
        {
          "indexed": true,
          "internalType": "address",
          "name": "previousOwner",
          "type": "address"
        },
        {
          "indexed": true,
          "internalType": "address",
          "name": "newOwner",
          "type": "address"
        }
      ],
      "name": "OwnershipTransferred",
      "type": "event"
    },
    {
      "anonymous": false,
      "inputs": [
        {
          "indexed": false,
          "internalType": "address",
          "name": "account",
          "type": "address"
        }
      ],
      "name": "Paused",
      "type": "event"
    },
    {
      "anonymous": false,
      "inputs": [
        {
          "indexed": false,
          "internalType": "address",
          "name": "account",
          "type": "address"
        }
      ],
      "name": "Unpaused",
      "type": "event"
    },
    {
      "inputs": [],
      "name": "auraRewardPool",
      "outputs": [
        {
          "internalType": "contract IAuraBaseRewardPool",
          "name": "",
          "type": "address"
        }
      ],
      "stateMutability": "view",
      "type": "function"
    },
    {
      "inputs": [],
      "name": "balancerLP",
      "outputs": [
        {
          "internalType": "contract IERC20Upgradeable",
          "name": "",
          "type": "address"
        }
      ],
      "stateMutability": "view",
      "type": "function"
    },
    {
      "inputs": [],
      "name": "compoundingVault",
      "outputs": [
        {
          "internalType": "contract IDropsCompoundingVault",
          "name": "",
          "type": "address"
        }
      ],
      "stateMutability": "view",
      "type": "function"
    },
    {
      "inputs": [],
      "name": "dropsAuraMarket",
      "outputs": [
        {
          "internalType": "contract IDropsAuraMarket",
          "name": "",
          "type": "address"
        }
      ],
      "stateMutability": "view",
      "type": "function"
    },
    {
      "inputs": [
        {
          "internalType": "address",
          "name": "asset",
          "type": "address"
        },
        {
          "internalType": "address",
          "name": "receiver",
          "type": "address"
        }
      ],
      "name": "emergencyWithdraw",
      "outputs": [],
      "stateMutability": "nonpayable",
      "type": "function"
    },
    {
      "inputs": [
        {
          "internalType": "contract IAuraBaseRewardPool",
          "name": "_auraRewardPool",
          "type": "address"
        },
        {
          "internalType": "contract IDropsCompoundingVault",
          "name": "_compoundingVault",
          "type": "address"
        },
        {
          "internalType": "contract IDropsAuraMarket",
          "name": "_dropsAuraMarket",
          "type": "address"
        }
      ],
      "name": "initialize",
      "outputs": [],
      "stateMutability": "payable",
      "type": "function"
    },
    {
      "inputs": [],
      "name": "owner",
      "outputs": [
        {
          "internalType": "address",
          "name": "",
          "type": "address"
        }
      ],
      "stateMutability": "view",
      "type": "function"
    },
    {
      "inputs": [],
      "name": "pause",
      "outputs": [],
      "stateMutability": "nonpayable",
      "type": "function"
    },
    {
      "inputs": [],
      "name": "paused",
      "outputs": [
        {
          "internalType": "bool",
          "name": "",
          "type": "bool"
        }
      ],
      "stateMutability": "view",
      "type": "function"
    },
    {
      "inputs": [
        {
          "internalType": "address",
          "name": "reciver",
          "type": "address"
        },
        {
          "internalType": "uint256",
          "name": "amount",
          "type": "uint256"
        },
        {
          "internalType": "uint256",
          "name": "withdrawType",
          "type": "uint256"
        }
      ],
      "name": "redeem",
      "outputs": [],
      "stateMutability": "nonpayable",
      "type": "function"
    },
    {
      "inputs": [],
      "name": "renounceOwnership",
      "outputs": [],
      "stateMutability": "nonpayable",
      "type": "function"
    },
    {
      "inputs": [
        {
          "internalType": "uint256",
          "name": "amount",
          "type": "uint256"
        }
      ],
      "name": "supplyToMarket",
      "outputs": [
        {
          "internalType": "uint256",
          "name": "shares",
          "type": "uint256"
        }
      ],
      "stateMutability": "nonpayable",
      "type": "function"
    },
    {
      "inputs": [
        {
          "internalType": "address",
          "name": "newOwner",
          "type": "address"
        }
      ],
      "name": "transferOwnership",
      "outputs": [],
      "stateMutability": "nonpayable",
      "type": "function"
    },
    {
      "inputs": [],
      "name": "unpause",
      "outputs": [],
      "stateMutability": "nonpayable",
      "type": "function"
    }
  ],
  "transactionHash": "0x3c40b4eb49f7a176b80be75c4ced4dfc4823a447964d1d7a5e7dc5c979d6342f",
  "args": [],
  "solcInputHash": "d41d140aa30b3e8ed213439de19e1c03",
  "bytecode": "0x608060405234801561001057600080fd5b506131e1806100206000396000f3fe6080604052600436106100dc5760003560e01c80638456cb591161007f578063a966797511610059578063a96679751461024f578063ad8930961461028c578063c0c53b8b146102b7578063f2fde38b146102d3576100dc565b80638456cb59146101e25780638da5cb5b146101f9578063a658e13414610224576100dc565b80635c975abb116100bb5780635c975abb1461014c5780636382d9ad14610177578063715018a6146101a0578063733cfbd4146101b7576100dc565b8062c36211146100e15780632b83cccd1461010c5780633f4ba83a14610135575b600080fd5b3480156100ed57600080fd5b506100f66102fc565b6040516101039190612780565b60405180910390f35b34801561011857600080fd5b50610133600480360381019061012e9190612146565b610322565b005b34801561014157600080fd5b5061014a6108a9565b005b34801561015857600080fd5b506101616108c3565b60405161016e9190612765565b60405180910390f35b34801561018357600080fd5b5061019e6004803603810190610199919061210a565b6108da565b005b3480156101ac57600080fd5b506101b5610aa9565b005b3480156101c357600080fd5b506101cc610abd565b6040516101d9919061279b565b60405180910390f35b3480156101ee57600080fd5b506101f7610ae3565b005b34801561020557600080fd5b5061020e610afd565b60405161021b91906126c8565b60405180910390f35b34801561023057600080fd5b50610239610b27565b60405161024691906127b6565b60405180910390f35b34801561025b57600080fd5b506102766004803603810190610271919061225f565b610b4d565b6040516102839190612a89565b60405180910390f35b34801561029857600080fd5b506102a16112b8565b6040516102ae91906127d1565b60405180910390f35b6102d160048036038101906102cc91906121be565b6112de565b005b3480156102df57600080fd5b506102fa60048036038101906102f591906120b8565b611718565b005b60c960009054906101000a900473ffffffffffffffffffffffffffffffffffffffff1681565b61032a61179c565b6103326117e6565b60cb60009054906101000a900473ffffffffffffffffffffffffffffffffffffffff1673ffffffffffffffffffffffffffffffffffffffff163373ffffffffffffffffffffffffffffffffffffffff16146103c2576040517f08c379a00000000000000000000000000000000000000000000000000000000081526004016103b990612989565b60405180910390fd5b60018114806103d15750600281145b610410576040517f08c379a000000000000000000000000000000000000000000000000000000000815260040161040790612969565b60405180910390fd5b8160ca60009054906101000a900473ffffffffffffffffffffffffffffffffffffffff1673ffffffffffffffffffffffffffffffffffffffff166370a08231306040518263ffffffff1660e01b815260040161046c91906126c8565b60206040518083038186803b15801561048457600080fd5b505afa158015610498573d6000803e3d6000fd5b505050506040513d601f19601f820116820180604052508101906104bc9190612288565b10156104fd576040517f08c379a00000000000000000000000000000000000000000000000000000000081526004016104f490612909565b60405180910390fd5b600060ca60009054906101000a900473ffffffffffffffffffffffffffffffffffffffff1673ffffffffffffffffffffffffffffffffffffffff16632e1a7d4d846040518263ffffffff1660e01b815260040161055a9190612a89565b602060405180830381600087803b15801561057457600080fd5b505af1158015610588573d6000803e3d6000fd5b505050506040513d601f19601f820116820180604052508101906105ac9190612288565b9050600081116105f1576040517f08c379a00000000000000000000000000000000000000000000000000000000081526004016105e890612889565b60405180910390fd5b8060cc60009054906101000a900473ffffffffffffffffffffffffffffffffffffffff1673ffffffffffffffffffffffffffffffffffffffff166370a08231306040518263ffffffff1660e01b815260040161064d91906126c8565b60206040518083038186803b15801561066557600080fd5b505afa158015610679573d6000803e3d6000fd5b505050506040513d601f19601f8201168201806040525081019061069d9190612288565b10156106de576040517f08c379a00000000000000000000000000000000000000000000000000000000081526004016106d5906129c9565b60405180910390fd5b600182141561073957610734848260cc60009054906101000a900473ffffffffffffffffffffffffffffffffffffffff1673ffffffffffffffffffffffffffffffffffffffff166118369092919063ffffffff16565b61089b565b60cc60009054906101000a900473ffffffffffffffffffffffffffffffffffffffff1673ffffffffffffffffffffffffffffffffffffffff1663095ea7b360c960009054906101000a900473ffffffffffffffffffffffffffffffffffffffff16836040518363ffffffff1660e01b81526004016107b892919061270c565b602060405180830381600087803b1580156107d257600080fd5b505af11580156107e6573d6000803e3d6000fd5b505050506040513d601f19601f8201168201806040525081019061080a9190612195565b5060c960009054906101000a900473ffffffffffffffffffffffffffffffffffffffff1673ffffffffffffffffffffffffffffffffffffffff16632ee4090885836040518363ffffffff1660e01b815260040161086892919061270c565b600060405180830381600087803b15801561088257600080fd5b505af1158015610896573d6000803e3d6000fd5b505050505b506108a46118bc565b505050565b6108b16118c5565b6108b961190e565b6108c161198c565b565b6000609760009054906101000a900460ff16905090565b6108e261190e565b60008073ffffffffffffffffffffffffffffffffffffffff168373ffffffffffffffffffffffffffffffffffffffff16141561097e573073ffffffffffffffffffffffffffffffffffffffff163190508173ffffffffffffffffffffffffffffffffffffffff166108fc829081150290604051600060405180830381858888f19350505050158015610978573d6000803e3d6000fd5b50610a35565b8273ffffffffffffffffffffffffffffffffffffffff166370a08231306040518263ffffffff1660e01b81526004016109b791906126c8565b60206040518083038186803b1580156109cf57600080fd5b505afa1580156109e3573d6000803e3d6000fd5b505050506040513d601f19601f82011682018060405250810190610a079190612288565b9050610a3482828573ffffffffffffffffffffffffffffffffffffffff166118369092919063ffffffff16565b5b6000811115610aa4578273ffffffffffffffffffffffffffffffffffffffff168273ffffffffffffffffffffffffffffffffffffffff167f46250b0a744e514bfdb95561a293ae5220bba28e3ef598ba6772e909fefd7cc783604051610a9b9190612a89565b60405180910390a35b505050565b610ab161190e565b610abb60006119ef565b565b60cb60009054906101000a900473ffffffffffffffffffffffffffffffffffffffff1681565b610aeb61179c565b610af361190e565b610afb611ab5565b565b6000606560009054906101000a900473ffffffffffffffffffffffffffffffffffffffff16905090565b60ca60009054906101000a900473ffffffffffffffffffffffffffffffffffffffff1681565b6000610b5761179c565b610b5f6117e6565b60003390508260c960009054906101000a900473ffffffffffffffffffffffffffffffffffffffff1673ffffffffffffffffffffffffffffffffffffffff1663dd62ed3e83306040518363ffffffff1660e01b8152600401610bc29291906126e3565b60206040518083038186803b158015610bda57600080fd5b505afa158015610bee573d6000803e3d6000fd5b505050506040513d601f19601f82011682018060405250810190610c129190612288565b1015610c53576040517f08c379a0000000000000000000000000000000000000000000000000000000008152600401610c4a90612949565b60405180910390fd5b60c960009054906101000a900473ffffffffffffffffffffffffffffffffffffffff1673ffffffffffffffffffffffffffffffffffffffff1663b460af948430846040518463ffffffff1660e01b8152600401610cb293929190612acd565b602060405180830381600087803b158015610ccc57600080fd5b505af1158015610ce0573d6000803e3d6000fd5b505050506040513d601f19601f82011682018060405250810190610d049190612288565b508260cc60009054906101000a900473ffffffffffffffffffffffffffffffffffffffff1673ffffffffffffffffffffffffffffffffffffffff166370a08231306040518263ffffffff1660e01b8152600401610d6191906126c8565b60206040518083038186803b158015610d7957600080fd5b505afa158015610d8d573d6000803e3d6000fd5b505050506040513d601f19601f82011682018060405250810190610db19190612288565b1015610df2576040517f08c379a0000000000000000000000000000000000000000000000000000000008152600401610de9906129a9565b60405180910390fd5b60cc60009054906101000a900473ffffffffffffffffffffffffffffffffffffffff1673ffffffffffffffffffffffffffffffffffffffff1663095ea7b360ca60009054906101000a900473ffffffffffffffffffffffffffffffffffffffff16856040518363ffffffff1660e01b8152600401610e7192919061270c565b602060405180830381600087803b158015610e8b57600080fd5b505af1158015610e9f573d6000803e3d6000fd5b505050506040513d601f19601f82011682018060405250810190610ec39190612195565b5060ca60009054906101000a900473ffffffffffffffffffffffffffffffffffffffff1673ffffffffffffffffffffffffffffffffffffffff1663b6b55f25846040518263ffffffff1660e01b8152600401610f1f9190612a89565b602060405180830381600087803b158015610f3957600080fd5b505af1158015610f4d573d6000803e3d6000fd5b505050506040513d601f19601f82011682018060405250810190610f719190612288565b9150600060cb60009054906101000a900473ffffffffffffffffffffffffffffffffffffffff1673ffffffffffffffffffffffffffffffffffffffff1663b723b34e84846040518363ffffffff1660e01b8152600401610fd2929190612aa4565b602060405180830381600087803b158015610fec57600080fd5b505af1158015611000573d6000803e3d6000fd5b505050506040513d601f19601f820116820180604052508101906110249190612288565b9050600081141561106a576040517f08c379a000000000000000000000000000000000000000000000000000000000815260040161106190612a29565b60405180910390fd5b600060cb60009054906101000a900473ffffffffffffffffffffffffffffffffffffffff1673ffffffffffffffffffffffffffffffffffffffff16635fe3b5676040518163ffffffff1660e01b815260040160206040518083038186803b1580156110d457600080fd5b505afa1580156110e8573d6000803e3d6000fd5b505050506040513d601f19601f8201168201806040525081019061110c919061220d565b90506000600167ffffffffffffffff811115611151577f4e487b7100000000000000000000000000000000000000000000000000000000600052604160045260246000fd5b60405190808252806020026020018201604052801561117f5781602001602082028036833780820191505090505b50905060cb60009054906101000a900473ffffffffffffffffffffffffffffffffffffffff16816000815181106111df577f4e487b7100000000000000000000000000000000000000000000000000000000600052603260045260246000fd5b602002602001019073ffffffffffffffffffffffffffffffffffffffff16908173ffffffffffffffffffffffffffffffffffffffff16815250508173ffffffffffffffffffffffffffffffffffffffff166333e4212982866040518363ffffffff1660e01b8152600401611254929190612735565b602060405180830381600087803b15801561126e57600080fd5b505af1158015611282573d6000803e3d6000fd5b505050506040513d601f19601f820116820180604052508101906112a69190612288565b50505050506112b36118bc565b919050565b60cc60009054906101000a900473ffffffffffffffffffffffffffffffffffffffff1681565b60008060019054906101000a900460ff1615905080801561130f5750600160008054906101000a900460ff1660ff16105b8061133c575061131e30611b18565b15801561133b5750600160008054906101000a900460ff1660ff16145b5b61137b576040517f08c379a0000000000000000000000000000000000000000000000000000000008152600401611372906128e9565b60405180910390fd5b60016000806101000a81548160ff021916908360ff16021790555080156113b8576001600060016101000a81548160ff0219169083151502179055505b6113c0611b3b565b6113c8611b94565b6113d0611bed565b8273ffffffffffffffffffffffffffffffffffffffff16631f1fcd516040518163ffffffff1660e01b815260040160206040518083038186803b15801561141657600080fd5b505afa15801561142a573d6000803e3d6000fd5b505050506040513d601f19601f8201168201806040525081019061144e9190612236565b73ffffffffffffffffffffffffffffffffffffffff168473ffffffffffffffffffffffffffffffffffffffff166338d52e0f6040518163ffffffff1660e01b815260040160206040518083038186803b1580156114aa57600080fd5b505afa1580156114be573d6000803e3d6000fd5b505050506040513d601f19601f820116820180604052508101906114e291906120e1565b73ffffffffffffffffffffffffffffffffffffffff1614611538576040517f08c379a000000000000000000000000000000000000000000000000000000000815260040161152f906128c9565b60405180910390fd5b8260ca60006101000a81548173ffffffffffffffffffffffffffffffffffffffff021916908373ffffffffffffffffffffffffffffffffffffffff1602179055508360c960006101000a81548173ffffffffffffffffffffffffffffffffffffffff021916908373ffffffffffffffffffffffffffffffffffffffff1602179055508160cb60006101000a81548173ffffffffffffffffffffffffffffffffffffffff021916908373ffffffffffffffffffffffffffffffffffffffff1602179055508373ffffffffffffffffffffffffffffffffffffffff166338d52e0f6040518163ffffffff1660e01b815260040160206040518083038186803b15801561164157600080fd5b505afa158015611655573d6000803e3d6000fd5b505050506040513d601f19601f8201168201806040525081019061167991906120e1565b60cc60006101000a81548173ffffffffffffffffffffffffffffffffffffffff021916908373ffffffffffffffffffffffffffffffffffffffff16021790555080156117125760008060016101000a81548160ff0219169083151502179055507f7f26b83ff96e1f2b6a682f133852f6798a09c465da95921460cefb3847402498600160405161170991906127ec565b60405180910390a15b50505050565b61172061190e565b600073ffffffffffffffffffffffffffffffffffffffff168173ffffffffffffffffffffffffffffffffffffffff161415611790576040517f08c379a000000000000000000000000000000000000000000000000000000000815260040161178790612849565b60405180910390fd5b611799816119ef565b50565b6117a46108c3565b156117e4576040517f08c379a00000000000000000000000000000000000000000000000000000000081526004016117db906128a9565b60405180910390fd5b565b6002600154141561182c576040517f08c379a000000000000000000000000000000000000000000000000000000000815260040161182390612a69565b60405180910390fd5b6002600181905550565b6118b78363a9059cbb60e01b848460405160240161185592919061270c565b604051602081830303815290604052907bffffffffffffffffffffffffffffffffffffffffffffffffffffffff19166020820180517bffffffffffffffffffffffffffffffffffffffffffffffffffffffff8381831617835250505050611c46565b505050565b60018081905550565b6118cd6108c3565b61190c576040517f08c379a000000000000000000000000000000000000000000000000000000000815260040161190390612829565b60405180910390fd5b565b611916611d0e565b73ffffffffffffffffffffffffffffffffffffffff16611934610afd565b73ffffffffffffffffffffffffffffffffffffffff161461198a576040517f08c379a000000000000000000000000000000000000000000000000000000000815260040161198190612929565b60405180910390fd5b565b6119946118c5565b6000609760006101000a81548160ff0219169083151502179055507f5db9ee0a495bf2e6ff9c91a7834c1ba4fdd244a5e8aa4e537bd38aeae4b073aa6119d8611d0e565b6040516119e591906126c8565b60405180910390a1565b6000606560009054906101000a900473ffffffffffffffffffffffffffffffffffffffff16905081606560006101000a81548173ffffffffffffffffffffffffffffffffffffffff021916908373ffffffffffffffffffffffffffffffffffffffff1602179055508173ffffffffffffffffffffffffffffffffffffffff168173ffffffffffffffffffffffffffffffffffffffff167f8be0079c531659141344cd1fd0a4f28419497f9722a3daafe3b4186f6b6457e060405160405180910390a35050565b611abd61179c565b6001609760006101000a81548160ff0219169083151502179055507f62e78cea01bee320cd4e420270b5ea74000d11b0c9f74754ebdbfc544b05a258611b01611d0e565b604051611b0e91906126c8565b60405180910390a1565b6000808273ffffffffffffffffffffffffffffffffffffffff163b119050919050565b600060019054906101000a900460ff16611b8a576040517f08c379a0000000000000000000000000000000000000000000000000000000008152600401611b8190612a09565b60405180910390fd5b611b92611d16565b565b600060019054906101000a900460ff16611be3576040517f08c379a0000000000000000000000000000000000000000000000000000000008152600401611bda90612a09565b60405180910390fd5b611beb611d77565b565b600060019054906101000a900460ff16611c3c576040517f08c379a0000000000000000000000000000000000000000000000000000000008152600401611c3390612a09565b60405180910390fd5b611c44611dcf565b565b6000611ca8826040518060400160405280602081526020017f5361666545524332303a206c6f772d6c6576656c2063616c6c206661696c65648152508573ffffffffffffffffffffffffffffffffffffffff16611e3b9092919063ffffffff16565b9050600081511480611cca575080806020019051810190611cc99190612195565b5b611d09576040517f08c379a0000000000000000000000000000000000000000000000000000000008152600401611d0090612a49565b60405180910390fd5b505050565b600033905090565b600060019054906101000a900460ff16611d65576040517f08c379a0000000000000000000000000000000000000000000000000000000008152600401611d5c90612a09565b60405180910390fd5b611d75611d70611d0e565b6119ef565b565b600060019054906101000a900460ff16611dc6576040517f08c379a0000000000000000000000000000000000000000000000000000000008152600401611dbd90612a09565b60405180910390fd5b60018081905550565b600060019054906101000a900460ff16611e1e576040517f08c379a0000000000000000000000000000000000000000000000000000000008152600401611e1590612a09565b60405180910390fd5b6000609760006101000a81548160ff021916908315150217905550565b6060611e4a8484600085611e53565b90509392505050565b606082471015611e98576040517f08c379a0000000000000000000000000000000000000000000000000000000008152600401611e8f90612869565b60405180910390fd5b6000808673ffffffffffffffffffffffffffffffffffffffff168587604051611ec191906126b1565b60006040518083038185875af1925050503d8060008114611efe576040519150601f19603f3d011682016040523d82523d6000602084013e611f03565b606091505b5091509150611f1487838387611f20565b92505050949350505050565b60608315611f8357600083511415611f7b57611f3b85611b18565b611f7a576040517f08c379a0000000000000000000000000000000000000000000000000000000008152600401611f71906129e9565b60405180910390fd5b5b829050611f8e565b611f8d8383611f96565b5b949350505050565b600082511115611fa95781518083602001fd5b806040517f08c379a0000000000000000000000000000000000000000000000000000000008152600401611fdd9190612807565b60405180910390fd5b600081359050611ff5816130f3565b92915050565b60008151905061200a816130f3565b92915050565b60008151905061201f8161310a565b92915050565b60008135905061203481613121565b92915050565b60008151905061204981613138565b92915050565b60008135905061205e8161314f565b92915050565b60008135905061207381613166565b92915050565b6000815190506120888161317d565b92915050565b60008135905061209d81613194565b92915050565b6000815190506120b281613194565b92915050565b6000602082840312156120ca57600080fd5b60006120d884828501611fe6565b91505092915050565b6000602082840312156120f357600080fd5b600061210184828501611ffb565b91505092915050565b6000806040838503121561211d57600080fd5b600061212b85828601611fe6565b925050602061213c85828601611fe6565b9150509250929050565b60008060006060848603121561215b57600080fd5b600061216986828701611fe6565b935050602061217a8682870161208e565b925050604061218b8682870161208e565b9150509250925092565b6000602082840312156121a757600080fd5b60006121b584828501612010565b91505092915050565b6000806000606084860312156121d357600080fd5b60006121e186828701612025565b93505060206121f286828701612064565b92505060406122038682870161204f565b9150509250925092565b60006020828403121561221f57600080fd5b600061222d8482850161203a565b91505092915050565b60006020828403121561224857600080fd5b600061225684828501612079565b91505092915050565b60006020828403121561227157600080fd5b600061227f8482850161208e565b91505092915050565b60006020828403121561229a57600080fd5b60006122a8848285016120a3565b91505092915050565b60006122bd83836122c9565b60208301905092915050565b6122d281612b6f565b82525050565b6122e181612b6f565b82525050565b60006122f282612b14565b6122fc8185612b42565b935061230783612b04565b8060005b8381101561233857815161231f88826122b1565b975061232a83612b35565b92505060018101905061230b565b5085935050505092915050565b61234e81612b81565b82525050565b600061235f82612b1f565b6123698185612b53565b9350612379818560208601612cc0565b80840191505092915050565b61238e81612c1e565b82525050565b61239d81612c42565b82525050565b6123ac81612c66565b82525050565b6123bb81612c8a565b82525050565b6123ca81612cae565b82525050565b60006123db82612b2a565b6123e58185612b5e565b93506123f5818560208601612cc0565b6123fe81612cf3565b840191505092915050565b6000612416601483612b5e565b915061242182612d04565b602082019050919050565b6000612439602683612b5e565b915061244482612d2d565b604082019050919050565b600061245c602683612b5e565b915061246782612d7c565b604082019050919050565b600061247f601083612b5e565b915061248a82612dcb565b602082019050919050565b60006124a2601083612b5e565b91506124ad82612df4565b602082019050919050565b60006124c5603283612b5e565b91506124d082612e1d565b604082019050919050565b60006124e8602e83612b5e565b91506124f382612e6c565b604082019050919050565b600061250b600c83612b5e565b915061251682612ebb565b602082019050919050565b600061252e602083612b5e565b915061253982612ee4565b602082019050919050565b6000612551600a83612b5e565b915061255c82612f0d565b602082019050919050565b6000612574600d83612b5e565b915061257f82612f36565b602082019050919050565b6000612597600783612b5e565b91506125a282612f5f565b602082019050919050565b60006125ba600783612b5e565b91506125c582612f88565b602082019050919050565b60006125dd600a83612b5e565b91506125e882612fb1565b602082019050919050565b6000612600601d83612b5e565b915061260b82612fda565b602082019050919050565b6000612623602b83612b5e565b915061262e82613003565b604082019050919050565b6000612646600583612b5e565b915061265182613052565b602082019050919050565b6000612669602a83612b5e565b91506126748261307b565b604082019050919050565b600061268c601f83612b5e565b9150612697826130ca565b602082019050919050565b6126ab81612c07565b82525050565b60006126bd8284612354565b915081905092915050565b60006020820190506126dd60008301846122d8565b92915050565b60006040820190506126f860008301856122d8565b61270560208301846122d8565b9392505050565b600060408201905061272160008301856122d8565b61272e60208301846126a2565b9392505050565b6000604082019050818103600083015261274f81856122e7565b905061275e60208301846122d8565b9392505050565b600060208201905061277a6000830184612345565b92915050565b60006020820190506127956000830184612385565b92915050565b60006020820190506127b06000830184612394565b92915050565b60006020820190506127cb60008301846123a3565b92915050565b60006020820190506127e660008301846123b2565b92915050565b600060208201905061280160008301846123c1565b92915050565b6000602082019050818103600083015261282181846123d0565b905092915050565b6000602082019050818103600083015261284281612409565b9050919050565b600060208201905081810360008301526128628161242c565b9050919050565b600060208201905081810360008301526128828161244f565b9050919050565b600060208201905081810360008301526128a281612472565b9050919050565b600060208201905081810360008301526128c281612495565b9050919050565b600060208201905081810360008301526128e2816124b8565b9050919050565b60006020820190508181036000830152612902816124db565b9050919050565b60006020820190508181036000830152612922816124fe565b9050919050565b6000602082019050818103600083015261294281612521565b9050919050565b6000602082019050818103600083015261296281612544565b9050919050565b6000602082019050818103600083015261298281612567565b9050919050565b600060208201905081810360008301526129a28161258a565b9050919050565b600060208201905081810360008301526129c2816125ad565b9050919050565b600060208201905081810360008301526129e2816125d0565b9050919050565b60006020820190508181036000830152612a02816125f3565b9050919050565b60006020820190508181036000830152612a2281612616565b9050919050565b60006020820190508181036000830152612a4281612639565b9050919050565b60006020820190508181036000830152612a628161265c565b9050919050565b60006020820190508181036000830152612a828161267f565b9050919050565b6000602082019050612a9e60008301846126a2565b92915050565b6000604082019050612ab960008301856126a2565b612ac660208301846122d8565b9392505050565b6000606082019050612ae260008301866126a2565b612aef60208301856122d8565b612afc60408301846122d8565b949350505050565b6000819050602082019050919050565b600081519050919050565b600081519050919050565b600081519050919050565b6000602082019050919050565b600082825260208201905092915050565b600081905092915050565b600082825260208201905092915050565b6000612b7a82612be7565b9050919050565b60008115159050919050565b6000612b9882612b6f565b9050919050565b6000612baa82612b6f565b9050919050565b6000612bbc82612b6f565b9050919050565b6000612bce82612b6f565b9050919050565b6000612be082612b6f565b9050919050565b600073ffffffffffffffffffffffffffffffffffffffff82169050919050565b6000819050919050565b600060ff82169050919050565b6000612c2982612c30565b9050919050565b6000612c3b82612be7565b9050919050565b6000612c4d82612c54565b9050919050565b6000612c5f82612be7565b9050919050565b6000612c7182612c78565b9050919050565b6000612c8382612be7565b9050919050565b6000612c9582612c9c565b9050919050565b6000612ca782612be7565b9050919050565b6000612cb982612c11565b9050919050565b60005b83811015612cde578082015181840152602081019050612cc3565b83811115612ced576000848401525b50505050565b6000601f19601f8301169050919050565b7f5061757361626c653a206e6f7420706175736564000000000000000000000000600082015250565b7f4f776e61626c653a206e6577206f776e657220697320746865207a65726f206160008201527f6464726573730000000000000000000000000000000000000000000000000000602082015250565b7f416464726573733a20696e73756666696369656e742062616c616e636520666f60008201527f722063616c6c0000000000000000000000000000000000000000000000000000602082015250565b7f21776974686472617742616c616e636500000000000000000000000000000000600082015250565b7f5061757361626c653a2070617573656400000000000000000000000000000000600082015250565b7f6175726120617373657420617265206e6f742073616d65207769746820636f6d60008201527f706f756e64696e675661756c742077616e740000000000000000000000000000602082015250565b7f496e697469616c697a61626c653a20636f6e747261637420697320616c72656160008201527f647920696e697469616c697a6564000000000000000000000000000000000000602082015250565b7f217661756c74416d6f756e740000000000000000000000000000000000000000600082015250565b7f4f776e61626c653a2063616c6c6572206973206e6f7420746865206f776e6572600082015250565b7f21616c6c6f77616e636500000000000000000000000000000000000000000000600082015250565b7f2177697468647261775479706500000000000000000000000000000000000000600082015250565b7f216d61726b657400000000000000000000000000000000000000000000000000600082015250565b7f2161737365747300000000000000000000000000000000000000000000000000600082015250565b7f216c7042616c616e636500000000000000000000000000000000000000000000600082015250565b7f416464726573733a2063616c6c20746f206e6f6e2d636f6e7472616374000000600082015250565b7f496e697469616c697a61626c653a20636f6e7472616374206973206e6f74206960008201527f6e697469616c697a696e67000000000000000000000000000000000000000000602082015250565b7f216d696e74000000000000000000000000000000000000000000000000000000600082015250565b7f5361666545524332303a204552433230206f7065726174696f6e20646964206e60008201527f6f74207375636365656400000000000000000000000000000000000000000000602082015250565b7f5265656e7472616e637947756172643a207265656e7472616e742063616c6c00600082015250565b6130fc81612b6f565b811461310757600080fd5b50565b61311381612b81565b811461311e57600080fd5b50565b61312a81612b8d565b811461313557600080fd5b50565b61314181612b9f565b811461314c57600080fd5b50565b61315881612bb1565b811461316357600080fd5b50565b61316f81612bc3565b811461317a57600080fd5b50565b61318681612bd5565b811461319157600080fd5b50565b61319d81612c07565b81146131a857600080fd5b5056fea2646970667358221220a3e4f282050ae6558c0d82477fdb2e9ca039ebb55fe9bf70878208758d7627d564736f6c63430008040033",
  "devdoc": {
    "kind": "dev",
    "methods": {
      "owner()": {
        "details": "Returns the address of the current owner."
      },
      "paused()": {
        "details": "Returns true if the contract is paused, and false otherwise."
      },
      "redeem(address,uint256,uint256)": {
        "params": {
          "withdrawType": "1 for withdraw balancer LP, 2 for restake"
        }
      },
      "renounceOwnership()": {
        "details": "Leaves the contract without owner. It will not be possible to call `onlyOwner` functions. Can only be called by the current owner. NOTE: Renouncing ownership will leave the contract without an owner, thereby disabling any functionality that is only available to the owner."
      },
      "supplyToMarket(uint256)": {
        "details": "caller should approve this contract before calling.      also enables supplied assets as collateral in the market",
        "params": {
          "amount": "of Aura pool tokens to withdraw"
        }
      },
      "transferOwnership(address)": {
        "details": "Transfers ownership of the contract to a new account (`newOwner`). Can only be called by the current owner."
      }
    },
    "title": "AuraLPMigration: get balanceLP from Aura and supply",
    "version": 1
  },
  "userdoc": {
    "events": {
      "LogEmergencyWithdraw(address,address,uint256)": {
        "notice": "emitted when withdraw happens"
      }
    },
    "kind": "user",
    "methods": {
      "auraRewardPool()": {
        "notice": "aura base reward pool"
      },
      "balancerLP()": {
        "notice": "balancer LP token"
      },
      "compoundingVault()": {
        "notice": "auto compounding vault"
      },
      "dropsAuraMarket()": {
        "notice": "drops CToken for aura market"
      },
      "redeem(address,uint256,uint256)": {
        "notice": "market will call this function to withdraw balancer LP or restake to Aura the market should send vault erc20 tokens before call this function"
      },
      "supplyToMarket(uint256)": {
        "notice": "withdraw LP tokens from Aura and supply to market"
      }
    },
    "version": 1
  },
  "storageLayout": {
    "storage": [
      {
        "astId": 232,
        "contract": "contracts/aura-lp/AuraLPMigration.sol:AuraLPMigration",
        "label": "_initialized",
        "offset": 0,
        "slot": "0",
        "type": "t_uint8"
      },
      {
        "astId": 235,
        "contract": "contracts/aura-lp/AuraLPMigration.sol:AuraLPMigration",
        "label": "_initializing",
        "offset": 1,
        "slot": "0",
        "type": "t_bool"
      },
      {
        "astId": 535,
        "contract": "contracts/aura-lp/AuraLPMigration.sol:AuraLPMigration",
        "label": "_status",
        "offset": 0,
        "slot": "1",
        "type": "t_uint256"
      },
      {
        "astId": 604,
        "contract": "contracts/aura-lp/AuraLPMigration.sol:AuraLPMigration",
        "label": "__gap",
        "offset": 0,
        "slot": "2",
        "type": "t_array(t_uint256)49_storage"
      },
      {
        "astId": 1466,
        "contract": "contracts/aura-lp/AuraLPMigration.sol:AuraLPMigration",
        "label": "__gap",
        "offset": 0,
        "slot": "51",
        "type": "t_array(t_uint256)50_storage"
      },
      {
        "astId": 104,
        "contract": "contracts/aura-lp/AuraLPMigration.sol:AuraLPMigration",
        "label": "_owner",
        "offset": 0,
        "slot": "101",
        "type": "t_address"
      },
      {
        "astId": 224,
        "contract": "contracts/aura-lp/AuraLPMigration.sol:AuraLPMigration",
        "label": "__gap",
        "offset": 0,
        "slot": "102",
        "type": "t_array(t_uint256)49_storage"
      },
      {
        "astId": 415,
        "contract": "contracts/aura-lp/AuraLPMigration.sol:AuraLPMigration",
        "label": "_paused",
        "offset": 0,
        "slot": "151",
        "type": "t_bool"
      },
      {
        "astId": 520,
        "contract": "contracts/aura-lp/AuraLPMigration.sol:AuraLPMigration",
        "label": "__gap",
        "offset": 0,
        "slot": "152",
        "type": "t_array(t_uint256)49_storage"
      },
      {
        "astId": 3342,
        "contract": "contracts/aura-lp/AuraLPMigration.sol:AuraLPMigration",
        "label": "auraRewardPool",
        "offset": 0,
        "slot": "201",
        "type": "t_contract(IAuraBaseRewardPool)3783"
      },
      {
        "astId": 3346,
        "contract": "contracts/aura-lp/AuraLPMigration.sol:AuraLPMigration",
        "label": "compoundingVault",
        "offset": 0,
        "slot": "202",
        "type": "t_contract(IDropsCompoundingVault)3899"
      },
      {
        "astId": 3350,
        "contract": "contracts/aura-lp/AuraLPMigration.sol:AuraLPMigration",
        "label": "dropsAuraMarket",
        "offset": 0,
        "slot": "203",
        "type": "t_contract(IDropsAuraMarket)3870"
      },
      {
        "astId": 3354,
        "contract": "contracts/aura-lp/AuraLPMigration.sol:AuraLPMigration",
        "label": "balancerLP",
        "offset": 0,
        "slot": "204",
        "type": "t_contract(IERC20Upgradeable)683"
      }
    ],
    "types": {
      "t_address": {
        "encoding": "inplace",
        "label": "address",
        "numberOfBytes": "20"
      },
      "t_array(t_uint256)49_storage": {
        "base": "t_uint256",
        "encoding": "inplace",
        "label": "uint256[49]",
        "numberOfBytes": "1568"
      },
      "t_array(t_uint256)50_storage": {
        "base": "t_uint256",
        "encoding": "inplace",
        "label": "uint256[50]",
        "numberOfBytes": "1600"
      },
      "t_bool": {
        "encoding": "inplace",
        "label": "bool",
        "numberOfBytes": "1"
      },
      "t_contract(IAuraBaseRewardPool)3783": {
        "encoding": "inplace",
        "label": "contract IAuraBaseRewardPool",
        "numberOfBytes": "20"
      },
      "t_contract(IDropsAuraMarket)3870": {
        "encoding": "inplace",
        "label": "contract IDropsAuraMarket",
        "numberOfBytes": "20"
      },
      "t_contract(IDropsCompoundingVault)3899": {
        "encoding": "inplace",
        "label": "contract IDropsCompoundingVault",
        "numberOfBytes": "20"
      },
      "t_contract(IERC20Upgradeable)683": {
        "encoding": "inplace",
        "label": "contract IERC20Upgradeable",
        "numberOfBytes": "20"
      },
      "t_uint256": {
        "encoding": "inplace",
        "label": "uint256",
        "numberOfBytes": "32"
      },
      "t_uint8": {
        "encoding": "inplace",
        "label": "uint8",
        "numberOfBytes": "1"
      }
    }
  }
}