{
  "address": "0xD33dEC0c452614F06D10b6d4e0CF3b4e66c77A0c",
  "abi": [
    {
      "anonymous": false,
      "inputs": [
        {
          "indexed": false,
          "internalType": "uint8",
          "name": "version",
          "type": "uint8"
        }
      ],
      "name": "Initialized",
      "type": "event"
    },
    {
      "anonymous": false,
      "inputs": [
        {
          "indexed": true,
          "internalType": "address",
          "name": "from",
          "type": "address"
        },
        {
          "indexed": true,
          "internalType": "address",
          "name": "asset",
          "type": "address"
        },
        {
          "indexed": false,
          "internalType": "uint256",
          "name": "amount",
          "type": "uint256"
        }
      ],
      "name": "LogEmergencyWithdraw",
      "type": "event"
    },
    {
      "anonymous": false,
      "inputs": [
        {
          "indexed": true,
          "internalType": "address",
          "name": "previousOwner",
          "type": "address"
        },
        {
          "indexed": true,
          "internalType": "address",
          "name": "newOwner",
          "type": "address"
        }
      ],
      "name": "OwnershipTransferred",
      "type": "event"
    },
    {
      "anonymous": false,
      "inputs": [
        {
          "indexed": false,
          "internalType": "address",
          "name": "account",
          "type": "address"
        }
      ],
      "name": "Paused",
      "type": "event"
    },
    {
      "anonymous": false,
      "inputs": [
        {
          "indexed": false,
          "internalType": "address",
          "name": "account",
          "type": "address"
        }
      ],
      "name": "Unpaused",
      "type": "event"
    },
    {
      "inputs": [],
      "name": "auraRewardPool",
      "outputs": [
        {
          "internalType": "contract IAuraBaseRewardPool",
          "name": "",
          "type": "address"
        }
      ],
      "stateMutability": "view",
      "type": "function"
    },
    {
      "inputs": [],
      "name": "balancerLP",
      "outputs": [
        {
          "internalType": "contract IERC20Upgradeable",
          "name": "",
          "type": "address"
        }
      ],
      "stateMutability": "view",
      "type": "function"
    },
    {
      "inputs": [],
      "name": "compoundingVault",
      "outputs": [
        {
          "internalType": "contract IDropsCompoundingVault",
          "name": "",
          "type": "address"
        }
      ],
      "stateMutability": "view",
      "type": "function"
    },
    {
      "inputs": [],
      "name": "dropsAuraMarket",
      "outputs": [
        {
          "internalType": "contract IDropsAuraMarket",
          "name": "",
          "type": "address"
        }
      ],
      "stateMutability": "view",
      "type": "function"
    },
    {
      "inputs": [
        {
          "internalType": "address",
          "name": "asset",
          "type": "address"
        },
        {
          "internalType": "address",
          "name": "receiver",
          "type": "address"
        }
      ],
      "name": "emergencyWithdraw",
      "outputs": [],
      "stateMutability": "nonpayable",
      "type": "function"
    },
    {
      "inputs": [
        {
          "internalType": "contract IAuraBaseRewardPool",
          "name": "_auraRewardPool",
          "type": "address"
        },
        {
          "internalType": "contract IDropsCompoundingVault",
          "name": "_compoundingVault",
          "type": "address"
        },
        {
          "internalType": "contract IDropsAuraMarket",
          "name": "_dropsAuraMarket",
          "type": "address"
        }
      ],
      "name": "initialize",
      "outputs": [],
      "stateMutability": "payable",
      "type": "function"
    },
    {
      "inputs": [],
      "name": "owner",
      "outputs": [
        {
          "internalType": "address",
          "name": "",
          "type": "address"
        }
      ],
      "stateMutability": "view",
      "type": "function"
    },
    {
      "inputs": [],
      "name": "pause",
      "outputs": [],
      "stateMutability": "nonpayable",
      "type": "function"
    },
    {
      "inputs": [],
      "name": "paused",
      "outputs": [
        {
          "internalType": "bool",
          "name": "",
          "type": "bool"
        }
      ],
      "stateMutability": "view",
      "type": "function"
    },
    {
      "inputs": [
        {
          "internalType": "address",
          "name": "reciver",
          "type": "address"
        },
        {
          "internalType": "uint256",
          "name": "amount",
          "type": "uint256"
        },
        {
          "internalType": "uint256",
          "name": "withdrawType",
          "type": "uint256"
        }
      ],
      "name": "redeem",
      "outputs": [],
      "stateMutability": "nonpayable",
      "type": "function"
    },
    {
      "inputs": [],
      "name": "renounceOwnership",
      "outputs": [],
      "stateMutability": "nonpayable",
      "type": "function"
    },
    {
      "inputs": [
        {
          "internalType": "contract IAuraBaseRewardPool",
          "name": "_auraRewardPool",
          "type": "address"
        },
        {
          "internalType": "contract IDropsCompoundingVault",
          "name": "_compoundingVault",
          "type": "address"
        },
        {
          "internalType": "contract IDropsAuraMarket",
          "name": "_dropsAuraMarket",
          "type": "address"
        }
      ],
      "name": "setAddresses",
      "outputs": [],
      "stateMutability": "nonpayable",
      "type": "function"
    },
    {
      "inputs": [
        {
          "internalType": "uint256",
          "name": "amount",
          "type": "uint256"
        }
      ],
      "name": "supplyToMarket",
      "outputs": [
        {
          "internalType": "uint256",
          "name": "shares",
          "type": "uint256"
        }
      ],
      "stateMutability": "nonpayable",
      "type": "function"
    },
    {
      "inputs": [
        {
          "internalType": "address",
          "name": "newOwner",
          "type": "address"
        }
      ],
      "name": "transferOwnership",
      "outputs": [],
      "stateMutability": "nonpayable",
      "type": "function"
    },
    {
      "inputs": [],
      "name": "unpause",
      "outputs": [],
      "stateMutability": "nonpayable",
      "type": "function"
    }
  ],
  "transactionHash": "0xcf9612d22dd1229eeb3e665b936a0c668a828cbe8a02e2e7329edf28afeee7af",
  "args": [],
  "solcInputHash": "7bd08cc86161fe2313ef952087b5fb5d",
  "bytecode": "0x608060405234801561001057600080fd5b50613366806100206000396000f3fe6080604052600436106100e75760003560e01c8063733cfbd41161008a578063a966797511610059578063a966797514610283578063ad893096146102c0578063c0c53b8b146102eb578063f2fde38b14610307576100e7565b8063733cfbd4146101eb5780638456cb59146102165780638da5cb5b1461022d578063a658e13414610258576100e7565b80633f4ba83a116100c65780633f4ba83a146101695780635c975abb146101805780636382d9ad146101ab578063715018a6146101d4576100e7565b8062c36211146100ec5780632b83cccd14610117578063363bf96414610140575b600080fd5b3480156100f857600080fd5b50610101610330565b60405161010e9190612896565b60405180910390f35b34801561012357600080fd5b5061013e60048036038101906101399190612239565b610356565b005b34801561014c57600080fd5b50610167600480360381019061016291906122b1565b61087a565b005b34801561017557600080fd5b5061017e610892565b005b34801561018c57600080fd5b506101956108ac565b6040516101a2919061287b565b60405180910390f35b3480156101b757600080fd5b506101d260048036038101906101cd91906121fd565b6108c3565b005b3480156101e057600080fd5b506101e9610a92565b005b3480156101f757600080fd5b50610200610aa6565b60405161020d91906128b1565b60405180910390f35b34801561022257600080fd5b5061022b610acc565b005b34801561023957600080fd5b50610242610ae6565b60405161024f91906127de565b60405180910390f35b34801561026457600080fd5b5061026d610b10565b60405161027a91906128cc565b60405180910390f35b34801561028f57600080fd5b506102aa60048036038101906102a59190612352565b610b36565b6040516102b79190612bbf565b60405180910390f35b3480156102cc57600080fd5b506102d561123d565b6040516102e291906128e7565b60405180910390f35b610305600480360381019061030091906122b1565b611263565b005b34801561031357600080fd5b5061032e600480360381019061032991906121ab565b6113bf565b005b60c960009054906101000a900473ffffffffffffffffffffffffffffffffffffffff1681565b61035e611443565b61036661148d565b60cb60009054906101000a900473ffffffffffffffffffffffffffffffffffffffff1673ffffffffffffffffffffffffffffffffffffffff163373ffffffffffffffffffffffffffffffffffffffff16146103f6576040517f08c379a00000000000000000000000000000000000000000000000000000000081526004016103ed90612a9f565b60405180910390fd5b60018114806104055750600281145b610444576040517f08c379a000000000000000000000000000000000000000000000000000000000815260040161043b90612a7f565b60405180910390fd5b8160ca60009054906101000a900473ffffffffffffffffffffffffffffffffffffffff1673ffffffffffffffffffffffffffffffffffffffff166370a08231306040518263ffffffff1660e01b81526004016104a091906127de565b60206040518083038186803b1580156104b857600080fd5b505afa1580156104cc573d6000803e3d6000fd5b505050506040513d601f19601f820116820180604052508101906104f0919061237b565b1015610531576040517f08c379a000000000000000000000000000000000000000000000000000000000815260040161052890612a1f565b60405180910390fd5b600060ca60009054906101000a900473ffffffffffffffffffffffffffffffffffffffff1673ffffffffffffffffffffffffffffffffffffffff16632e1a7d4d846040518263ffffffff1660e01b815260040161058e9190612bbf565b602060405180830381600087803b1580156105a857600080fd5b505af11580156105bc573d6000803e3d6000fd5b505050506040513d601f19601f820116820180604052508101906105e0919061237b565b905060008111610625576040517f08c379a000000000000000000000000000000000000000000000000000000000815260040161061c9061299f565b60405180910390fd5b8060cc60009054906101000a900473ffffffffffffffffffffffffffffffffffffffff1673ffffffffffffffffffffffffffffffffffffffff166370a08231306040518263ffffffff1660e01b815260040161068191906127de565b60206040518083038186803b15801561069957600080fd5b505afa1580156106ad573d6000803e3d6000fd5b505050506040513d601f19601f820116820180604052508101906106d1919061237b565b1015610712576040517f08c379a000000000000000000000000000000000000000000000000000000000815260040161070990612adf565b60405180910390fd5b600182141561076d57610768848260cc60009054906101000a900473ffffffffffffffffffffffffffffffffffffffff1673ffffffffffffffffffffffffffffffffffffffff166114dd9092919063ffffffff16565b61086c565b6107dc60c960009054906101000a900473ffffffffffffffffffffffffffffffffffffffff168260cc60009054906101000a900473ffffffffffffffffffffffffffffffffffffffff1673ffffffffffffffffffffffffffffffffffffffff166115639092919063ffffffff16565b60c960009054906101000a900473ffffffffffffffffffffffffffffffffffffffff1673ffffffffffffffffffffffffffffffffffffffff16632ee4090885836040518363ffffffff1660e01b8152600401610839929190612822565b600060405180830381600087803b15801561085357600080fd5b505af1158015610867573d6000803e3d6000fd5b505050505b506108756116c1565b505050565b6108826116ca565b61088d838383611748565b505050565b61089a611a36565b6108a26116ca565b6108aa611a7f565b565b6000609760009054906101000a900460ff16905090565b6108cb6116ca565b60008073ffffffffffffffffffffffffffffffffffffffff168373ffffffffffffffffffffffffffffffffffffffff161415610967573073ffffffffffffffffffffffffffffffffffffffff163190508173ffffffffffffffffffffffffffffffffffffffff166108fc829081150290604051600060405180830381858888f19350505050158015610961573d6000803e3d6000fd5b50610a1e565b8273ffffffffffffffffffffffffffffffffffffffff166370a08231306040518263ffffffff1660e01b81526004016109a091906127de565b60206040518083038186803b1580156109b857600080fd5b505afa1580156109cc573d6000803e3d6000fd5b505050506040513d601f19601f820116820180604052508101906109f0919061237b565b9050610a1d82828573ffffffffffffffffffffffffffffffffffffffff166114dd9092919063ffffffff16565b5b6000811115610a8d578273ffffffffffffffffffffffffffffffffffffffff168273ffffffffffffffffffffffffffffffffffffffff167f46250b0a744e514bfdb95561a293ae5220bba28e3ef598ba6772e909fefd7cc783604051610a849190612bbf565b60405180910390a35b505050565b610a9a6116ca565b610aa46000611ae2565b565b60cb60009054906101000a900473ffffffffffffffffffffffffffffffffffffffff1681565b610ad4611443565b610adc6116ca565b610ae4611ba8565b565b6000606560009054906101000a900473ffffffffffffffffffffffffffffffffffffffff16905090565b60ca60009054906101000a900473ffffffffffffffffffffffffffffffffffffffff1681565b6000610b40611443565b610b4861148d565b60003390508260c960009054906101000a900473ffffffffffffffffffffffffffffffffffffffff1673ffffffffffffffffffffffffffffffffffffffff1663dd62ed3e83306040518363ffffffff1660e01b8152600401610bab9291906127f9565b60206040518083038186803b158015610bc357600080fd5b505afa158015610bd7573d6000803e3d6000fd5b505050506040513d601f19601f82011682018060405250810190610bfb919061237b565b1015610c3c576040517f08c379a0000000000000000000000000000000000000000000000000000000008152600401610c3390612a5f565b60405180910390fd5b60c960009054906101000a900473ffffffffffffffffffffffffffffffffffffffff1673ffffffffffffffffffffffffffffffffffffffff1663b460af948430846040518463ffffffff1660e01b8152600401610c9b93929190612c03565b602060405180830381600087803b158015610cb557600080fd5b505af1158015610cc9573d6000803e3d6000fd5b505050506040513d601f19601f82011682018060405250810190610ced919061237b565b508260cc60009054906101000a900473ffffffffffffffffffffffffffffffffffffffff1673ffffffffffffffffffffffffffffffffffffffff166370a08231306040518263ffffffff1660e01b8152600401610d4a91906127de565b60206040518083038186803b158015610d6257600080fd5b505afa158015610d76573d6000803e3d6000fd5b505050506040513d601f19601f82011682018060405250810190610d9a919061237b565b1015610ddb576040517f08c379a0000000000000000000000000000000000000000000000000000000008152600401610dd290612abf565b60405180910390fd5b610e4a60ca60009054906101000a900473ffffffffffffffffffffffffffffffffffffffff168460cc60009054906101000a900473ffffffffffffffffffffffffffffffffffffffff1673ffffffffffffffffffffffffffffffffffffffff166115639092919063ffffffff16565b60ca60009054906101000a900473ffffffffffffffffffffffffffffffffffffffff1673ffffffffffffffffffffffffffffffffffffffff1663b6b55f25846040518263ffffffff1660e01b8152600401610ea59190612bbf565b602060405180830381600087803b158015610ebf57600080fd5b505af1158015610ed3573d6000803e3d6000fd5b505050506040513d601f19601f82011682018060405250810190610ef7919061237b565b9150600060cb60009054906101000a900473ffffffffffffffffffffffffffffffffffffffff1673ffffffffffffffffffffffffffffffffffffffff1663b723b34e84846040518363ffffffff1660e01b8152600401610f58929190612bda565b602060405180830381600087803b158015610f7257600080fd5b505af1158015610f86573d6000803e3d6000fd5b505050506040513d601f19601f82011682018060405250810190610faa919061237b565b905060008114610fef576040517f08c379a0000000000000000000000000000000000000000000000000000000008152600401610fe690612b3f565b60405180910390fd5b600060cb60009054906101000a900473ffffffffffffffffffffffffffffffffffffffff1673ffffffffffffffffffffffffffffffffffffffff16635fe3b5676040518163ffffffff1660e01b815260040160206040518083038186803b15801561105957600080fd5b505afa15801561106d573d6000803e3d6000fd5b505050506040513d601f19601f820116820180604052508101906110919190612300565b90506000600167ffffffffffffffff8111156110d6577f4e487b7100000000000000000000000000000000000000000000000000000000600052604160045260246000fd5b6040519080825280602002602001820160405280156111045781602001602082028036833780820191505090505b50905060cb60009054906101000a900473ffffffffffffffffffffffffffffffffffffffff1681600081518110611164577f4e487b7100000000000000000000000000000000000000000000000000000000600052603260045260246000fd5b602002602001019073ffffffffffffffffffffffffffffffffffffffff16908173ffffffffffffffffffffffffffffffffffffffff16815250508173ffffffffffffffffffffffffffffffffffffffff166333e4212982866040518363ffffffff1660e01b81526004016111d992919061284b565b602060405180830381600087803b1580156111f357600080fd5b505af1158015611207573d6000803e3d6000fd5b505050506040513d601f19601f8201168201806040525081019061122b919061237b565b50505050506112386116c1565b919050565b60cc60009054906101000a900473ffffffffffffffffffffffffffffffffffffffff1681565b60008060019054906101000a900460ff161590508080156112945750600160008054906101000a900460ff1660ff16105b806112c157506112a330611c0b565b1580156112c05750600160008054906101000a900460ff1660ff16145b5b611300576040517f08c379a00000000000000000000000000000000000000000000000000000000081526004016112f7906129ff565b60405180910390fd5b60016000806101000a81548160ff021916908360ff160217905550801561133d576001600060016101000a81548160ff0219169083151502179055505b611345611c2e565b61134d611c87565b611355611ce0565b611360848484611748565b80156113b95760008060016101000a81548160ff0219169083151502179055507f7f26b83ff96e1f2b6a682f133852f6798a09c465da95921460cefb384740249860016040516113b09190612902565b60405180910390a15b50505050565b6113c76116ca565b600073ffffffffffffffffffffffffffffffffffffffff168173ffffffffffffffffffffffffffffffffffffffff161415611437576040517f08c379a000000000000000000000000000000000000000000000000000000000815260040161142e9061295f565b60405180910390fd5b61144081611ae2565b50565b61144b6108ac565b1561148b576040517f08c379a0000000000000000000000000000000000000000000000000000000008152600401611482906129bf565b60405180910390fd5b565b600260015414156114d3576040517f08c379a00000000000000000000000000000000000000000000000000000000081526004016114ca90612b7f565b60405180910390fd5b6002600181905550565b61155e8363a9059cbb60e01b84846040516024016114fc929190612822565b604051602081830303815290604052907bffffffffffffffffffffffffffffffffffffffffffffffffffffffff19166020820180517bffffffffffffffffffffffffffffffffffffffffffffffffffffffff8381831617835250505050611d39565b505050565b60008114806115fc575060008373ffffffffffffffffffffffffffffffffffffffff1663dd62ed3e30856040518363ffffffff1660e01b81526004016115aa9291906127f9565b60206040518083038186803b1580156115c257600080fd5b505afa1580156115d6573d6000803e3d6000fd5b505050506040513d601f19601f820116820180604052508101906115fa919061237b565b145b61163b576040517f08c379a000000000000000000000000000000000000000000000000000000000815260040161163290612b9f565b60405180910390fd5b6116bc8363095ea7b360e01b848460405160240161165a929190612822565b604051602081830303815290604052907bffffffffffffffffffffffffffffffffffffffffffffffffffffffff19166020820180517bffffffffffffffffffffffffffffffffffffffffffffffffffffffff8381831617835250505050611d39565b505050565b60018081905550565b6116d2611e01565b73ffffffffffffffffffffffffffffffffffffffff166116f0610ae6565b73ffffffffffffffffffffffffffffffffffffffff1614611746576040517f08c379a000000000000000000000000000000000000000000000000000000000815260040161173d90612a3f565b60405180910390fd5b565b8173ffffffffffffffffffffffffffffffffffffffff16631f1fcd516040518163ffffffff1660e01b815260040160206040518083038186803b15801561178e57600080fd5b505afa1580156117a2573d6000803e3d6000fd5b505050506040513d601f19601f820116820180604052508101906117c69190612329565b73ffffffffffffffffffffffffffffffffffffffff168373ffffffffffffffffffffffffffffffffffffffff166338d52e0f6040518163ffffffff1660e01b815260040160206040518083038186803b15801561182257600080fd5b505afa158015611836573d6000803e3d6000fd5b505050506040513d601f19601f8201168201806040525081019061185a91906121d4565b73ffffffffffffffffffffffffffffffffffffffff16146118b0576040517f08c379a00000000000000000000000000000000000000000000000000000000081526004016118a7906129df565b60405180910390fd5b8160ca60006101000a81548173ffffffffffffffffffffffffffffffffffffffff021916908373ffffffffffffffffffffffffffffffffffffffff1602179055508260c960006101000a81548173ffffffffffffffffffffffffffffffffffffffff021916908373ffffffffffffffffffffffffffffffffffffffff1602179055508060cb60006101000a81548173ffffffffffffffffffffffffffffffffffffffff021916908373ffffffffffffffffffffffffffffffffffffffff1602179055508273ffffffffffffffffffffffffffffffffffffffff166338d52e0f6040518163ffffffff1660e01b815260040160206040518083038186803b1580156119b957600080fd5b505afa1580156119cd573d6000803e3d6000fd5b505050506040513d601f19601f820116820180604052508101906119f191906121d4565b60cc60006101000a81548173ffffffffffffffffffffffffffffffffffffffff021916908373ffffffffffffffffffffffffffffffffffffffff160217905550505050565b611a3e6108ac565b611a7d576040517f08c379a0000000000000000000000000000000000000000000000000000000008152600401611a749061293f565b60405180910390fd5b565b611a87611a36565b6000609760006101000a81548160ff0219169083151502179055507f5db9ee0a495bf2e6ff9c91a7834c1ba4fdd244a5e8aa4e537bd38aeae4b073aa611acb611e01565b604051611ad891906127de565b60405180910390a1565b6000606560009054906101000a900473ffffffffffffffffffffffffffffffffffffffff16905081606560006101000a81548173ffffffffffffffffffffffffffffffffffffffff021916908373ffffffffffffffffffffffffffffffffffffffff1602179055508173ffffffffffffffffffffffffffffffffffffffff168173ffffffffffffffffffffffffffffffffffffffff167f8be0079c531659141344cd1fd0a4f28419497f9722a3daafe3b4186f6b6457e060405160405180910390a35050565b611bb0611443565b6001609760006101000a81548160ff0219169083151502179055507f62e78cea01bee320cd4e420270b5ea74000d11b0c9f74754ebdbfc544b05a258611bf4611e01565b604051611c0191906127de565b60405180910390a1565b6000808273ffffffffffffffffffffffffffffffffffffffff163b119050919050565b600060019054906101000a900460ff16611c7d576040517f08c379a0000000000000000000000000000000000000000000000000000000008152600401611c7490612b1f565b60405180910390fd5b611c85611e09565b565b600060019054906101000a900460ff16611cd6576040517f08c379a0000000000000000000000000000000000000000000000000000000008152600401611ccd90612b1f565b60405180910390fd5b611cde611e6a565b565b600060019054906101000a900460ff16611d2f576040517f08c379a0000000000000000000000000000000000000000000000000000000008152600401611d2690612b1f565b60405180910390fd5b611d37611ec2565b565b6000611d9b826040518060400160405280602081526020017f5361666545524332303a206c6f772d6c6576656c2063616c6c206661696c65648152508573ffffffffffffffffffffffffffffffffffffffff16611f2e9092919063ffffffff16565b9050600081511480611dbd575080806020019051810190611dbc9190612288565b5b611dfc576040517f08c379a0000000000000000000000000000000000000000000000000000000008152600401611df390612b5f565b60405180910390fd5b505050565b600033905090565b600060019054906101000a900460ff16611e58576040517f08c379a0000000000000000000000000000000000000000000000000000000008152600401611e4f90612b1f565b60405180910390fd5b611e68611e63611e01565b611ae2565b565b600060019054906101000a900460ff16611eb9576040517f08c379a0000000000000000000000000000000000000000000000000000000008152600401611eb090612b1f565b60405180910390fd5b60018081905550565b600060019054906101000a900460ff16611f11576040517f08c379a0000000000000000000000000000000000000000000000000000000008152600401611f0890612b1f565b60405180910390fd5b6000609760006101000a81548160ff021916908315150217905550565b6060611f3d8484600085611f46565b90509392505050565b606082471015611f8b576040517f08c379a0000000000000000000000000000000000000000000000000000000008152600401611f829061297f565b60405180910390fd5b6000808673ffffffffffffffffffffffffffffffffffffffff168587604051611fb491906127c7565b60006040518083038185875af1925050503d8060008114611ff1576040519150601f19603f3d011682016040523d82523d6000602084013e611ff6565b606091505b509150915061200787838387612013565b92505050949350505050565b606083156120765760008351141561206e5761202e85611c0b565b61206d576040517f08c379a000000000000000000000000000000000000000000000000000000000815260040161206490612aff565b60405180910390fd5b5b829050612081565b6120808383612089565b5b949350505050565b60008251111561209c5781518083602001fd5b806040517f08c379a00000000000000000000000000000000000000000000000000000000081526004016120d0919061291d565b60405180910390fd5b6000813590506120e881613278565b92915050565b6000815190506120fd81613278565b92915050565b6000815190506121128161328f565b92915050565b600081359050612127816132a6565b92915050565b60008151905061213c816132bd565b92915050565b600081359050612151816132d4565b92915050565b600081359050612166816132eb565b92915050565b60008151905061217b81613302565b92915050565b60008135905061219081613319565b92915050565b6000815190506121a581613319565b92915050565b6000602082840312156121bd57600080fd5b60006121cb848285016120d9565b91505092915050565b6000602082840312156121e657600080fd5b60006121f4848285016120ee565b91505092915050565b6000806040838503121561221057600080fd5b600061221e858286016120d9565b925050602061222f858286016120d9565b9150509250929050565b60008060006060848603121561224e57600080fd5b600061225c868287016120d9565b935050602061226d86828701612181565b925050604061227e86828701612181565b9150509250925092565b60006020828403121561229a57600080fd5b60006122a884828501612103565b91505092915050565b6000806000606084860312156122c657600080fd5b60006122d486828701612118565b93505060206122e586828701612157565b92505060406122f686828701612142565b9150509250925092565b60006020828403121561231257600080fd5b60006123208482850161212d565b91505092915050565b60006020828403121561233b57600080fd5b60006123498482850161216c565b91505092915050565b60006020828403121561236457600080fd5b600061237284828501612181565b91505092915050565b60006020828403121561238d57600080fd5b600061239b84828501612196565b91505092915050565b60006123b083836123bc565b60208301905092915050565b6123c581612ca5565b82525050565b6123d481612ca5565b82525050565b60006123e582612c4a565b6123ef8185612c78565b93506123fa83612c3a565b8060005b8381101561242b57815161241288826123a4565b975061241d83612c6b565b9250506001810190506123fe565b5085935050505092915050565b61244181612cb7565b82525050565b600061245282612c55565b61245c8185612c89565b935061246c818560208601612df6565b80840191505092915050565b61248181612d54565b82525050565b61249081612d78565b82525050565b61249f81612d9c565b82525050565b6124ae81612dc0565b82525050565b6124bd81612de4565b82525050565b60006124ce82612c60565b6124d88185612c94565b93506124e8818560208601612df6565b6124f181612e29565b840191505092915050565b6000612509601483612c94565b915061251482612e3a565b602082019050919050565b600061252c602683612c94565b915061253782612e63565b604082019050919050565b600061254f602683612c94565b915061255a82612eb2565b604082019050919050565b6000612572601083612c94565b915061257d82612f01565b602082019050919050565b6000612595601083612c94565b91506125a082612f2a565b602082019050919050565b60006125b8603283612c94565b91506125c382612f53565b604082019050919050565b60006125db602e83612c94565b91506125e682612fa2565b604082019050919050565b60006125fe600c83612c94565b915061260982612ff1565b602082019050919050565b6000612621602083612c94565b915061262c8261301a565b602082019050919050565b6000612644600a83612c94565b915061264f82613043565b602082019050919050565b6000612667600d83612c94565b91506126728261306c565b602082019050919050565b600061268a600783612c94565b915061269582613095565b602082019050919050565b60006126ad600783612c94565b91506126b8826130be565b602082019050919050565b60006126d0600a83612c94565b91506126db826130e7565b602082019050919050565b60006126f3601d83612c94565b91506126fe82613110565b602082019050919050565b6000612716602b83612c94565b915061272182613139565b604082019050919050565b6000612739600583612c94565b915061274482613188565b602082019050919050565b600061275c602a83612c94565b9150612767826131b1565b604082019050919050565b600061277f601f83612c94565b915061278a82613200565b602082019050919050565b60006127a2603683612c94565b91506127ad82613229565b604082019050919050565b6127c181612d3d565b82525050565b60006127d38284612447565b915081905092915050565b60006020820190506127f360008301846123cb565b92915050565b600060408201905061280e60008301856123cb565b61281b60208301846123cb565b9392505050565b600060408201905061283760008301856123cb565b61284460208301846127b8565b9392505050565b6000604082019050818103600083015261286581856123da565b905061287460208301846123cb565b9392505050565b60006020820190506128906000830184612438565b92915050565b60006020820190506128ab6000830184612478565b92915050565b60006020820190506128c66000830184612487565b92915050565b60006020820190506128e16000830184612496565b92915050565b60006020820190506128fc60008301846124a5565b92915050565b600060208201905061291760008301846124b4565b92915050565b6000602082019050818103600083015261293781846124c3565b905092915050565b60006020820190508181036000830152612958816124fc565b9050919050565b600060208201905081810360008301526129788161251f565b9050919050565b6000602082019050818103600083015261299881612542565b9050919050565b600060208201905081810360008301526129b881612565565b9050919050565b600060208201905081810360008301526129d881612588565b9050919050565b600060208201905081810360008301526129f8816125ab565b9050919050565b60006020820190508181036000830152612a18816125ce565b9050919050565b60006020820190508181036000830152612a38816125f1565b9050919050565b60006020820190508181036000830152612a5881612614565b9050919050565b60006020820190508181036000830152612a7881612637565b9050919050565b60006020820190508181036000830152612a988161265a565b9050919050565b60006020820190508181036000830152612ab88161267d565b9050919050565b60006020820190508181036000830152612ad8816126a0565b9050919050565b60006020820190508181036000830152612af8816126c3565b9050919050565b60006020820190508181036000830152612b18816126e6565b9050919050565b60006020820190508181036000830152612b3881612709565b9050919050565b60006020820190508181036000830152612b588161272c565b9050919050565b60006020820190508181036000830152612b788161274f565b9050919050565b60006020820190508181036000830152612b9881612772565b9050919050565b60006020820190508181036000830152612bb881612795565b9050919050565b6000602082019050612bd460008301846127b8565b92915050565b6000604082019050612bef60008301856127b8565b612bfc60208301846123cb565b9392505050565b6000606082019050612c1860008301866127b8565b612c2560208301856123cb565b612c3260408301846123cb565b949350505050565b6000819050602082019050919050565b600081519050919050565b600081519050919050565b600081519050919050565b6000602082019050919050565b600082825260208201905092915050565b600081905092915050565b600082825260208201905092915050565b6000612cb082612d1d565b9050919050565b60008115159050919050565b6000612cce82612ca5565b9050919050565b6000612ce082612ca5565b9050919050565b6000612cf282612ca5565b9050919050565b6000612d0482612ca5565b9050919050565b6000612d1682612ca5565b9050919050565b600073ffffffffffffffffffffffffffffffffffffffff82169050919050565b6000819050919050565b600060ff82169050919050565b6000612d5f82612d66565b9050919050565b6000612d7182612d1d565b9050919050565b6000612d8382612d8a565b9050919050565b6000612d9582612d1d565b9050919050565b6000612da782612dae565b9050919050565b6000612db982612d1d565b9050919050565b6000612dcb82612dd2565b9050919050565b6000612ddd82612d1d565b9050919050565b6000612def82612d47565b9050919050565b60005b83811015612e14578082015181840152602081019050612df9565b83811115612e23576000848401525b50505050565b6000601f19601f8301169050919050565b7f5061757361626c653a206e6f7420706175736564000000000000000000000000600082015250565b7f4f776e61626c653a206e6577206f776e657220697320746865207a65726f206160008201527f6464726573730000000000000000000000000000000000000000000000000000602082015250565b7f416464726573733a20696e73756666696369656e742062616c616e636520666f60008201527f722063616c6c0000000000000000000000000000000000000000000000000000602082015250565b7f21776974686472617742616c616e636500000000000000000000000000000000600082015250565b7f5061757361626c653a2070617573656400000000000000000000000000000000600082015250565b7f6175726120617373657420617265206e6f742073616d65207769746820636f6d60008201527f706f756e64696e675661756c742077616e740000000000000000000000000000602082015250565b7f496e697469616c697a61626c653a20636f6e747261637420697320616c72656160008201527f647920696e697469616c697a6564000000000000000000000000000000000000602082015250565b7f217661756c74416d6f756e740000000000000000000000000000000000000000600082015250565b7f4f776e61626c653a2063616c6c6572206973206e6f7420746865206f776e6572600082015250565b7f21616c6c6f77616e636500000000000000000000000000000000000000000000600082015250565b7f2177697468647261775479706500000000000000000000000000000000000000600082015250565b7f216d61726b657400000000000000000000000000000000000000000000000000600082015250565b7f2161737365747300000000000000000000000000000000000000000000000000600082015250565b7f216c7042616c616e636500000000000000000000000000000000000000000000600082015250565b7f416464726573733a2063616c6c20746f206e6f6e2d636f6e7472616374000000600082015250565b7f496e697469616c697a61626c653a20636f6e7472616374206973206e6f74206960008201527f6e697469616c697a696e67000000000000000000000000000000000000000000602082015250565b7f216d696e74000000000000000000000000000000000000000000000000000000600082015250565b7f5361666545524332303a204552433230206f7065726174696f6e20646964206e60008201527f6f74207375636365656400000000000000000000000000000000000000000000602082015250565b7f5265656e7472616e637947756172643a207265656e7472616e742063616c6c00600082015250565b7f5361666545524332303a20617070726f76652066726f6d206e6f6e2d7a65726f60008201527f20746f206e6f6e2d7a65726f20616c6c6f77616e636500000000000000000000602082015250565b61328181612ca5565b811461328c57600080fd5b50565b61329881612cb7565b81146132a357600080fd5b50565b6132af81612cc3565b81146132ba57600080fd5b50565b6132c681612cd5565b81146132d157600080fd5b50565b6132dd81612ce7565b81146132e857600080fd5b50565b6132f481612cf9565b81146132ff57600080fd5b50565b61330b81612d0b565b811461331657600080fd5b50565b61332281612d3d565b811461332d57600080fd5b5056fea2646970667358221220326be92695ca6cbe7b2ba83c5c44c42037a45bd3d7eb9274d2e8b566cde28d9164736f6c63430008040033",
  "devdoc": {
    "kind": "dev",
    "methods": {
      "owner()": {
        "details": "Returns the address of the current owner."
      },
      "paused()": {
        "details": "Returns true if the contract is paused, and false otherwise."
      },
      "redeem(address,uint256,uint256)": {
        "params": {
          "withdrawType": "1 for withdraw balancer LP, 2 for restake"
        }
      },
      "renounceOwnership()": {
        "details": "Leaves the contract without owner. It will not be possible to call `onlyOwner` functions. Can only be called by the current owner. NOTE: Renouncing ownership will leave the contract without an owner, thereby disabling any functionality that is only available to the owner."
      },
      "supplyToMarket(uint256)": {
        "details": "caller should approve this contract before calling.      also enables supplied assets as collateral in the market",
        "params": {
          "amount": "of Aura pool tokens to withdraw"
        }
      },
      "transferOwnership(address)": {
        "details": "Transfers ownership of the contract to a new account (`newOwner`). Can only be called by the current owner."
      }
    },
    "title": "AuraLPMigration: get balanceLP from Aura and supply",
    "version": 1
  },
  "userdoc": {
    "events": {
      "LogEmergencyWithdraw(address,address,uint256)": {
        "notice": "emitted when withdraw happens"
      }
    },
    "kind": "user",
    "methods": {
      "auraRewardPool()": {
        "notice": "aura base reward pool"
      },
      "balancerLP()": {
        "notice": "balancer LP token"
      },
      "compoundingVault()": {
        "notice": "auto compounding vault"
      },
      "dropsAuraMarket()": {
        "notice": "drops CToken for aura market"
      },
      "redeem(address,uint256,uint256)": {
        "notice": "market will call this function to withdraw balancer LP or restake to Aura the market should send vault erc20 tokens before call this function"
      },
      "supplyToMarket(uint256)": {
        "notice": "withdraw LP tokens from Aura and supply to market"
      }
    },
    "version": 1
  },
  "storageLayout": {
    "storage": [
      {
        "astId": 138,
        "contract": "contracts/d6-market-migrations/AuraLPMigration.sol:AuraLPMigration",
        "label": "_initialized",
        "offset": 0,
        "slot": "0",
        "type": "t_uint8"
      },
      {
        "astId": 141,
        "contract": "contracts/d6-market-migrations/AuraLPMigration.sol:AuraLPMigration",
        "label": "_initializing",
        "offset": 1,
        "slot": "0",
        "type": "t_bool"
      },
      {
        "astId": 441,
        "contract": "contracts/d6-market-migrations/AuraLPMigration.sol:AuraLPMigration",
        "label": "_status",
        "offset": 0,
        "slot": "1",
        "type": "t_uint256"
      },
      {
        "astId": 510,
        "contract": "contracts/d6-market-migrations/AuraLPMigration.sol:AuraLPMigration",
        "label": "__gap",
        "offset": 0,
        "slot": "2",
        "type": "t_array(t_uint256)49_storage"
      },
      {
        "astId": 1372,
        "contract": "contracts/d6-market-migrations/AuraLPMigration.sol:AuraLPMigration",
        "label": "__gap",
        "offset": 0,
        "slot": "51",
        "type": "t_array(t_uint256)50_storage"
      },
      {
        "astId": 10,
        "contract": "contracts/d6-market-migrations/AuraLPMigration.sol:AuraLPMigration",
        "label": "_owner",
        "offset": 0,
        "slot": "101",
        "type": "t_address"
      },
      {
        "astId": 130,
        "contract": "contracts/d6-market-migrations/AuraLPMigration.sol:AuraLPMigration",
        "label": "__gap",
        "offset": 0,
        "slot": "102",
        "type": "t_array(t_uint256)49_storage"
      },
      {
        "astId": 321,
        "contract": "contracts/d6-market-migrations/AuraLPMigration.sol:AuraLPMigration",
        "label": "_paused",
        "offset": 0,
        "slot": "151",
        "type": "t_bool"
      },
      {
        "astId": 426,
        "contract": "contracts/d6-market-migrations/AuraLPMigration.sol:AuraLPMigration",
        "label": "__gap",
        "offset": 0,
        "slot": "152",
        "type": "t_array(t_uint256)49_storage"
      },
      {
        "astId": 1400,
        "contract": "contracts/d6-market-migrations/AuraLPMigration.sol:AuraLPMigration",
        "label": "auraRewardPool",
        "offset": 0,
        "slot": "201",
        "type": "t_contract(IAuraBaseRewardPool)1881"
      },
      {
        "astId": 1404,
        "contract": "contracts/d6-market-migrations/AuraLPMigration.sol:AuraLPMigration",
        "label": "compoundingVault",
        "offset": 0,
        "slot": "202",
        "type": "t_contract(IDropsCompoundingVault)1939"
      },
      {
        "astId": 1408,
        "contract": "contracts/d6-market-migrations/AuraLPMigration.sol:AuraLPMigration",
        "label": "dropsAuraMarket",
        "offset": 0,
        "slot": "203",
        "type": "t_contract(IDropsAuraMarket)1910"
      },
      {
        "astId": 1412,
        "contract": "contracts/d6-market-migrations/AuraLPMigration.sol:AuraLPMigration",
        "label": "balancerLP",
        "offset": 0,
        "slot": "204",
        "type": "t_contract(IERC20Upgradeable)589"
      }
    ],
    "types": {
      "t_address": {
        "encoding": "inplace",
        "label": "address",
        "numberOfBytes": "20"
      },
      "t_array(t_uint256)49_storage": {
        "base": "t_uint256",
        "encoding": "inplace",
        "label": "uint256[49]",
        "numberOfBytes": "1568"
      },
      "t_array(t_uint256)50_storage": {
        "base": "t_uint256",
        "encoding": "inplace",
        "label": "uint256[50]",
        "numberOfBytes": "1600"
      },
      "t_bool": {
        "encoding": "inplace",
        "label": "bool",
        "numberOfBytes": "1"
      },
      "t_contract(IAuraBaseRewardPool)1881": {
        "encoding": "inplace",
        "label": "contract IAuraBaseRewardPool",
        "numberOfBytes": "20"
      },
      "t_contract(IDropsAuraMarket)1910": {
        "encoding": "inplace",
        "label": "contract IDropsAuraMarket",
        "numberOfBytes": "20"
      },
      "t_contract(IDropsCompoundingVault)1939": {
        "encoding": "inplace",
        "label": "contract IDropsCompoundingVault",
        "numberOfBytes": "20"
      },
      "t_contract(IERC20Upgradeable)589": {
        "encoding": "inplace",
        "label": "contract IERC20Upgradeable",
        "numberOfBytes": "20"
      },
      "t_uint256": {
        "encoding": "inplace",
        "label": "uint256",
        "numberOfBytes": "32"
      },
      "t_uint8": {
        "encoding": "inplace",
        "label": "uint8",
        "numberOfBytes": "1"
      }
    }
  }
}