{
  "address": "0xEDB90d46A0C2af2e3faE1deA1a69add16875af90",
  "abi": [
    {
      "anonymous": false,
      "inputs": [
        {
          "indexed": false,
          "internalType": "uint8",
          "name": "version",
          "type": "uint8"
        }
      ],
      "name": "Initialized",
      "type": "event"
    },
    {
      "anonymous": false,
      "inputs": [
        {
          "indexed": true,
          "internalType": "address",
          "name": "previousOwner",
          "type": "address"
        },
        {
          "indexed": true,
          "internalType": "address",
          "name": "newOwner",
          "type": "address"
        }
      ],
      "name": "OwnershipTransferred",
      "type": "event"
    },
    {
      "inputs": [],
      "name": "decimals",
      "outputs": [
        {
          "internalType": "uint8",
          "name": "",
          "type": "uint8"
        }
      ],
      "stateMutability": "pure",
      "type": "function"
    },
    {
      "inputs": [
        {
          "internalType": "address",
          "name": "",
          "type": "address"
        }
      ],
      "name": "ethAggregators",
      "outputs": [
        {
          "internalType": "contract AggregatorV3Interface",
          "name": "",
          "type": "address"
        }
      ],
      "stateMutability": "view",
      "type": "function"
    },
    {
      "inputs": [
        {
          "internalType": "address",
          "name": "asset",
          "type": "address"
        }
      ],
      "name": "getETHPrice",
      "outputs": [
        {
          "internalType": "int256",
          "name": "price",
          "type": "int256"
        }
      ],
      "stateMutability": "view",
      "type": "function"
    },
    {
      "inputs": [
        {
          "internalType": "address",
          "name": "asset",
          "type": "address"
        }
      ],
      "name": "getUSDPrice",
      "outputs": [
        {
          "internalType": "int256",
          "name": "price",
          "type": "int256"
        }
      ],
      "stateMutability": "view",
      "type": "function"
    },
    {
      "inputs": [],
      "name": "initialize",
      "outputs": [],
      "stateMutability": "payable",
      "type": "function"
    },
    {
      "inputs": [],
      "name": "owner",
      "outputs": [
        {
          "internalType": "address",
          "name": "",
          "type": "address"
        }
      ],
      "stateMutability": "view",
      "type": "function"
    },
    {
      "inputs": [],
      "name": "renounceOwnership",
      "outputs": [],
      "stateMutability": "nonpayable",
      "type": "function"
    },
    {
      "inputs": [
        {
          "internalType": "address",
          "name": "asset",
          "type": "address"
        },
        {
          "internalType": "contract AggregatorV3Interface",
          "name": "aggregator",
          "type": "address"
        }
      ],
      "name": "setETHAggregator",
      "outputs": [],
      "stateMutability": "nonpayable",
      "type": "function"
    },
    {
      "inputs": [
        {
          "internalType": "address",
          "name": "asset",
          "type": "address"
        },
        {
          "internalType": "contract AggregatorV3Interface",
          "name": "aggregator",
          "type": "address"
        }
      ],
      "name": "setUSDAggregator",
      "outputs": [],
      "stateMutability": "nonpayable",
      "type": "function"
    },
    {
      "inputs": [
        {
          "internalType": "address",
          "name": "newOwner",
          "type": "address"
        }
      ],
      "name": "transferOwnership",
      "outputs": [],
      "stateMutability": "nonpayable",
      "type": "function"
    },
    {
      "inputs": [
        {
          "internalType": "address",
          "name": "",
          "type": "address"
        }
      ],
      "name": "usdAggregators",
      "outputs": [
        {
          "internalType": "contract AggregatorV3Interface",
          "name": "",
          "type": "address"
        }
      ],
      "stateMutability": "view",
      "type": "function"
    }
  ],
  "transactionHash": "0x7863b2933369c6ee68b29cac1eb1103bd69e4a14b968a837b4ca7122658c3beb",
  "args": [],
  "solcInputHash": "f321bc69a74a49048d7456c3c024dd29",
  "bytecode": "0x608060405234801561001057600080fd5b506118b6806100206000396000f3fe60806040526004361061009c5760003560e01c80638da5cb5b116100645780638da5cb5b1461015357806397cecb251461017e578063a534acb8146101bb578063a5671e25146101f8578063ac4e653d14610235578063f2fde38b1461025e5761009c565b80630e015f40146100a1578063313ce567146100ca578063715018a6146100f55780638129fc1c1461010c5780638b2f0f4f14610116575b600080fd5b3480156100ad57600080fd5b506100c860048036038101906100c39190610f67565b610287565b005b3480156100d657600080fd5b506100df610311565b6040516100ec9190611249565b60405180910390f35b34801561010157600080fd5b5061010a61031a565b005b61011461032e565b005b34801561012257600080fd5b5061013d60048036038101906101389190610f3e565b61046c565b60405161014a9190611173565b60405180910390f35b34801561015f57600080fd5b5061016861091d565b604051610175919061113d565b60405180910390f35b34801561018a57600080fd5b506101a560048036038101906101a09190610f3e565b610947565b6040516101b29190611173565b60405180910390f35b3480156101c757600080fd5b506101e260048036038101906101dd9190610f3e565b6109fd565b6040516101ef9190611158565b60405180910390f35b34801561020457600080fd5b5061021f600480360381019061021a9190610f3e565b610a30565b60405161022c9190611158565b60405180910390f35b34801561024157600080fd5b5061025c60048036038101906102579190610f67565b610a63565b005b34801561026a57600080fd5b5061028560048036038101906102809190610f3e565b610aed565b005b61028f610b71565b80606660008473ffffffffffffffffffffffffffffffffffffffff1673ffffffffffffffffffffffffffffffffffffffff16815260200190815260200160002060006101000a81548173ffffffffffffffffffffffffffffffffffffffff021916908373ffffffffffffffffffffffffffffffffffffffff1602179055505050565b60006012905090565b610322610b71565b61032c6000610bef565b565b60008060019054906101000a900460ff1615905080801561035f5750600160008054906101000a900460ff1660ff16105b8061038c575061036e30610cb5565b15801561038b5750600160008054906101000a900460ff1660ff16145b5b6103cb576040517f08c379a00000000000000000000000000000000000000000000000000000000081526004016103c2906111c9565b60405180910390fd5b60016000806101000a81548160ff021916908360ff1602179055508015610408576001600060016101000a81548160ff0219169083151502179055505b610410610cd8565b80156104695760008060016101000a81548160ff0219169083151502179055507f7f26b83ff96e1f2b6a682f133852f6798a09c465da95921460cefb38474024986001604051610460919061118e565b60405180910390a15b50565b60008073ffffffffffffffffffffffffffffffffffffffff168273ffffffffffffffffffffffffffffffffffffffff1614156104dd576040517f08c379a00000000000000000000000000000000000000000000000000000000081526004016104d490611229565b60405180910390fd5b60008073ffffffffffffffffffffffffffffffffffffffff16606560008573ffffffffffffffffffffffffffffffffffffffff1673ffffffffffffffffffffffffffffffffffffffff16815260200190815260200160002060009054906101000a900473ffffffffffffffffffffffffffffffffffffffff1673ffffffffffffffffffffffffffffffffffffffff16146106e857606560008473ffffffffffffffffffffffffffffffffffffffff1673ffffffffffffffffffffffffffffffffffffffff16815260200190815260200160002060009054906101000a900473ffffffffffffffffffffffffffffffffffffffff16905060008173ffffffffffffffffffffffffffffffffffffffff1663feaf968c6040518163ffffffff1660e01b815260040160a06040518083038186803b15801561061b57600080fd5b505afa15801561062f573d6000803e3d6000fd5b505050506040513d601f19601f820116820180604052508101906106539190610fa3565b5050509150506106e0818373ffffffffffffffffffffffffffffffffffffffff1663313ce5676040518163ffffffff1660e01b815260040160206040518083038186803b1580156106a357600080fd5b505afa1580156106b7573d6000803e3d6000fd5b505050506040513d601f19601f820116820180604052508101906106db919061101a565b610d31565b925050610917565b600073ffffffffffffffffffffffffffffffffffffffff16606660008573ffffffffffffffffffffffffffffffffffffffff1673ffffffffffffffffffffffffffffffffffffffff16815260200190815260200160002060009054906101000a900473ffffffffffffffffffffffffffffffffffffffff1673ffffffffffffffffffffffffffffffffffffffff161461091657606660008473ffffffffffffffffffffffffffffffffffffffff1673ffffffffffffffffffffffffffffffffffffffff16815260200190815260200160002060009054906101000a900473ffffffffffffffffffffffffffffffffffffffff16905060008173ffffffffffffffffffffffffffffffffffffffff1663feaf968c6040518163ffffffff1660e01b815260040160a06040518083038186803b15801561082557600080fd5b505afa158015610839573d6000803e3d6000fd5b505050506040513d601f19601f8201168201806040525081019061085d9190610fa3565b5050509150506108ea818373ffffffffffffffffffffffffffffffffffffffff1663313ce5676040518163ffffffff1660e01b815260040160206040518083038186803b1580156108ad57600080fd5b505afa1580156108c1573d6000803e3d6000fd5b505050506040513d601f19601f820116820180604052508101906108e5919061101a565b610d31565b9050670de0b6b3a76400006108fd610dab565b826109089190611450565b6109129190611275565b9250505b5b50919050565b6000603360009054906101000a900473ffffffffffffffffffffffffffffffffffffffff16905090565b60008073ffffffffffffffffffffffffffffffffffffffff168273ffffffffffffffffffffffffffffffffffffffff1614156109b8576040517f08c379a00000000000000000000000000000000000000000000000000000000081526004016109af90611229565b60405180910390fd5b60006109c38361046c565b905060008113156109f7576109d6610dab565b670de0b6b3a7640000826109ea9190611450565b6109f49190611275565b91505b50919050565b60656020528060005260406000206000915054906101000a900473ffffffffffffffffffffffffffffffffffffffff1681565b60666020528060005260406000206000915054906101000a900473ffffffffffffffffffffffffffffffffffffffff1681565b610a6b610b71565b80606560008473ffffffffffffffffffffffffffffffffffffffff1673ffffffffffffffffffffffffffffffffffffffff16815260200190815260200160002060006101000a81548173ffffffffffffffffffffffffffffffffffffffff021916908373ffffffffffffffffffffffffffffffffffffffff1602179055505050565b610af5610b71565b600073ffffffffffffffffffffffffffffffffffffffff168173ffffffffffffffffffffffffffffffffffffffff161415610b65576040517f08c379a0000000000000000000000000000000000000000000000000000000008152600401610b5c906111a9565b60405180910390fd5b610b6e81610bef565b50565b610b79610e57565b73ffffffffffffffffffffffffffffffffffffffff16610b9761091d565b73ffffffffffffffffffffffffffffffffffffffff1614610bed576040517f08c379a0000000000000000000000000000000000000000000000000000000008152600401610be4906111e9565b60405180910390fd5b565b6000603360009054906101000a900473ffffffffffffffffffffffffffffffffffffffff16905081603360006101000a81548173ffffffffffffffffffffffffffffffffffffffff021916908373ffffffffffffffffffffffffffffffffffffffff1602179055508173ffffffffffffffffffffffffffffffffffffffff168173ffffffffffffffffffffffffffffffffffffffff167f8be0079c531659141344cd1fd0a4f28419497f9722a3daafe3b4186f6b6457e060405160405180910390a35050565b6000808273ffffffffffffffffffffffffffffffffffffffff163b119050919050565b600060019054906101000a900460ff16610d27576040517f08c379a0000000000000000000000000000000000000000000000000000000008152600401610d1e90611209565b60405180910390fd5b610d2f610e5f565b565b600060128260ff161415610d4757829050610da5565b60128260ff161115610d7e57601282610d609190611567565b600a610d6c9190611332565b83610d779190611275565b9050610da5565b816012610d8b9190611567565b600a610d979190611332565b83610da29190611450565b90505b92915050565b600080735f4ec3df9cbd43714fe2740f5e3616155c5b841973ffffffffffffffffffffffffffffffffffffffff1663feaf968c6040518163ffffffff1660e01b815260040160a06040518083038186803b158015610e0857600080fd5b505afa158015610e1c573d6000803e3d6000fd5b505050506040513d601f19601f82011682018060405250810190610e409190610fa3565b505050915050610e51816008610d31565b91505090565b600033905090565b600060019054906101000a900460ff16610eae576040517f08c379a0000000000000000000000000000000000000000000000000000000008152600401610ea590611209565b60405180910390fd5b610ebe610eb9610e57565b610bef565b565b600081359050610ecf816117f6565b92915050565b600081359050610ee48161180d565b92915050565b600081519050610ef981611824565b92915050565b600081519050610f0e8161183b565b92915050565b600081519050610f2381611869565b92915050565b600081519050610f3881611852565b92915050565b600060208284031215610f5057600080fd5b6000610f5e84828501610ec0565b91505092915050565b60008060408385031215610f7a57600080fd5b6000610f8885828601610ec0565b9250506020610f9985828601610ed5565b9150509250929050565b600080600080600060a08688031215610fbb57600080fd5b6000610fc988828901610f14565b9550506020610fda88828901610eea565b9450506040610feb88828901610eff565b9350506060610ffc88828901610eff565b925050608061100d88828901610f14565b9150509295509295909350565b60006020828403121561102c57600080fd5b600061103a84828501610f29565b91505092915050565b61104c8161159b565b82525050565b61105b81611616565b82525050565b61106a816115bf565b82525050565b6110798161163a565b82525050565b600061108c602683611264565b9150611097826116b7565b604082019050919050565b60006110af602e83611264565b91506110ba82611706565b604082019050919050565b60006110d2602083611264565b91506110dd82611755565b602082019050919050565b60006110f5602b83611264565b91506111008261177e565b604082019050919050565b6000611118600683611264565b9150611123826117cd565b602082019050919050565b611137816115f3565b82525050565b60006020820190506111526000830184611043565b92915050565b600060208201905061116d6000830184611052565b92915050565b60006020820190506111886000830184611061565b92915050565b60006020820190506111a36000830184611070565b92915050565b600060208201905081810360008301526111c28161107f565b9050919050565b600060208201905081810360008301526111e2816110a2565b9050919050565b60006020820190508181036000830152611202816110c5565b9050919050565b60006020820190508181036000830152611222816110e8565b9050919050565b600060208201905081810360008301526112428161110b565b9050919050565b600060208201905061125e600083018461112e565b92915050565b600082825260208201905092915050565b6000611280826115bf565b915061128b836115bf565b92508261129b5761129a61167b565b5b600160000383147f8000000000000000000000000000000000000000000000000000000000000000831416156112d4576112d361164c565b5b828205905092915050565b6000808291508390505b6001851115611329578086048111156113055761130461164c565b5b60018516156113145780820291505b8081029050611322856116aa565b94506112e9565b94509492505050565b600061133d826115e9565b9150611348836115f3565b92506113757fffffffffffffffffffffffffffffffffffffffffffffffffffffffffffffffff848461137d565b905092915050565b60008261138d5760019050611449565b8161139b5760009050611449565b81600181146113b157600281146113bb576113ea565b6001915050611449565b60ff8411156113cd576113cc61164c565b5b8360020a9150848211156113e4576113e361164c565b5b50611449565b5060208310610133831016604e8410600b841016171561141f5782820a90508381111561141a5761141961164c565b5b611449565b61142c84848460016112df565b925090508184048111156114435761144261164c565b5b81810290505b9392505050565b600061145b826115bf565b9150611466836115bf565b9250827f7fffffffffffffffffffffffffffffffffffffffffffffffffffffffffffffff04821160008413600084131616156114a5576114a461164c565b5b817f800000000000000000000000000000000000000000000000000000000000000005831260008412600084131616156114e2576114e161164c565b5b827f8000000000000000000000000000000000000000000000000000000000000000058212600084136000841216161561151f5761151e61164c565b5b827f7fffffffffffffffffffffffffffffffffffffffffffffffffffffffffffffff058212600084126000841216161561155c5761155b61164c565b5b828202905092915050565b6000611572826115f3565b915061157d836115f3565b9250828210156115905761158f61164c565b5b828203905092915050565b60006115a6826115c9565b9050919050565b60006115b88261159b565b9050919050565b6000819050919050565b600073ffffffffffffffffffffffffffffffffffffffff82169050919050565b6000819050919050565b600060ff82169050919050565b600069ffffffffffffffffffff82169050919050565b600061162182611628565b9050919050565b6000611633826115c9565b9050919050565b6000611645826115f3565b9050919050565b7f4e487b7100000000000000000000000000000000000000000000000000000000600052601160045260246000fd5b7f4e487b7100000000000000000000000000000000000000000000000000000000600052601260045260246000fd5b60008160011c9050919050565b7f4f776e61626c653a206e6577206f776e657220697320746865207a65726f206160008201527f6464726573730000000000000000000000000000000000000000000000000000602082015250565b7f496e697469616c697a61626c653a20636f6e747261637420697320616c72656160008201527f647920696e697469616c697a6564000000000000000000000000000000000000602082015250565b7f4f776e61626c653a2063616c6c6572206973206e6f7420746865206f776e6572600082015250565b7f496e697469616c697a61626c653a20636f6e7472616374206973206e6f74206960008201527f6e697469616c697a696e67000000000000000000000000000000000000000000602082015250565b7f2161737365740000000000000000000000000000000000000000000000000000600082015250565b6117ff8161159b565b811461180a57600080fd5b50565b611816816115ad565b811461182157600080fd5b50565b61182d816115bf565b811461183857600080fd5b50565b611844816115e9565b811461184f57600080fd5b50565b61185b816115f3565b811461186657600080fd5b50565b61187281611600565b811461187d57600080fd5b5056fea2646970667358221220d70ca32ce952afc9b5247512dd7486c9ea7280827df080b63c0b24a95ba202c164736f6c63430008040033",
  "devdoc": {
    "kind": "dev",
    "methods": {
      "owner()": {
        "details": "Returns the address of the current owner."
      },
      "renounceOwnership()": {
        "details": "Leaves the contract without owner. It will not be possible to call `onlyOwner` functions. Can only be called by the current owner. NOTE: Renouncing ownership will leave the contract without an owner, thereby disabling any functionality that is only available to the owner."
      },
      "transferOwnership(address)": {
        "details": "Transfers ownership of the contract to a new account (`newOwner`). Can only be called by the current owner."
      }
    },
    "title": "aggregator contract that provides price of tokens",
    "version": 1
  },
  "userdoc": {
    "kind": "user",
    "methods": {
      "ethAggregators(address)": {
        "notice": "token asset => address of ETH chainlink aggregators"
      },
      "usdAggregators(address)": {
        "notice": "token asset => address of USD chainlink aggregators"
      }
    },
    "version": 1
  },
  "storageLayout": {
    "storage": [
      {
        "astId": 232,
        "contract": "contracts/oracle/ChainlinkPriceFactory.sol:ChainlinkPriceFactory",
        "label": "_initialized",
        "offset": 0,
        "slot": "0",
        "type": "t_uint8"
      },
      {
        "astId": 235,
        "contract": "contracts/oracle/ChainlinkPriceFactory.sol:ChainlinkPriceFactory",
        "label": "_initializing",
        "offset": 1,
        "slot": "0",
        "type": "t_bool"
      },
      {
        "astId": 1466,
        "contract": "contracts/oracle/ChainlinkPriceFactory.sol:ChainlinkPriceFactory",
        "label": "__gap",
        "offset": 0,
        "slot": "1",
        "type": "t_array(t_uint256)50_storage"
      },
      {
        "astId": 104,
        "contract": "contracts/oracle/ChainlinkPriceFactory.sol:ChainlinkPriceFactory",
        "label": "_owner",
        "offset": 0,
        "slot": "51",
        "type": "t_address"
      },
      {
        "astId": 224,
        "contract": "contracts/oracle/ChainlinkPriceFactory.sol:ChainlinkPriceFactory",
        "label": "__gap",
        "offset": 0,
        "slot": "52",
        "type": "t_array(t_uint256)49_storage"
      },
      {
        "astId": 7138,
        "contract": "contracts/oracle/ChainlinkPriceFactory.sol:ChainlinkPriceFactory",
        "label": "usdAggregators",
        "offset": 0,
        "slot": "101",
        "type": "t_mapping(t_address,t_contract(AggregatorV3Interface)93)"
      },
      {
        "astId": 7144,
        "contract": "contracts/oracle/ChainlinkPriceFactory.sol:ChainlinkPriceFactory",
        "label": "ethAggregators",
        "offset": 0,
        "slot": "102",
        "type": "t_mapping(t_address,t_contract(AggregatorV3Interface)93)"
      }
    ],
    "types": {
      "t_address": {
        "encoding": "inplace",
        "label": "address",
        "numberOfBytes": "20"
      },
      "t_array(t_uint256)49_storage": {
        "base": "t_uint256",
        "encoding": "inplace",
        "label": "uint256[49]",
        "numberOfBytes": "1568"
      },
      "t_array(t_uint256)50_storage": {
        "base": "t_uint256",
        "encoding": "inplace",
        "label": "uint256[50]",
        "numberOfBytes": "1600"
      },
      "t_bool": {
        "encoding": "inplace",
        "label": "bool",
        "numberOfBytes": "1"
      },
      "t_contract(AggregatorV3Interface)93": {
        "encoding": "inplace",
        "label": "contract AggregatorV3Interface",
        "numberOfBytes": "20"
      },
      "t_mapping(t_address,t_contract(AggregatorV3Interface)93)": {
        "encoding": "mapping",
        "key": "t_address",
        "label": "mapping(address => contract AggregatorV3Interface)",
        "numberOfBytes": "32",
        "value": "t_contract(AggregatorV3Interface)93"
      },
      "t_uint256": {
        "encoding": "inplace",
        "label": "uint256",
        "numberOfBytes": "32"
      },
      "t_uint8": {
        "encoding": "inplace",
        "label": "uint8",
        "numberOfBytes": "1"
      }
    }
  }
}