{
  "address": "0xdAa9a5290946640B71751686CB9885a75D649089",
  "abi": [
    {
      "inputs": [
        {
          "internalType": "contract IDropsCompoundingVault",
          "name": "_vault",
          "type": "address"
        },
        {
          "internalType": "contract IDropsOracle",
          "name": "_oracle",
          "type": "address"
        }
      ],
      "stateMutability": "nonpayable",
      "type": "constructor"
    },
    {
      "inputs": [],
      "name": "decimals",
      "outputs": [
        {
          "internalType": "uint8",
          "name": "",
          "type": "uint8"
        }
      ],
      "stateMutability": "pure",
      "type": "function"
    },
    {
      "inputs": [],
      "name": "latestAnswer",
      "outputs": [
        {
          "internalType": "int256",
          "name": "answer",
          "type": "int256"
        }
      ],
      "stateMutability": "view",
      "type": "function"
    },
    {
      "inputs": [],
      "name": "oracle",
      "outputs": [
        {
          "internalType": "contract IDropsOracle",
          "name": "",
          "type": "address"
        }
      ],
      "stateMutability": "view",
      "type": "function"
    },
    {
      "inputs": [],
      "name": "vault",
      "outputs": [
        {
          "internalType": "contract IDropsCompoundingVault",
          "name": "",
          "type": "address"
        }
      ],
      "stateMutability": "view",
      "type": "function"
    }
  ],
  "transactionHash": "0x5c829166b86734ebf911c60b196963fbbd8a64c4ff969a061244668c7a9fad3c",
  "args": [
    "0x83fEE6fFdcc669dB9CCef9Fa452FF0984422d740",
    "0x81e6Add49aEf0772E1985a65fd8611E18BD51540"
  ],
  "solcInputHash": "d41d140aa30b3e8ed213439de19e1c03",
  "bytecode": "0x60c060405234801561001057600080fd5b50604051610833380380610833833981810160405281019061003291906100d1565b8173ffffffffffffffffffffffffffffffffffffffff1660808173ffffffffffffffffffffffffffffffffffffffff1660601b815250508073ffffffffffffffffffffffffffffffffffffffff1660a08173ffffffffffffffffffffffffffffffffffffffff1660601b815250505050610191565b6000815190506100b681610163565b92915050565b6000815190506100cb8161017a565b92915050565b600080604083850312156100e457600080fd5b60006100f2858286016100a7565b9250506020610103858286016100bc565b9150509250929050565b600061011882610143565b9050919050565b600061012a8261010d565b9050919050565b600061013c8261010d565b9050919050565b600073ffffffffffffffffffffffffffffffffffffffff82169050919050565b61016c8161011f565b811461017757600080fd5b50565b61018381610131565b811461018e57600080fd5b50565b60805160601c60a05160601c61066a6101c96000396000818161017d015261023401526000818160df0152610258015261066a6000f3fe608060405234801561001057600080fd5b506004361061004c5760003560e01c8063313ce5671461005157806350d25bcd1461006f5780637dc0d1d01461008d578063fbfa77cf146100ab575b600080fd5b6100596100c9565b6040516100669190610383565b60405180910390f35b6100776100d2565b6040516100849190610368565b60405180910390f35b610095610232565b6040516100a2919061034d565b60405180910390f35b6100b3610256565b6040516100c09190610332565b60405180910390f35b60006012905090565b6000670de0b6b3a76400007f000000000000000000000000000000000000000000000000000000000000000073ffffffffffffffffffffffffffffffffffffffff166377c7b8fc6040518163ffffffff1660e01b815260040160206040518083038186803b15801561014357600080fd5b505afa158015610157573d6000803e3d6000fd5b505050506040513d601f19601f8201168201806040525081019061017b91906102cd565b7f000000000000000000000000000000000000000000000000000000000000000073ffffffffffffffffffffffffffffffffffffffff166350d25bcd6040518163ffffffff1660e01b815260040160206040518083038186803b1580156101e157600080fd5b505afa1580156101f5573d6000803e3d6000fd5b505050506040513d601f19601f8201168201806040525081019061021991906102a4565b6102239190610408565b61022d919061039e565b905090565b7f000000000000000000000000000000000000000000000000000000000000000081565b7f000000000000000000000000000000000000000000000000000000000000000081565b60008151905061028981610606565b92915050565b60008151905061029e8161061d565b92915050565b6000602082840312156102b657600080fd5b60006102c48482850161027a565b91505092915050565b6000602082840312156102df57600080fd5b60006102ed8482850161028f565b91505092915050565b6102ff81610560565b82525050565b61030e81610584565b82525050565b61031d8161051f565b82525050565b61032c81610553565b82525050565b600060208201905061034760008301846102f6565b92915050565b60006020820190506103626000830184610305565b92915050565b600060208201905061037d6000830184610314565b92915050565b60006020820190506103986000830184610323565b92915050565b60006103a98261051f565b91506103b48361051f565b9250826103c4576103c36105d7565b5b600160000383147f8000000000000000000000000000000000000000000000000000000000000000831416156103fd576103fc6105a8565b5b828205905092915050565b60006104138261051f565b915061041e8361051f565b9250827f7fffffffffffffffffffffffffffffffffffffffffffffffffffffffffffffff048211600084136000841316161561045d5761045c6105a8565b5b817f8000000000000000000000000000000000000000000000000000000000000000058312600084126000841316161561049a576104996105a8565b5b827f800000000000000000000000000000000000000000000000000000000000000005821260008413600084121616156104d7576104d66105a8565b5b827f7fffffffffffffffffffffffffffffffffffffffffffffffffffffffffffffff0582126000841260008412161615610514576105136105a8565b5b828202905092915050565b6000819050919050565b600073ffffffffffffffffffffffffffffffffffffffff82169050919050565b6000819050919050565b600060ff82169050919050565b600061056b82610572565b9050919050565b600061057d82610529565b9050919050565b600061058f82610596565b9050919050565b60006105a182610529565b9050919050565b7f4e487b7100000000000000000000000000000000000000000000000000000000600052601160045260246000fd5b7f4e487b7100000000000000000000000000000000000000000000000000000000600052601260045260246000fd5b61060f8161051f565b811461061a57600080fd5b50565b61062681610549565b811461063157600080fd5b5056fea26469706673582212209215c201e5e8c662b2b0140d87e0b25cc277bff3af74f5703d2330ae5a1ccd7264736f6c63430008040033",
  "devdoc": {
    "kind": "dev",
    "methods": {},
    "title": "compouding vault erc20 token's price oracle",
    "version": 1
  },
  "userdoc": {
    "kind": "user",
    "methods": {
      "oracle()": {
        "notice": "address to the oracle of balancer LP"
      },
      "vault()": {
        "notice": "address to the compouding vault"
      }
    },
    "version": 1
  },
  "storageLayout": {
    "storage": [],
    "types": null
  }
}