{
  "address": "0xb746ECdA2e5AE4a9C9399c5cD76EBf97f95Bb280",
  "abi": [
    {
      "inputs": [
        {
          "internalType": "contract IDropsCompoundingVault",
          "name": "_vault",
          "type": "address"
        },
        {
          "internalType": "contract IDropsOracle",
          "name": "_oracle",
          "type": "address"
        },
        {
          "internalType": "string",
          "name": "_description",
          "type": "string"
        }
      ],
      "stateMutability": "nonpayable",
      "type": "constructor"
    },
    {
      "inputs": [],
      "name": "decimals",
      "outputs": [
        {
          "internalType": "uint8",
          "name": "",
          "type": "uint8"
        }
      ],
      "stateMutability": "pure",
      "type": "function"
    },
    {
      "inputs": [],
      "name": "description",
      "outputs": [
        {
          "internalType": "string",
          "name": "",
          "type": "string"
        }
      ],
      "stateMutability": "view",
      "type": "function"
    },
    {
      "inputs": [],
      "name": "latestAnswer",
      "outputs": [
        {
          "internalType": "int256",
          "name": "answer",
          "type": "int256"
        }
      ],
      "stateMutability": "view",
      "type": "function"
    },
    {
      "inputs": [],
      "name": "oracle",
      "outputs": [
        {
          "internalType": "contract IDropsOracle",
          "name": "",
          "type": "address"
        }
      ],
      "stateMutability": "view",
      "type": "function"
    },
    {
      "inputs": [],
      "name": "vault",
      "outputs": [
        {
          "internalType": "contract IDropsCompoundingVault",
          "name": "",
          "type": "address"
        }
      ],
      "stateMutability": "view",
      "type": "function"
    }
  ],
  "transactionHash": "0x788deb184aa08ad99eb2d5f8b32468c4352bed20b7609f3ca098a1e66d401279",
  "args": [
    "0x83fEE6fFdcc669dB9CCef9Fa452FF0984422d740",
    "0x79edCDB9C581b6945F321F2cd6B307a257113DEE",
    "Drops rETH-WETH vault oracle"
  ],
  "solcInputHash": "491801815192101947cce21af654f89b",
  "bytecode": "0x60c06040523480156200001157600080fd5b5060405162000cfd38038062000cfd833981810160405281019062000037919062000217565b8273ffffffffffffffffffffffffffffffffffffffff1660808173ffffffffffffffffffffffffffffffffffffffff1660601b815250508173ffffffffffffffffffffffffffffffffffffffff1660a08173ffffffffffffffffffffffffffffffffffffffff1660601b815250508060009080519060200190620000bd929190620000c7565b5050505062000486565b828054620000d59062000377565b90600052602060002090601f016020900481019282620000f9576000855562000145565b82601f106200011457805160ff191683800117855562000145565b8280016001018555821562000145579182015b828111156200014457825182559160200191906001019062000127565b5b50905062000154919062000158565b5090565b5b808211156200017357600081600090555060010162000159565b5090565b60006200018e6200018884620002af565b62000286565b905082815260208101848484011115620001a757600080fd5b620001b484828562000341565b509392505050565b600081519050620001cd8162000452565b92915050565b600081519050620001e4816200046c565b92915050565b600082601f830112620001fc57600080fd5b81516200020e84826020860162000177565b91505092915050565b6000806000606084860312156200022d57600080fd5b60006200023d86828701620001bc565b93505060206200025086828701620001d3565b925050604084015167ffffffffffffffff8111156200026e57600080fd5b6200027c86828701620001ea565b9150509250925092565b600062000292620002a5565b9050620002a08282620003ad565b919050565b6000604051905090565b600067ffffffffffffffff821115620002cd57620002cc62000412565b5b620002d88262000441565b9050602081019050919050565b6000620002f28262000321565b9050919050565b60006200030682620002e5565b9050919050565b60006200031a82620002e5565b9050919050565b600073ffffffffffffffffffffffffffffffffffffffff82169050919050565b60005b838110156200036157808201518184015260208101905062000344565b8381111562000371576000848401525b50505050565b600060028204905060018216806200039057607f821691505b60208210811415620003a757620003a6620003e3565b5b50919050565b620003b88262000441565b810181811067ffffffffffffffff82111715620003da57620003d962000412565b5b80604052505050565b7f4e487b7100000000000000000000000000000000000000000000000000000000600052602260045260246000fd5b7f4e487b7100000000000000000000000000000000000000000000000000000000600052604160045260246000fd5b6000601f19601f8301169050919050565b6200045d81620002f9565b81146200046957600080fd5b50565b62000477816200030d565b81146200048357600080fd5b50565b60805160601c60a05160601c61083d620004c0600039600081816101a601526102eb015260008181610108015261030f015261083d6000f3fe608060405234801561001057600080fd5b50600436106100575760003560e01c8063313ce5671461005c57806350d25bcd1461007a5780637284e416146100985780637dc0d1d0146100b6578063fbfa77cf146100d4575b600080fd5b6100646100f2565b6040516100719190610495565b60405180910390f35b6100826100fb565b60405161008f9190610458565b60405180910390f35b6100a061025b565b6040516100ad9190610473565b60405180910390f35b6100be6102e9565b6040516100cb919061043d565b60405180910390f35b6100dc61030d565b6040516100e99190610422565b60405180910390f35b60006012905090565b6000670de0b6b3a76400007f000000000000000000000000000000000000000000000000000000000000000073ffffffffffffffffffffffffffffffffffffffff166377c7b8fc6040518163ffffffff1660e01b815260040160206040518083038186803b15801561016c57600080fd5b505afa158015610180573d6000803e3d6000fd5b505050506040513d601f19601f820116820180604052508101906101a49190610384565b7f000000000000000000000000000000000000000000000000000000000000000073ffffffffffffffffffffffffffffffffffffffff166350d25bcd6040518163ffffffff1660e01b815260040160206040518083038186803b15801561020a57600080fd5b505afa15801561021e573d6000803e3d6000fd5b505050506040513d601f19601f82011682018060405250810190610242919061035b565b61024c9190610536565b61025691906104cc565b905090565b6000805461026890610709565b80601f016020809104026020016040519081016040528092919081815260200182805461029490610709565b80156102e15780601f106102b6576101008083540402835291602001916102e1565b820191906000526020600020905b8154815290600101906020018083116102c457829003601f168201915b505050505081565b7f000000000000000000000000000000000000000000000000000000000000000081565b7f000000000000000000000000000000000000000000000000000000000000000081565b600081519050610340816107d9565b92915050565b600081519050610355816107f0565b92915050565b60006020828403121561036d57600080fd5b600061037b84828501610331565b91505092915050565b60006020828403121561039657600080fd5b60006103a484828501610346565b91505092915050565b6103b68161068e565b82525050565b6103c5816106b2565b82525050565b6103d48161064d565b82525050565b60006103e5826104b0565b6103ef81856104bb565b93506103ff8185602086016106d6565b610408816107c8565b840191505092915050565b61041c81610681565b82525050565b600060208201905061043760008301846103ad565b92915050565b600060208201905061045260008301846103bc565b92915050565b600060208201905061046d60008301846103cb565b92915050565b6000602082019050818103600083015261048d81846103da565b905092915050565b60006020820190506104aa6000830184610413565b92915050565b600081519050919050565b600082825260208201905092915050565b60006104d78261064d565b91506104e28361064d565b9250826104f2576104f161076a565b5b600160000383147f80000000000000000000000000000000000000000000000000000000000000008314161561052b5761052a61073b565b5b828205905092915050565b60006105418261064d565b915061054c8361064d565b9250827f7fffffffffffffffffffffffffffffffffffffffffffffffffffffffffffffff048211600084136000841316161561058b5761058a61073b565b5b817f800000000000000000000000000000000000000000000000000000000000000005831260008412600084131616156105c8576105c761073b565b5b827f800000000000000000000000000000000000000000000000000000000000000005821260008413600084121616156106055761060461073b565b5b827f7fffffffffffffffffffffffffffffffffffffffffffffffffffffffffffffff05821260008412600084121616156106425761064161073b565b5b828202905092915050565b6000819050919050565b600073ffffffffffffffffffffffffffffffffffffffff82169050919050565b6000819050919050565b600060ff82169050919050565b6000610699826106a0565b9050919050565b60006106ab82610657565b9050919050565b60006106bd826106c4565b9050919050565b60006106cf82610657565b9050919050565b60005b838110156106f45780820151818401526020810190506106d9565b83811115610703576000848401525b50505050565b6000600282049050600182168061072157607f821691505b6020821081141561073557610734610799565b5b50919050565b7f4e487b7100000000000000000000000000000000000000000000000000000000600052601160045260246000fd5b7f4e487b7100000000000000000000000000000000000000000000000000000000600052601260045260246000fd5b7f4e487b7100000000000000000000000000000000000000000000000000000000600052602260045260246000fd5b6000601f19601f8301169050919050565b6107e28161064d565b81146107ed57600080fd5b50565b6107f981610677565b811461080457600080fd5b5056fea26469706673582212201bdf4c47a8d78fd0a49a0666d4f4acbe9333e46315edff5242c9d9685e823dc664736f6c63430008040033",
  "devdoc": {
    "kind": "dev",
    "methods": {},
    "title": "compouding vault erc20 token's price oracle",
    "version": 1
  },
  "userdoc": {
    "kind": "user",
    "methods": {
      "description()": {
        "notice": "description of the oracle"
      },
      "oracle()": {
        "notice": "address to the oracle of balancer LP"
      },
      "vault()": {
        "notice": "address to the compouding vault"
      }
    },
    "version": 1
  },
  "storageLayout": {
    "storage": [
      {
        "astId": 186,
        "contract": "contracts/oracle/priceAggregators/CompoudingVaultOracle.sol:CompoudingVaultOracle",
        "label": "description",
        "offset": 0,
        "slot": "0",
        "type": "t_string_storage"
      }
    ],
    "types": {
      "t_string_storage": {
        "encoding": "bytes",
        "label": "string",
        "numberOfBytes": "32"
      }
    }
  }
}