{
  "address": "0x7123f51A571A5F0c48208A2CB86362C44C0f9a0E",
  "abi": [
    {
      "inputs": [
        {
          "internalType": "contract IChainlinkPriceFactory",
          "name": "_factory",
          "type": "address"
        },
        {
          "internalType": "contract IGOHM",
          "name": "_gOHM",
          "type": "address"
        },
        {
          "internalType": "address",
          "name": "_OHM",
          "type": "address"
        }
      ],
      "stateMutability": "nonpayable",
      "type": "constructor"
    },
    {
      "inputs": [],
      "name": "OHM",
      "outputs": [
        {
          "internalType": "address",
          "name": "",
          "type": "address"
        }
      ],
      "stateMutability": "view",
      "type": "function"
    },
    {
      "inputs": [],
      "name": "decimals",
      "outputs": [
        {
          "internalType": "uint8",
          "name": "",
          "type": "uint8"
        }
      ],
      "stateMutability": "pure",
      "type": "function"
    },
    {
      "inputs": [],
      "name": "factory",
      "outputs": [
        {
          "internalType": "contract IChainlinkPriceFactory",
          "name": "",
          "type": "address"
        }
      ],
      "stateMutability": "view",
      "type": "function"
    },
    {
      "inputs": [],
      "name": "gOHM",
      "outputs": [
        {
          "internalType": "contract IGOHM",
          "name": "",
          "type": "address"
        }
      ],
      "stateMutability": "view",
      "type": "function"
    },
    {
      "inputs": [],
      "name": "latestAnswer",
      "outputs": [
        {
          "internalType": "int256",
          "name": "answer",
          "type": "int256"
        }
      ],
      "stateMutability": "view",
      "type": "function"
    }
  ],
  "transactionHash": "0xc2e47dba92db82927b00630d9b078e85d83bd41eee6bc7c9ff7336ff2507dc1d",
  "args": [
    "0x4148D2220511d3521E232ff0F6369a14A9737c9A",
    "0x0ab87046fbb341d058f17cbc4c1133f25a20a52f",
    "0x64aa3364f17a4d01c6f1751fd97c2bd3d7e7f1d5"
  ],
  "solcInputHash": "cba0662159ce2364ff38c42bb4e812a0",
  "bytecode": "0x60e060405234801561001057600080fd5b5060405161093d38038061093d8339818101604052810190610032919061011e565b8273ffffffffffffffffffffffffffffffffffffffff1660808173ffffffffffffffffffffffffffffffffffffffff1660601b815250508173ffffffffffffffffffffffffffffffffffffffff1660a08173ffffffffffffffffffffffffffffffffffffffff1660601b815250508073ffffffffffffffffffffffffffffffffffffffff1660c08173ffffffffffffffffffffffffffffffffffffffff1660601b81525050505050610208565b6000815190506100ee816101c3565b92915050565b600081519050610103816101da565b92915050565b600081519050610118816101f1565b92915050565b60008060006060848603121561013357600080fd5b6000610141868287016100f4565b935050602061015286828701610109565b9250506040610163868287016100df565b9150509250925092565b6000610178826101a3565b9050919050565b600061018a8261016d565b9050919050565b600061019c8261016d565b9050919050565b600073ffffffffffffffffffffffffffffffffffffffff82169050919050565b6101cc8161016d565b81146101d757600080fd5b50565b6101e38161017f565b81146101ee57600080fd5b50565b6101fa81610191565b811461020557600080fd5b50565b60805160601c60a05160601c60c05160601c6106e96102546000396000818161016001526102f001526000818160f40152610237015260008181610124015261031401526106e96000f3fe608060405234801561001057600080fd5b50600436106100575760003560e01c80630cd305851461005c578063313ce5671461007a57806350d25bcd14610098578063a6c41fec146100b6578063c45a0155146100d4575b600080fd5b6100646100f2565b6040516100719190610456565b60405180910390f35b610082610116565b60405161008f91906104ac565b60405180910390f35b6100a061011f565b6040516100ad9190610471565b60405180910390f35b6100be6102ee565b6040516100cb9190610420565b60405180910390f35b6100dc610312565b6040516100e9919061043b565b60405180910390f35b7f000000000000000000000000000000000000000000000000000000000000000081565b60006012905090565b6000807f000000000000000000000000000000000000000000000000000000000000000073ffffffffffffffffffffffffffffffffffffffff166397cecb257f00000000000000000000000000000000000000000000000000000000000000006040518263ffffffff1660e01b815260040161019b9190610420565b60206040518083038186803b1580156101b357600080fd5b505afa1580156101c7573d6000803e3d6000fd5b505050506040513d601f19601f820116820180604052508101906101eb9190610360565b905060008111610230576040517f08c379a00000000000000000000000000000000000000000000000000000000081526004016102279061048c565b60405180910390fd5b633b9aca007f000000000000000000000000000000000000000000000000000000000000000073ffffffffffffffffffffffffffffffffffffffff16632986c0e56040518163ffffffff1660e01b815260040160206040518083038186803b15801561029b57600080fd5b505afa1580156102af573d6000803e3d6000fd5b505050506040513d601f19601f820116820180604052508101906102d39190610389565b826102de9190610509565b6102e891906104d8565b91505090565b7f000000000000000000000000000000000000000000000000000000000000000081565b7f000000000000000000000000000000000000000000000000000000000000000081565b60008151905061034581610685565b92915050565b60008151905061035a8161069c565b92915050565b60006020828403121561037257600080fd5b600061038084828501610336565b91505092915050565b60006020828403121561039b57600080fd5b60006103a98482850161034b565b91505092915050565b6103bb81610563565b82525050565b6103ca816105b6565b82525050565b6103d9816105da565b82525050565b6103e881610575565b82525050565b60006103fb600b836104c7565b91506104068261065c565b602082019050919050565b61041a816105a9565b82525050565b600060208201905061043560008301846103b2565b92915050565b600060208201905061045060008301846103c1565b92915050565b600060208201905061046b60008301846103d0565b92915050565b600060208201905061048660008301846103df565b92915050565b600060208201905081810360008301526104a5816103ee565b9050919050565b60006020820190506104c16000830184610411565b92915050565b600082825260208201905092915050565b60006104e38261059f565b91506104ee8361059f565b9250826104fe576104fd61062d565b5b828204905092915050565b60006105148261059f565b915061051f8361059f565b9250817fffffffffffffffffffffffffffffffffffffffffffffffffffffffffffffffff0483118215151615610558576105576105fe565b5b828202905092915050565b600061056e8261057f565b9050919050565b6000819050919050565b600073ffffffffffffffffffffffffffffffffffffffff82169050919050565b6000819050919050565b600060ff82169050919050565b60006105c1826105c8565b9050919050565b60006105d38261057f565b9050919050565b60006105e5826105ec565b9050919050565b60006105f78261057f565b9050919050565b7f4e487b7100000000000000000000000000000000000000000000000000000000600052601160045260246000fd5b7f4e487b7100000000000000000000000000000000000000000000000000000000600052601260045260246000fd5b7f2161676772656761746f72000000000000000000000000000000000000000000600082015250565b61068e81610575565b811461069957600080fd5b50565b6106a58161059f565b81146106b057600080fd5b5056fea264697066735822122047e75ab484319fed388e6608a2598c215961c32cccfaca18d20b722ad95f6f5864736f6c63430008040033",
  "devdoc": {
    "kind": "dev",
    "methods": {},
    "title": "OHM governance token price oracle",
    "version": 1
  },
  "userdoc": {
    "kind": "user",
    "methods": {
      "OHM()": {
        "notice": "address to the OHMV2 token"
      },
      "factory()": {
        "notice": "address to the price factory"
      },
      "gOHM()": {
        "notice": "address to the OHM governance"
      }
    },
    "version": 1
  },
  "storageLayout": {
    "storage": [],
    "types": null
  }
}