{
  "address": "0xF5942D3594C7647804afF817EFd0d2Aea5A6A518",
  "abi": [
    {
      "inputs": [],
      "stateMutability": "nonpayable",
      "type": "constructor"
    },
    {
      "anonymous": false,
      "inputs": [
        {
          "indexed": true,
          "internalType": "address",
          "name": "from",
          "type": "address"
        },
        {
          "indexed": true,
          "internalType": "address",
          "name": "asset",
          "type": "address"
        },
        {
          "indexed": false,
          "internalType": "uint256",
          "name": "amount",
          "type": "uint256"
        }
      ],
      "name": "LogWithdraw",
      "type": "event"
    },
    {
      "anonymous": false,
      "inputs": [
        {
          "indexed": false,
          "internalType": "address",
          "name": "manager",
          "type": "address"
        },
        {
          "indexed": false,
          "internalType": "bool",
          "name": "status",
          "type": "bool"
        }
      ],
      "name": "ManagerSet",
      "type": "event"
    },
    {
      "anonymous": false,
      "inputs": [
        {
          "indexed": false,
          "internalType": "address[]",
          "name": "oracleList",
          "type": "address[]"
        },
        {
          "indexed": false,
          "internalType": "bool[]",
          "name": "statusList",
          "type": "bool[]"
        }
      ],
      "name": "OraclesSet",
      "type": "event"
    },
    {
      "anonymous": false,
      "inputs": [
        {
          "indexed": true,
          "internalType": "address",
          "name": "previousOwner",
          "type": "address"
        },
        {
          "indexed": true,
          "internalType": "address",
          "name": "newOwner",
          "type": "address"
        }
      ],
      "name": "OwnershipTransferred",
      "type": "event"
    },
    {
      "anonymous": false,
      "inputs": [
        {
          "indexed": false,
          "internalType": "address[]",
          "name": "oracleList",
          "type": "address[]"
        },
        {
          "indexed": false,
          "internalType": "int256[]",
          "name": "prices",
          "type": "int256[]"
        },
        {
          "indexed": false,
          "internalType": "uint256",
          "name": "timestamp",
          "type": "uint256"
        }
      ],
      "name": "PricesSubmitted",
      "type": "event"
    },
    {
      "anonymous": false,
      "inputs": [
        {
          "indexed": false,
          "internalType": "int256",
          "name": "min",
          "type": "int256"
        },
        {
          "indexed": false,
          "internalType": "int256",
          "name": "max",
          "type": "int256"
        }
      ],
      "name": "RateSet",
      "type": "event"
    },
    {
      "inputs": [
        {
          "internalType": "address[]",
          "name": "oracles",
          "type": "address[]"
        },
        {
          "internalType": "int256[]",
          "name": "prices",
          "type": "int256[]"
        }
      ],
      "name": "batchUpdate",
      "outputs": [],
      "stateMutability": "nonpayable",
      "type": "function"
    },
    {
      "inputs": [
        {
          "internalType": "address",
          "name": "oracle",
          "type": "address"
        }
      ],
      "name": "getUpdateAvailablePriceRange",
      "outputs": [
        {
          "internalType": "bool",
          "name": "isSupport",
          "type": "bool"
        },
        {
          "internalType": "int256",
          "name": "minPrice",
          "type": "int256"
        },
        {
          "internalType": "int256",
          "name": "maxPrice",
          "type": "int256"
        },
        {
          "internalType": "uint256",
          "name": "nextRound",
          "type": "uint256"
        }
      ],
      "stateMutability": "view",
      "type": "function"
    },
    {
      "inputs": [
        {
          "internalType": "address",
          "name": "",
          "type": "address"
        }
      ],
      "name": "isManager",
      "outputs": [
        {
          "internalType": "bool",
          "name": "",
          "type": "bool"
        }
      ],
      "stateMutability": "view",
      "type": "function"
    },
    {
      "inputs": [],
      "name": "maxChangeRate",
      "outputs": [
        {
          "internalType": "int256",
          "name": "",
          "type": "int256"
        }
      ],
      "stateMutability": "view",
      "type": "function"
    },
    {
      "inputs": [],
      "name": "minChangeRate",
      "outputs": [
        {
          "internalType": "int256",
          "name": "",
          "type": "int256"
        }
      ],
      "stateMutability": "view",
      "type": "function"
    },
    {
      "inputs": [],
      "name": "owner",
      "outputs": [
        {
          "internalType": "address",
          "name": "",
          "type": "address"
        }
      ],
      "stateMutability": "view",
      "type": "function"
    },
    {
      "inputs": [],
      "name": "renounceOwnership",
      "outputs": [],
      "stateMutability": "nonpayable",
      "type": "function"
    },
    {
      "inputs": [
        {
          "internalType": "address",
          "name": "manager",
          "type": "address"
        },
        {
          "internalType": "bool",
          "name": "status",
          "type": "bool"
        }
      ],
      "name": "setManager",
      "outputs": [],
      "stateMutability": "nonpayable",
      "type": "function"
    },
    {
      "inputs": [
        {
          "internalType": "address[]",
          "name": "oracles",
          "type": "address[]"
        },
        {
          "internalType": "bool[]",
          "name": "statusList",
          "type": "bool[]"
        }
      ],
      "name": "setOracles",
      "outputs": [],
      "stateMutability": "nonpayable",
      "type": "function"
    },
    {
      "inputs": [
        {
          "internalType": "int256",
          "name": "min",
          "type": "int256"
        },
        {
          "internalType": "int256",
          "name": "max",
          "type": "int256"
        }
      ],
      "name": "setRate",
      "outputs": [],
      "stateMutability": "nonpayable",
      "type": "function"
    },
    {
      "inputs": [
        {
          "internalType": "address",
          "name": "",
          "type": "address"
        }
      ],
      "name": "supportOracles",
      "outputs": [
        {
          "internalType": "bool",
          "name": "",
          "type": "bool"
        }
      ],
      "stateMutability": "view",
      "type": "function"
    },
    {
      "inputs": [
        {
          "internalType": "address",
          "name": "newOwner",
          "type": "address"
        }
      ],
      "name": "transferOwnership",
      "outputs": [],
      "stateMutability": "nonpayable",
      "type": "function"
    },
    {
      "inputs": [
        {
          "internalType": "address",
          "name": "asset",
          "type": "address"
        },
        {
          "internalType": "address",
          "name": "receiver",
          "type": "address"
        }
      ],
      "name": "withdraw",
      "outputs": [],
      "stateMutability": "nonpayable",
      "type": "function"
    }
  ],
  "transactionHash": "0x0c72cd43cab4aeeedc2fef572f13981a716f2a1154d4f1438728f3197d630681",
  "args": [],
  "solcInputHash": "244466d260f84032ac93682abc5bcdab",
  "bytecode": "0x608060405234801561001057600080fd5b5061002d61002261004460201b60201c565b61004c60201b60201c565b61012c60038190555061012c600481905550610110565b600033905090565b60008060009054906101000a900473ffffffffffffffffffffffffffffffffffffffff169050816000806101000a81548173ffffffffffffffffffffffffffffffffffffffff021916908373ffffffffffffffffffffffffffffffffffffffff1602179055508173ffffffffffffffffffffffffffffffffffffffff168173ffffffffffffffffffffffffffffffffffffffff167f8be0079c531659141344cd1fd0a4f28419497f9722a3daafe3b4186f6b6457e060405160405180910390a35050565b61241880620001206000396000f3fe608060405234801561001057600080fd5b50600436106100cf5760003560e01c8063ac4b81d31161008c578063e1f95e4511610066578063e1f95e45146101ed578063f2fde38b1461020b578063f3ae241514610227578063f940e38514610257576100cf565b8063ac4b81d31461016e578063ba544ced146101a1578063bfe402f4146101d1576100cf565b806313364508146100d457806348971acd146100f0578063715018a61461010c57806385faf624146101165780638da5cb5b14610134578063a5e90eee14610152575b600080fd5b6100ee60048036038101906100e9919061145a565b610273565b005b61010a600480360381019061010591906114c6565b6103f3565b005b61011461073b565b005b61011e61074f565b60405161012b9190611ab9565b60405180910390f35b61013c610755565b6040516101499190611970565b60405180910390f35b61016c6004803603810190610167919061141e565b61077e565b005b610188600480360381019061018391906113b9565b61081a565b6040516101989493929190611a74565b60405180910390f35b6101bb60048036038101906101b691906113b9565b6109bf565b6040516101c89190611a59565b60405180910390f35b6101eb60048036038101906101e69190611584565b6109df565b005b6101f5610a9f565b6040516102029190611ab9565b60405180910390f35b610225600480360381019061022091906113b9565b610aa5565b005b610241600480360381019061023c91906113b9565b610b29565b60405161024e9190611a59565b60405180910390f35b610271600480360381019061026c91906113e2565b610b49565b005b61027b610d14565b80518251146102bf576040517f08c379a00000000000000000000000000000000000000000000000000000000081526004016102b690611c1f565b60405180910390fd5b60005b82518110156103b557818181518110610304577f4e487b7100000000000000000000000000000000000000000000000000000000600052603260045260246000fd5b602002602001015160016000858481518110610349577f4e487b7100000000000000000000000000000000000000000000000000000000600052603260045260246000fd5b602002602001015173ffffffffffffffffffffffffffffffffffffffff1673ffffffffffffffffffffffffffffffffffffffff16815260200190815260200160002060006101000a81548160ff02191690831515021790555080806103ad90612096565b9150506102c2565b507feb256ec3927d5d5812547681f0cec38acd12c94205e0a4b586cb989c57df0cee82826040516103e79291906119dd565b60405180910390a15050565b600260003373ffffffffffffffffffffffffffffffffffffffff1673ffffffffffffffffffffffffffffffffffffffff16815260200190815260200160002060009054906101000a900460ff1680610484575061044e610d92565b73ffffffffffffffffffffffffffffffffffffffff1661046c610755565b73ffffffffffffffffffffffffffffffffffffffff16145b6104c3576040517f08c379a00000000000000000000000000000000000000000000000000000000081526004016104ba90611bbf565b60405180910390fd5b8051825114610507576040517f08c379a00000000000000000000000000000000000000000000000000000000081526004016104fe90611b7f565b60405180910390fd5b60005b82518110156106fb57600083828151811061054e577f4e487b7100000000000000000000000000000000000000000000000000000000600052603260045260246000fd5b60200260200101519050600160008273ffffffffffffffffffffffffffffffffffffffff1673ffffffffffffffffffffffffffffffffffffffff16815260200190815260200160002060009054906101000a900460ff16156106e75760008173ffffffffffffffffffffffffffffffffffffffff1663668a0f026040518163ffffffff1660e01b815260040160206040518083038186803b1580156105f257600080fd5b505afa158015610606573d6000803e3d6000fd5b505050506040513d601f19601f8201168201806040525081019061062a91906115c0565b90508173ffffffffffffffffffffffffffffffffffffffff1663202ee0ed6001836106559190611e09565b86868151811061068e577f4e487b7100000000000000000000000000000000000000000000000000000000600052603260045260246000fd5b60200260200101516040518363ffffffff1660e01b81526004016106b3929190611c5a565b600060405180830381600087803b1580156106cd57600080fd5b505af11580156106e1573d6000803e3d6000fd5b50505050505b5080806106f390612096565b91505061050a565b507f8497944601feab42f42de752a3f83e454989ea3f827513babfbc7910781eb2fe82824260405161072f93929190611a14565b60405180910390a15050565b610743610d14565b61074d6000610d9a565b565b60045481565b60008060009054906101000a900473ffffffffffffffffffffffffffffffffffffffff16905090565b610786610d14565b80600260008473ffffffffffffffffffffffffffffffffffffffff1673ffffffffffffffffffffffffffffffffffffffff16815260200190815260200160002060006101000a81548160ff0219169083151502179055507fff83ce179bad4fbdb0e98074011487cde624295a52d8189d92d5d8b06c914eda828260405161080e92919061198b565b60405180910390a15050565b60008060008060008573ffffffffffffffffffffffffffffffffffffffff166350d25bcd6040518163ffffffff1660e01b815260040160206040518083038186803b15801561086857600080fd5b505afa15801561087c573d6000803e3d6000fd5b505050506040513d601f19601f820116820180604052508101906108a0919061155b565b90506103e8600354826108b39190611ec9565b6108bd9190611e5f565b93506103e8600454826108d09190611ec9565b6108da9190611e5f565b925060018673ffffffffffffffffffffffffffffffffffffffff1663668a0f026040518163ffffffff1660e01b815260040160206040518083038186803b15801561092457600080fd5b505afa158015610938573d6000803e3d6000fd5b505050506040513d601f19601f8201168201806040525081019061095c91906115c0565b6109669190611e09565b9150600160008773ffffffffffffffffffffffffffffffffffffffff1673ffffffffffffffffffffffffffffffffffffffff16815260200190815260200160002060009054906101000a900460ff169450509193509193565b60016020528060005260406000206000915054906101000a900460ff1681565b6109e7610d14565b6000821380156109f857506103e882125b8015610a045750600081135b8015610a1157506103e881125b610a50576040517f08c379a0000000000000000000000000000000000000000000000000000000008152600401610a4790611b1f565b60405180910390fd5b81600381905550806004819055507f1c393c49b54f486a33825e7b6383870c1e1fb1b2d8a480de3eb2286ba8e60bee600354600454604051610a93929190611ad4565b60405180910390a15050565b60035481565b610aad610d14565b600073ffffffffffffffffffffffffffffffffffffffff168173ffffffffffffffffffffffffffffffffffffffff161415610b1d576040517f08c379a0000000000000000000000000000000000000000000000000000000008152600401610b1490611b3f565b60405180910390fd5b610b2681610d9a565b50565b60026020528060005260406000206000915054906101000a900460ff1681565b610b51610d14565b60008073ffffffffffffffffffffffffffffffffffffffff168373ffffffffffffffffffffffffffffffffffffffff161415610bf35760003090508073ffffffffffffffffffffffffffffffffffffffff163191508273ffffffffffffffffffffffffffffffffffffffff166108fc839081150290604051600060405180830381858888f19350505050158015610bec573d6000803e3d6000fd5b5050610caa565b8273ffffffffffffffffffffffffffffffffffffffff166370a08231306040518263ffffffff1660e01b8152600401610c2c9190611970565b60206040518083038186803b158015610c4457600080fd5b505afa158015610c58573d6000803e3d6000fd5b505050506040513d601f19601f82011682018060405250810190610c7c91906115c0565b9050610ca982828573ffffffffffffffffffffffffffffffffffffffff16610e5e9092919063ffffffff16565b5b8273ffffffffffffffffffffffffffffffffffffffff168273ffffffffffffffffffffffffffffffffffffffff167f9207361cc2a04b9c7a06691df1eb87c6a63957ae88bf01d0d18c81e3d127209983604051610d079190611c3f565b60405180910390a3505050565b610d1c610d92565b73ffffffffffffffffffffffffffffffffffffffff16610d3a610755565b73ffffffffffffffffffffffffffffffffffffffff1614610d90576040517f08c379a0000000000000000000000000000000000000000000000000000000008152600401610d8790611b9f565b60405180910390fd5b565b600033905090565b60008060009054906101000a900473ffffffffffffffffffffffffffffffffffffffff169050816000806101000a81548173ffffffffffffffffffffffffffffffffffffffff021916908373ffffffffffffffffffffffffffffffffffffffff1602179055508173ffffffffffffffffffffffffffffffffffffffff168173ffffffffffffffffffffffffffffffffffffffff167f8be0079c531659141344cd1fd0a4f28419497f9722a3daafe3b4186f6b6457e060405160405180910390a35050565b610edf8363a9059cbb60e01b8484604051602401610e7d9291906119b4565b604051602081830303815290604052907bffffffffffffffffffffffffffffffffffffffffffffffffffffffff19166020820180517bffffffffffffffffffffffffffffffffffffffffffffffffffffffff8381831617835250505050610ee4565b505050565b6000610f46826040518060400160405280602081526020017f5361666545524332303a206c6f772d6c6576656c2063616c6c206661696c65648152508573ffffffffffffffffffffffffffffffffffffffff16610fab9092919063ffffffff16565b9050600081511115610fa65780806020019051810190610f669190611532565b610fa5576040517f08c379a0000000000000000000000000000000000000000000000000000000008152600401610f9c90611bff565b60405180910390fd5b5b505050565b6060610fba8484600085610fc3565b90509392505050565b606082471015611008576040517f08c379a0000000000000000000000000000000000000000000000000000000008152600401610fff90611b5f565b60405180910390fd5b6000808673ffffffffffffffffffffffffffffffffffffffff1685876040516110319190611959565b60006040518083038185875af1925050503d806000811461106e576040519150601f19603f3d011682016040523d82523d6000602084013e611073565b606091505b509150915061108487838387611090565b92505050949350505050565b606083156110f3576000835114156110eb576110ab85611106565b6110ea576040517f08c379a00000000000000000000000000000000000000000000000000000000081526004016110e190611bdf565b60405180910390fd5b5b8290506110fe565b6110fd8383611129565b5b949350505050565b6000808273ffffffffffffffffffffffffffffffffffffffff163b119050919050565b60008251111561113c5781518083602001fd5b806040517f08c379a00000000000000000000000000000000000000000000000000000000081526004016111709190611afd565b60405180910390fd5b600061118c61118784611ca8565b611c83565b905080838252602082019050828560208602820111156111ab57600080fd5b60005b858110156111db57816111c188826112bd565b8452602084019350602083019250506001810190506111ae565b5050509392505050565b60006111f86111f384611cd4565b611c83565b9050808382526020820190508285602086028201111561121757600080fd5b60005b85811015611247578161122d8882611350565b84526020840193506020830192505060018101905061121a565b5050509392505050565b600061126461125f84611d00565b611c83565b9050808382526020820190508285602086028201111561128357600080fd5b60005b858110156112b35781611299888261137a565b845260208401935060208301925050600181019050611286565b5050509392505050565b6000813590506112cc81612386565b92915050565b600082601f8301126112e357600080fd5b81356112f3848260208601611179565b91505092915050565b600082601f83011261130d57600080fd5b813561131d8482602086016111e5565b91505092915050565b600082601f83011261133757600080fd5b8135611347848260208601611251565b91505092915050565b60008135905061135f8161239d565b92915050565b6000815190506113748161239d565b92915050565b600081359050611389816123b4565b92915050565b60008151905061139e816123b4565b92915050565b6000815190506113b3816123cb565b92915050565b6000602082840312156113cb57600080fd5b60006113d9848285016112bd565b91505092915050565b600080604083850312156113f557600080fd5b6000611403858286016112bd565b9250506020611414858286016112bd565b9150509250929050565b6000806040838503121561143157600080fd5b600061143f858286016112bd565b925050602061145085828601611350565b9150509250929050565b6000806040838503121561146d57600080fd5b600083013567ffffffffffffffff81111561148757600080fd5b611493858286016112d2565b925050602083013567ffffffffffffffff8111156114b057600080fd5b6114bc858286016112fc565b9150509250929050565b600080604083850312156114d957600080fd5b600083013567ffffffffffffffff8111156114f357600080fd5b6114ff858286016112d2565b925050602083013567ffffffffffffffff81111561151c57600080fd5b61152885828601611326565b9150509250929050565b60006020828403121561154457600080fd5b600061155284828501611365565b91505092915050565b60006020828403121561156d57600080fd5b600061157b8482850161138f565b91505092915050565b6000806040838503121561159757600080fd5b60006115a58582860161137a565b92505060206115b68582860161137a565b9150509250929050565b6000602082840312156115d257600080fd5b60006115e0848285016113a4565b91505092915050565b60006115f58383611631565b60208301905092915050565b600061160d8383611769565b60208301905092915050565b600061162583836117b8565b60208301905092915050565b61163a81611fe0565b82525050565b61164981611fe0565b82525050565b600061165a82611d5c565b6116648185611dba565b935061166f83611d2c565b8060005b838110156116a057815161168788826115e9565b975061169283611d93565b925050600181019050611673565b5085935050505092915050565b60006116b882611d67565b6116c28185611dcb565b93506116cd83611d3c565b8060005b838110156116fe5781516116e58882611601565b97506116f083611da0565b9250506001810190506116d1565b5085935050505092915050565b600061171682611d72565b6117208185611ddc565b935061172b83611d4c565b8060005b8381101561175c5781516117438882611619565b975061174e83611dad565b92505060018101905061172f565b5085935050505092915050565b61177281611ff2565b82525050565b61178181611ff2565b82525050565b600061179282611d7d565b61179c8185611ded565b93506117ac818560208601612032565b80840191505092915050565b6117c181611ffe565b82525050565b6117d081611ffe565b82525050565b60006117e182611d88565b6117eb8185611df8565b93506117fb818560208601612032565b6118048161216c565b840191505092915050565b600061181c601683611df8565b91506118278261217d565b602082019050919050565b600061183f602683611df8565b915061184a826121a6565b604082019050919050565b6000611862602683611df8565b915061186d826121f5565b604082019050919050565b6000611885602183611df8565b915061189082612244565b604082019050919050565b60006118a8602083611df8565b91506118b382612293565b602082019050919050565b60006118cb601883611df8565b91506118d6826122bc565b602082019050919050565b60006118ee601d83611df8565b91506118f9826122e5565b602082019050919050565b6000611911602a83611df8565b915061191c8261230e565b604082019050919050565b6000611934602083611df8565b915061193f8261235d565b602082019050919050565b61195381612028565b82525050565b60006119658284611787565b915081905092915050565b60006020820190506119856000830184611640565b92915050565b60006040820190506119a06000830185611640565b6119ad6020830184611778565b9392505050565b60006040820190506119c96000830185611640565b6119d6602083018461194a565b9392505050565b600060408201905081810360008301526119f7818561164f565b90508181036020830152611a0b81846116ad565b90509392505050565b60006060820190508181036000830152611a2e818661164f565b90508181036020830152611a42818561170b565b9050611a51604083018461194a565b949350505050565b6000602082019050611a6e6000830184611778565b92915050565b6000608082019050611a896000830187611778565b611a9660208301866117c7565b611aa360408301856117c7565b611ab0606083018461194a565b95945050505050565b6000602082019050611ace60008301846117c7565b92915050565b6000604082019050611ae960008301856117c7565b611af660208301846117c7565b9392505050565b60006020820190508181036000830152611b1781846117d6565b905092915050565b60006020820190508181036000830152611b388161180f565b9050919050565b60006020820190508181036000830152611b5881611832565b9050919050565b60006020820190508181036000830152611b7881611855565b9050919050565b60006020820190508181036000830152611b9881611878565b9050919050565b60006020820190508181036000830152611bb88161189b565b9050919050565b60006020820190508181036000830152611bd8816118be565b9050919050565b60006020820190508181036000830152611bf8816118e1565b9050919050565b60006020820190508181036000830152611c1881611904565b9050919050565b60006020820190508181036000830152611c3881611927565b9050919050565b6000602082019050611c54600083018461194a565b92915050565b6000604082019050611c6f600083018561194a565b611c7c60208301846117c7565b9392505050565b6000611c8d611c9e565b9050611c998282612065565b919050565b6000604051905090565b600067ffffffffffffffff821115611cc357611cc261213d565b5b602082029050602081019050919050565b600067ffffffffffffffff821115611cef57611cee61213d565b5b602082029050602081019050919050565b600067ffffffffffffffff821115611d1b57611d1a61213d565b5b602082029050602081019050919050565b6000819050602082019050919050565b6000819050602082019050919050565b6000819050602082019050919050565b600081519050919050565b600081519050919050565b600081519050919050565b600081519050919050565b600081519050919050565b6000602082019050919050565b6000602082019050919050565b6000602082019050919050565b600082825260208201905092915050565b600082825260208201905092915050565b600082825260208201905092915050565b600081905092915050565b600082825260208201905092915050565b6000611e1482612028565b9150611e1f83612028565b9250827fffffffffffffffffffffffffffffffffffffffffffffffffffffffffffffffff03821115611e5457611e536120df565b5b828201905092915050565b6000611e6a82611ffe565b9150611e7583611ffe565b925082611e8557611e8461210e565b5b600160000383147f800000000000000000000000000000000000000000000000000000000000000083141615611ebe57611ebd6120df565b5b828205905092915050565b6000611ed482611ffe565b9150611edf83611ffe565b9250827f7fffffffffffffffffffffffffffffffffffffffffffffffffffffffffffffff0482116000841360008413161615611f1e57611f1d6120df565b5b817f80000000000000000000000000000000000000000000000000000000000000000583126000841260008413161615611f5b57611f5a6120df565b5b827f80000000000000000000000000000000000000000000000000000000000000000582126000841360008412161615611f9857611f976120df565b5b827f7fffffffffffffffffffffffffffffffffffffffffffffffffffffffffffffff0582126000841260008412161615611fd557611fd46120df565b5b828202905092915050565b6000611feb82612008565b9050919050565b60008115159050919050565b6000819050919050565b600073ffffffffffffffffffffffffffffffffffffffff82169050919050565b6000819050919050565b60005b83811015612050578082015181840152602081019050612035565b8381111561205f576000848401525b50505050565b61206e8261216c565b810181811067ffffffffffffffff8211171561208d5761208c61213d565b5b80604052505050565b60006120a182612028565b91507fffffffffffffffffffffffffffffffffffffffffffffffffffffffffffffffff8214156120d4576120d36120df565b5b600182019050919050565b7f4e487b7100000000000000000000000000000000000000000000000000000000600052601160045260246000fd5b7f4e487b7100000000000000000000000000000000000000000000000000000000600052601260045260246000fd5b7f4e487b7100000000000000000000000000000000000000000000000000000000600052604160045260246000fd5b6000601f19601f8301169050919050565b7f736574526174653a20496e76616c696420506172616d00000000000000000000600082015250565b7f4f776e61626c653a206e6577206f776e657220697320746865207a65726f206160008201527f6464726573730000000000000000000000000000000000000000000000000000602082015250565b7f416464726573733a20696e73756666696369656e742062616c616e636520666f60008201527f722063616c6c0000000000000000000000000000000000000000000000000000602082015250565b7f62617463685570646174653a20496e76616c696420706172616d206c656e677460008201527f6800000000000000000000000000000000000000000000000000000000000000602082015250565b7f4f776e61626c653a2063616c6c6572206973206e6f7420746865206f776e6572600082015250565b7f62617463685570646174653a204e6f74206d616e616765720000000000000000600082015250565b7f416464726573733a2063616c6c20746f206e6f6e2d636f6e7472616374000000600082015250565b7f5361666545524332303a204552433230206f7065726174696f6e20646964206e60008201527f6f74207375636365656400000000000000000000000000000000000000000000602082015250565b7f7365744f7261636c65733a20496e76616c696420706172616d206c656e677468600082015250565b61238f81611fe0565b811461239a57600080fd5b50565b6123a681611ff2565b81146123b157600080fd5b50565b6123bd81611ffe565b81146123c857600080fd5b50565b6123d481612028565b81146123df57600080fd5b5056fea26469706673582212207a82e943f1438ca8be829d50057e58324746b90a038777c850ba8c208048435d64736f6c63430008040033",
  "devdoc": {
    "kind": "dev",
    "methods": {
      "batchUpdate(address[],int256[])": {
        "params": {
          "oracles": "list of the chainlink oracle",
          "prices": "list of prices to submit"
        }
      },
      "getUpdateAvailablePriceRange(address)": {
        "params": {
          "oracle": "address of the chainlink oracle"
        }
      },
      "owner()": {
        "details": "Returns the address of the current owner."
      },
      "renounceOwnership()": {
        "details": "Leaves the contract without owner. It will not be possible to call `onlyOwner` functions anymore. Can only be called by the current owner. NOTE: Renouncing ownership will leave the contract without an owner, thereby removing any functionality that is only available to the owner."
      },
      "setManager(address,bool)": {
        "params": {
          "manager": "address of manager",
          "status": "bool status of the manager"
        }
      },
      "setOracles(address[],bool[])": {
        "params": {
          "oracles": "array of chainlink aggregator contracts",
          "statusList": "array of bool status"
        }
      },
      "setRate(int256,int256)": {
        "params": {
          "max": "% of max",
          "min": "% of min"
        }
      },
      "transferOwnership(address)": {
        "details": "Transfers ownership of the contract to a new account (`newOwner`). Can only be called by the current owner."
      }
    },
    "version": 1
  },
  "userdoc": {
    "events": {
      "ManagerSet(address,bool)": {
        "notice": "emitted when manager is set"
      },
      "OraclesSet(address[],bool[])": {
        "notice": "emitted when oracles are set"
      },
      "PricesSubmitted(address[],int256[],uint256)": {
        "notice": "emitted when prices are submitted"
      },
      "RateSet(int256,int256)": {
        "notice": "emitted when updatable price range is set"
      }
    },
    "kind": "user",
    "methods": {
      "batchUpdate(address[],int256[])": {
        "notice": "submit prices to chainlink aggregators"
      },
      "getUpdateAvailablePriceRange(address)": {
        "notice": "calculate the updatable price range for the next round"
      },
      "isManager(address)": {
        "notice": "manager who can call this function to submit prices"
      },
      "minChangeRate()": {
        "notice": "updatable price range for the next round"
      },
      "setManager(address,bool)": {
        "notice": "set manager who can call this contract to submit prices"
      },
      "setOracles(address[],bool[])": {
        "notice": "set oracle contracts into nfts"
      },
      "setRate(int256,int256)": {
        "notice": "set min and max rate for the price updatable range"
      },
      "supportOracles(address)": {
        "notice": "chainlink aggregator oracle contract => support?"
      }
    },
    "version": 1
  },
  "storageLayout": {
    "storage": [
      {
        "astId": 55,
        "contract": "contracts/NFTOracleManager.sol:NFTOracleManager",
        "label": "_owner",
        "offset": 0,
        "slot": "0",
        "type": "t_address"
      },
      {
        "astId": 918,
        "contract": "contracts/NFTOracleManager.sol:NFTOracleManager",
        "label": "supportOracles",
        "offset": 0,
        "slot": "1",
        "type": "t_mapping(t_address,t_bool)"
      },
      {
        "astId": 923,
        "contract": "contracts/NFTOracleManager.sol:NFTOracleManager",
        "label": "isManager",
        "offset": 0,
        "slot": "2",
        "type": "t_mapping(t_address,t_bool)"
      },
      {
        "astId": 926,
        "contract": "contracts/NFTOracleManager.sol:NFTOracleManager",
        "label": "minChangeRate",
        "offset": 0,
        "slot": "3",
        "type": "t_int256"
      },
      {
        "astId": 928,
        "contract": "contracts/NFTOracleManager.sol:NFTOracleManager",
        "label": "maxChangeRate",
        "offset": 0,
        "slot": "4",
        "type": "t_int256"
      }
    ],
    "types": {
      "t_address": {
        "encoding": "inplace",
        "label": "address",
        "numberOfBytes": "20"
      },
      "t_bool": {
        "encoding": "inplace",
        "label": "bool",
        "numberOfBytes": "1"
      },
      "t_int256": {
        "encoding": "inplace",
        "label": "int256",
        "numberOfBytes": "32"
      },
      "t_mapping(t_address,t_bool)": {
        "encoding": "mapping",
        "key": "t_address",
        "label": "mapping(address => bool)",
        "numberOfBytes": "32",
        "value": "t_bool"
      }
    }
  }
}