{
  "address": "0xef6e9D77409861363e5eD8c6Abcf943e77134491",
  "abi": [
    {
      "inputs": [],
      "name": "decimals",
      "outputs": [
        {
          "internalType": "uint8",
          "name": "",
          "type": "uint8"
        }
      ],
      "stateMutability": "pure",
      "type": "function"
    },
    {
      "inputs": [],
      "name": "descriton",
      "outputs": [
        {
          "internalType": "string",
          "name": "",
          "type": "string"
        }
      ],
      "stateMutability": "pure",
      "type": "function"
    },
    {
      "inputs": [],
      "name": "latestRoundData",
      "outputs": [
        {
          "internalType": "uint80",
          "name": "",
          "type": "uint80"
        },
        {
          "internalType": "int256",
          "name": "answer",
          "type": "int256"
        },
        {
          "internalType": "uint256",
          "name": "",
          "type": "uint256"
        },
        {
          "internalType": "uint256",
          "name": "",
          "type": "uint256"
        },
        {
          "internalType": "uint80",
          "name": "",
          "type": "uint80"
        }
      ],
      "stateMutability": "view",
      "type": "function"
    },
    {
      "inputs": [],
      "name": "sfrxETH",
      "outputs": [
        {
          "internalType": "address",
          "name": "",
          "type": "address"
        }
      ],
      "stateMutability": "view",
      "type": "function"
    }
  ],
  "transactionHash": "0xcc47bad01b454d586c46817d71d73676c4da7364549ec9f9e4e357e36fb87314",
  "args": [],
  "solcInputHash": "cba0662159ce2364ff38c42bb4e812a0",
  "bytecode": "0x608060405234801561001057600080fd5b50610560806100206000396000f3fe608060405234801561001057600080fd5b506004361061004c5760003560e01c806317dc2a7114610051578063313ce5671461006f578063c9ac8c8e1461008d578063feaf968c146100ab575b600080fd5b6100596100cd565b60405161006691906102d1565b60405180910390f35b61007761010a565b6040516100849190610346565b60405180910390f35b610095610113565b6040516100a291906102b6565b60405180910390f35b6100b361012b565b6040516100c49594939291906102f3565b60405180910390f35b60606040518060400160405280601881526020017f5374616b65642046726178204574686572206f7261636c650000000000000000815250905090565b60006012905090565b73ac3e018457b222d93114458476f3e3416abbe38f81565b6000806000806000670de0b6b3a764000073ac3e018457b222d93114458476f3e3416abbe38f73ffffffffffffffffffffffffffffffffffffffff166399530b066040518163ffffffff1660e01b815260040160206040518083038186803b15801561019657600080fd5b505afa1580156101aa573d6000803e3d6000fd5b505050506040513d601f19601f820116820180604052508101906101ce9190610209565b670de0b6b3a76400006101e191906103ae565b6101eb919061037d565b93509091929394565b60008151905061020381610513565b92915050565b60006020828403121561021b57600080fd5b6000610229848285016101f4565b91505092915050565b61023b81610408565b82525050565b61024a8161041a565b82525050565b600061025b82610361565b610265818561036c565b9350610275818560208601610471565b61027e81610502565b840191505092915050565b61029281610444565b82525050565b6102a18161045b565b82525050565b6102b08161044e565b82525050565b60006020820190506102cb6000830184610232565b92915050565b600060208201905081810360008301526102eb8184610250565b905092915050565b600060a0820190506103086000830188610298565b6103156020830187610241565b6103226040830186610289565b61032f6060830185610289565b61033c6080830184610298565b9695505050505050565b600060208201905061035b60008301846102a7565b92915050565b600081519050919050565b600082825260208201905092915050565b600061038882610444565b915061039383610444565b9250826103a3576103a26104d3565b5b828204905092915050565b60006103b982610444565b91506103c483610444565b9250817fffffffffffffffffffffffffffffffffffffffffffffffffffffffffffffffff04831182151516156103fd576103fc6104a4565b5b828202905092915050565b600061041382610424565b9050919050565b6000819050919050565b600073ffffffffffffffffffffffffffffffffffffffff82169050919050565b6000819050919050565b600060ff82169050919050565b600069ffffffffffffffffffff82169050919050565b60005b8381101561048f578082015181840152602081019050610474565b8381111561049e576000848401525b50505050565b7f4e487b7100000000000000000000000000000000000000000000000000000000600052601160045260246000fd5b7f4e487b7100000000000000000000000000000000000000000000000000000000600052601260045260246000fd5b6000601f19601f8301169050919050565b61051c81610444565b811461052757600080fd5b5056fea26469706673582212202746072dac2e875165efd07ff1c1399214f48e55c4f93983efb572405bfdf32a64736f6c63430008040033",
  "devdoc": {
    "kind": "dev",
    "methods": {},
    "title": "aggregator contract that provides eth price of Staked Frax Ether",
    "version": 1
  },
  "userdoc": {
    "kind": "user",
    "methods": {
      "sfrxETH()": {
        "notice": "address to frxETH"
      }
    },
    "version": 1
  },
  "storageLayout": {
    "storage": [],
    "types": null
  }
}