{
  "address": "0x023F638f718758752548d407De4b2f93D5Bcb66B",
  "abi": [
    {
      "inputs": [],
      "name": "WETH",
      "outputs": [
        {
          "internalType": "address",
          "name": "",
          "type": "address"
        }
      ],
      "stateMutability": "view",
      "type": "function"
    },
    {
      "inputs": [],
      "name": "decimals",
      "outputs": [
        {
          "internalType": "uint8",
          "name": "",
          "type": "uint8"
        }
      ],
      "stateMutability": "pure",
      "type": "function"
    },
    {
      "inputs": [],
      "name": "factory",
      "outputs": [
        {
          "internalType": "address",
          "name": "",
          "type": "address"
        }
      ],
      "stateMutability": "view",
      "type": "function"
    },
    {
      "inputs": [],
      "name": "latestAnswer",
      "outputs": [
        {
          "internalType": "int256",
          "name": "answer",
          "type": "int256"
        }
      ],
      "stateMutability": "view",
      "type": "function"
    },
    {
      "inputs": [],
      "name": "pool",
      "outputs": [
        {
          "internalType": "address",
          "name": "",
          "type": "address"
        }
      ],
      "stateMutability": "view",
      "type": "function"
    },
    {
      "inputs": [],
      "name": "poolId",
      "outputs": [
        {
          "internalType": "bytes32",
          "name": "",
          "type": "bytes32"
        }
      ],
      "stateMutability": "view",
      "type": "function"
    },
    {
      "inputs": [],
      "name": "stETH",
      "outputs": [
        {
          "internalType": "address",
          "name": "",
          "type": "address"
        }
      ],
      "stateMutability": "view",
      "type": "function"
    },
    {
      "inputs": [],
      "name": "vault",
      "outputs": [
        {
          "internalType": "address",
          "name": "",
          "type": "address"
        }
      ],
      "stateMutability": "view",
      "type": "function"
    },
    {
      "inputs": [],
      "name": "wstETH",
      "outputs": [
        {
          "internalType": "address",
          "name": "",
          "type": "address"
        }
      ],
      "stateMutability": "view",
      "type": "function"
    }
  ],
  "transactionHash": "0xeccf19bf5f7d6416a062d251f87a8816ec15638502300f2b79df49d4f2132587",
  "args": [],
  "solcInputHash": "93ba9bcf8cb2d911866830cd8a86bbcf",
  "bytecode": "0x608060405234801561001057600080fd5b50611044806100206000396000f3fe608060405234801561001057600080fd5b50600436106100935760003560e01c806350d25bcd1161006657806350d25bcd14610110578063ad5c46481461012e578063c1fe3e481461014c578063c45a01551461016a578063fbfa77cf1461018857610093565b806316f0115b14610098578063313ce567146100b65780633e0dc34e146100d45780634aa07e64146100f2575b600080fd5b6100a06101a6565b6040516100ad9190610bba565b60405180910390f35b6100be6101be565b6040516100cb9190610c66565b60405180910390f35b6100dc6101c7565b6040516100e99190610bd5565b60405180910390f35b6100fa6101ee565b6040516101079190610bba565b60405180910390f35b610118610206565b6040516101259190610bf0565b60405180910390f35b610136610222565b6040516101439190610bba565b60405180910390f35b61015461023a565b6040516101619190610bba565b60405180910390f35b610172610252565b60405161017f9190610bba565b60405180910390f35b61019061026a565b60405161019d9190610bba565b60405180910390f35b7332296969ef14eb0c6d29669c550d4a044913023081565b60006012905090565b7f32296969ef14eb0c6d29669c550d4a044913023000020000000000000000008060001b81565b737f39c581f595b53c5cb19bd0b3f8da6c935e2ca081565b600080610211610282565b905061021c8161069d565b91505090565b73c02aaa39b223fe8d0a0e5c4f27ead9083c756cc281565b73ae7ab96520de3a18e5e111b5eaab095312d7fe8481565b73b08742e82cc6743d8a1cf2473ad36c9ea9d477fd81565b73ba12222222228d8ba445958a75a0704d566bf2c881565b60606000670de0b6b3a76400009050600073b08742e82cc6743d8a1cf2473ad36c9ea9d477fd73ffffffffffffffffffffffffffffffffffffffff166397cecb2573ae7ab96520de3a18e5e111b5eaab095312d7fe846040518263ffffffff1660e01b81526004016102f49190610bba565b60206040518083038186803b15801561030c57600080fd5b505afa158015610320573d6000803e3d6000fd5b505050506040513d601f19601f820116820180604052508101906103449190610ad7565b90506000670de0b6b3a7640000737f39c581f595b53c5cb19bd0b3f8da6c935e2ca073ffffffffffffffffffffffffffffffffffffffff1663bb2952fc670de0b6b3a76400006040518263ffffffff1660e01b81526004016103a69190610c0b565b60206040518083038186803b1580156103be57600080fd5b505afa1580156103d2573d6000803e3d6000fd5b505050506040513d601f19601f820116820180604052508101906103f69190610b00565b836104019190610d96565b61040b9190610d65565b9050600267ffffffffffffffff81111561044e577f4e487b7100000000000000000000000000000000000000000000000000000000600052604160045260246000fd5b60405190808252806020026020018201604052801561047c5781602001602082028036833780820191505090505b509350600073ba12222222228d8ba445958a75a0704d566bf2c873ffffffffffffffffffffffffffffffffffffffff1663f94d46687f32296969ef14eb0c6d29669c550d4a044913023000020000000000000000008060001b6040518263ffffffff1660e01b81526004016104f19190610bd5565b60006040518083038186803b15801561050957600080fd5b505afa15801561051d573d6000803e3d6000fd5b505050506040513d6000823e3d601f19601f820116820180604052508101906105469190610a58565b50915050670de0b6b3a76400008160008151811061058d577f4e487b7100000000000000000000000000000000000000000000000000000000600052603260045260246000fd5b6020026020010151836105a09190610d96565b6105aa9190610d65565b856000815181106105e4577f4e487b7100000000000000000000000000000000000000000000000000000000600052603260045260246000fd5b602002602001018181525050670de0b6b3a764000081600181518110610633577f4e487b7100000000000000000000000000000000000000000000000000000000600052603260045260246000fd5b6020026020010151856106469190610d96565b6106509190610d65565b8560018151811061068a577f4e487b7100000000000000000000000000000000000000000000000000000000600052603260045260246000fd5b6020026020010181815250505050505090565b6000806000905060005b6002811015610711578381815181106106e9577f4e487b7100000000000000000000000000000000000000000000000000000000600052603260045260246000fd5b6020026020010151826106fc9190610d0f565b9150808061070990610e90565b9150506106a7565b506107ad817332296969ef14eb0c6d29669c550d4a044913023073ffffffffffffffffffffffffffffffffffffffff166318160ddd6040518163ffffffff1660e01b815260040160206040518083038186803b15801561077057600080fd5b505afa158015610784573d6000803e3d6000fd5b505050506040513d601f19601f820116820180604052508101906107a89190610b00565b6107b5565b915050919050565b6000808214156107fa576040517f08c379a00000000000000000000000000000000000000000000000000000000081526004016107f190610c46565b60405180910390fd5b6000670de0b6b3a7640000846108109190610d96565b905060008414806108335750670de0b6b3a764000084826108319190610d65565b145b610872576040517f08c379a000000000000000000000000000000000000000000000000000000000815260040161086990610c26565b60405180910390fd5b60006002846108819190610d65565b8261088c9190610d0f565b9050818110156108d1576040517f08c379a00000000000000000000000000000000000000000000000000000000081526004016108c890610c26565b60405180910390fd5b600084826108df9190610d65565b905080935050505092915050565b60006109006108fb84610ca6565b610c81565b9050808382526020820190508285602086028201111561091f57600080fd5b60005b8581101561094f578161093588826109c5565b845260208401935060208301925050600181019050610922565b5050509392505050565b600061096c61096784610cd2565b610c81565b9050808382526020820190508285602086028201111561098b57600080fd5b60005b858110156109bb57816109a18882610a43565b84526020840193506020830192505060018101905061098e565b5050509392505050565b6000815190506109d481610fc9565b92915050565b600082601f8301126109eb57600080fd5b81516109fb8482602086016108ed565b91505092915050565b600082601f830112610a1557600080fd5b8151610a25848260208601610959565b91505092915050565b600081519050610a3d81610fe0565b92915050565b600081519050610a5281610ff7565b92915050565b600080600060608486031215610a6d57600080fd5b600084015167ffffffffffffffff811115610a8757600080fd5b610a93868287016109da565b935050602084015167ffffffffffffffff811115610ab057600080fd5b610abc86828701610a04565b9250506040610acd86828701610a43565b9150509250925092565b600060208284031215610ae957600080fd5b6000610af784828501610a2e565b91505092915050565b600060208284031215610b1257600080fd5b6000610b2084828501610a43565b91505092915050565b610b3281610df0565b82525050565b610b4181610e02565b82525050565b610b5081610e0c565b82525050565b610b5f81610e4d565b82525050565b6000610b72601083610cfe565b9150610b7d82610f77565b602082019050919050565b6000610b95600c83610cfe565b9150610ba082610fa0565b602082019050919050565b610bb481610e40565b82525050565b6000602082019050610bcf6000830184610b29565b92915050565b6000602082019050610bea6000830184610b38565b92915050565b6000602082019050610c056000830184610b47565b92915050565b6000602082019050610c206000830184610b56565b92915050565b60006020820190508181036000830152610c3f81610b65565b9050919050565b60006020820190508181036000830152610c5f81610b88565b9050919050565b6000602082019050610c7b6000830184610bab565b92915050565b6000610c8b610c9c565b9050610c978282610e5f565b919050565b6000604051905090565b600067ffffffffffffffff821115610cc157610cc0610f37565b5b602082029050602081019050919050565b600067ffffffffffffffff821115610ced57610cec610f37565b5b602082029050602081019050919050565b600082825260208201905092915050565b6000610d1a82610e36565b9150610d2583610e36565b9250827fffffffffffffffffffffffffffffffffffffffffffffffffffffffffffffffff03821115610d5a57610d59610ed9565b5b828201905092915050565b6000610d7082610e36565b9150610d7b83610e36565b925082610d8b57610d8a610f08565b5b828204905092915050565b6000610da182610e36565b9150610dac83610e36565b9250817fffffffffffffffffffffffffffffffffffffffffffffffffffffffffffffffff0483118215151615610de557610de4610ed9565b5b828202905092915050565b6000610dfb82610e16565b9050919050565b6000819050919050565b6000819050919050565b600073ffffffffffffffffffffffffffffffffffffffff82169050919050565b6000819050919050565b600060ff82169050919050565b6000610e5882610e36565b9050919050565b610e6882610f66565b810181811067ffffffffffffffff82111715610e8757610e86610f37565b5b80604052505050565b6000610e9b82610e36565b91507fffffffffffffffffffffffffffffffffffffffffffffffffffffffffffffffff821415610ece57610ecd610ed9565b5b600182019050919050565b7f4e487b7100000000000000000000000000000000000000000000000000000000600052601160045260246000fd5b7f4e487b7100000000000000000000000000000000000000000000000000000000600052601260045260246000fd5b7f4e487b7100000000000000000000000000000000000000000000000000000000600052604160045260246000fd5b6000601f19601f8301169050919050565b7f4552525f4449565f494e5445524e414c00000000000000000000000000000000600082015250565b7f4552525f4449565f5a45524f0000000000000000000000000000000000000000600082015250565b610fd281610df0565b8114610fdd57600080fd5b50565b610fe981610e0c565b8114610ff457600080fd5b50565b61100081610e36565b811461100b57600080fd5b5056fea2646970667358221220310d743fe949e38f7a5cbbfd2bc5811cea65a005b30214401b8be9bc332f1cea64736f6c63430008040033",
  "devdoc": {
    "kind": "dev",
    "methods": {},
    "title": "LP token price oracle for BalancerStablePool of wstETH-WETH",
    "version": 1
  },
  "userdoc": {
    "kind": "user",
    "methods": {
      "WETH()": {
        "notice": "address to WETH"
      },
      "factory()": {
        "notice": "address to the price factory"
      },
      "pool()": {
        "notice": "address to balancer Pool"
      },
      "poolId()": {
        "notice": "address to balancerVault"
      },
      "stETH()": {
        "notice": "address to stETH"
      },
      "vault()": {
        "notice": "address to balancerVault"
      },
      "wstETH()": {
        "notice": "address to wstETH"
      }
    },
    "version": 1
  },
  "storageLayout": {
    "storage": [],
    "types": null
  }
}