{
  "address": "0xab1a6C9e410463369f4Bf83Db7E028750bbB2Ea7",
  "abi": [
    {
      "inputs": [],
      "name": "decimals",
      "outputs": [
        {
          "internalType": "uint8",
          "name": "",
          "type": "uint8"
        }
      ],
      "stateMutability": "pure",
      "type": "function"
    },
    {
      "inputs": [],
      "name": "descriton",
      "outputs": [
        {
          "internalType": "string",
          "name": "",
          "type": "string"
        }
      ],
      "stateMutability": "pure",
      "type": "function"
    },
    {
      "inputs": [],
      "name": "factory",
      "outputs": [
        {
          "internalType": "address",
          "name": "",
          "type": "address"
        }
      ],
      "stateMutability": "view",
      "type": "function"
    },
    {
      "inputs": [],
      "name": "latestRoundData",
      "outputs": [
        {
          "internalType": "uint80",
          "name": "",
          "type": "uint80"
        },
        {
          "internalType": "int256",
          "name": "answer",
          "type": "int256"
        },
        {
          "internalType": "uint256",
          "name": "",
          "type": "uint256"
        },
        {
          "internalType": "uint256",
          "name": "",
          "type": "uint256"
        },
        {
          "internalType": "uint80",
          "name": "",
          "type": "uint80"
        }
      ],
      "stateMutability": "view",
      "type": "function"
    },
    {
      "inputs": [],
      "name": "stETH",
      "outputs": [
        {
          "internalType": "address",
          "name": "",
          "type": "address"
        }
      ],
      "stateMutability": "view",
      "type": "function"
    },
    {
      "inputs": [],
      "name": "wstETH",
      "outputs": [
        {
          "internalType": "address",
          "name": "",
          "type": "address"
        }
      ],
      "stateMutability": "view",
      "type": "function"
    }
  ],
  "transactionHash": "0xc3dcc9bbf073772d197a6bc08cb838d58c1597c7621db846bd3d0bdf3508b6ab",
  "args": [],
  "solcInputHash": "1f654e3d32294e34fb5200289b2ba7e2",
  "bytecode": "0x608060405234801561001057600080fd5b50610733806100206000396000f3fe608060405234801561001057600080fd5b50600436106100625760003560e01c806317dc2a7114610067578063313ce567146100855780634aa07e64146100a3578063c1fe3e48146100c1578063c45a0155146100df578063feaf968c146100fd575b600080fd5b61006f61011f565b60405161007c919061047b565b60405180910390f35b61008d61015c565b60405161009a91906104f0565b60405180910390f35b6100ab610165565b6040516100b89190610445565b60405180910390f35b6100c961017d565b6040516100d69190610445565b60405180910390f35b6100e7610195565b6040516100f49190610445565b60405180910390f35b6101056101ad565b60405161011695949392919061049d565b60405180910390f35b60606040518060400160405280601281526020017f4c69646f20777374455448206f7261636c650000000000000000000000000000815250905090565b60006012905090565b737f39c581f595b53c5cb19bd0b3f8da6c935e2ca081565b73ae7ab96520de3a18e5e111b5eaab095312d7fe8481565b734148d2220511d3521e232ff0f6369a14a9737c9a81565b600080600080600080734148d2220511d3521e232ff0f6369a14a9737c9a73ffffffffffffffffffffffffffffffffffffffff166397cecb2573ae7ab96520de3a18e5e111b5eaab095312d7fe846040518263ffffffff1660e01b81526004016102179190610445565b60206040518083038186803b15801561022f57600080fd5b505afa158015610243573d6000803e3d6000fd5b505050506040513d601f19601f820116820180604052508101906102679190610360565b9050670de0b6b3a7640000737f39c581f595b53c5cb19bd0b3f8da6c935e2ca073ffffffffffffffffffffffffffffffffffffffff1663bb2952fc670de0b6b3a76400006040518263ffffffff1660e01b81526004016102c79190610460565b60206040518083038186803b1580156102df57600080fd5b505afa1580156102f3573d6000803e3d6000fd5b505050506040513d601f19601f820116820180604052508101906103179190610389565b826103229190610558565b61032c9190610527565b9450509091929394565b600081519050610345816106cf565b92915050565b60008151905061035a816106e6565b92915050565b60006020828403121561037257600080fd5b600061038084828501610336565b91505092915050565b60006020828403121561039b57600080fd5b60006103a98482850161034b565b91505092915050565b6103bb816105b2565b82525050565b6103ca816105c4565b82525050565b6103d98161061b565b82525050565b60006103ea8261050b565b6103f48185610516565b935061040481856020860161062d565b61040d816106be565b840191505092915050565b610421816105ee565b82525050565b61043081610605565b82525050565b61043f816105f8565b82525050565b600060208201905061045a60008301846103b2565b92915050565b600060208201905061047560008301846103d0565b92915050565b6000602082019050818103600083015261049581846103df565b905092915050565b600060a0820190506104b26000830188610427565b6104bf60208301876103c1565b6104cc6040830186610418565b6104d96060830185610418565b6104e66080830184610427565b9695505050505050565b60006020820190506105056000830184610436565b92915050565b600081519050919050565b600082825260208201905092915050565b6000610532826105ee565b915061053d836105ee565b92508261054d5761054c61068f565b5b828204905092915050565b6000610563826105ee565b915061056e836105ee565b9250817fffffffffffffffffffffffffffffffffffffffffffffffffffffffffffffffff04831182151516156105a7576105a6610660565b5b828202905092915050565b60006105bd826105ce565b9050919050565b6000819050919050565b600073ffffffffffffffffffffffffffffffffffffffff82169050919050565b6000819050919050565b600060ff82169050919050565b600069ffffffffffffffffffff82169050919050565b6000610626826105ee565b9050919050565b60005b8381101561064b578082015181840152602081019050610630565b8381111561065a576000848401525b50505050565b7f4e487b7100000000000000000000000000000000000000000000000000000000600052601160045260246000fd5b7f4e487b7100000000000000000000000000000000000000000000000000000000600052601260045260246000fd5b6000601f19601f8301169050919050565b6106d8816105c4565b81146106e357600080fd5b50565b6106ef816105ee565b81146106fa57600080fd5b5056fea2646970667358221220e20e4712a312e1ef0b38c93e290077e07cb2ff4dcafab50ea31c32885fe89cc664736f6c63430008040033",
  "devdoc": {
    "kind": "dev",
    "methods": {},
    "title": "aggregator contract that provides eth price of Lido wstETH",
    "version": 1
  },
  "userdoc": {
    "kind": "user",
    "methods": {
      "factory()": {
        "notice": "address to the price factory"
      },
      "stETH()": {
        "notice": "address to stETH"
      },
      "wstETH()": {
        "notice": "address to wstETH"
      }
    },
    "version": 1
  },
  "storageLayout": {
    "storage": [],
    "types": null
  }
}