{
  "address": "0x233C6CC7F12c47cc04e902E5E9b849B48BB233df",
  "abi": [
    {
      "inputs": [
        {
          "internalType": "contract IChainlinkPriceFactory",
          "name": "_factory",
          "type": "address"
        },
        {
          "internalType": "contract IYearnVault",
          "name": "_vault",
          "type": "address"
        }
      ],
      "stateMutability": "nonpayable",
      "type": "constructor"
    },
    {
      "inputs": [],
      "name": "decimals",
      "outputs": [
        {
          "internalType": "uint8",
          "name": "",
          "type": "uint8"
        }
      ],
      "stateMutability": "pure",
      "type": "function"
    },
    {
      "inputs": [],
      "name": "factory",
      "outputs": [
        {
          "internalType": "contract IChainlinkPriceFactory",
          "name": "",
          "type": "address"
        }
      ],
      "stateMutability": "view",
      "type": "function"
    },
    {
      "inputs": [],
      "name": "latestAnswer",
      "outputs": [
        {
          "internalType": "int256",
          "name": "answer",
          "type": "int256"
        }
      ],
      "stateMutability": "view",
      "type": "function"
    },
    {
      "inputs": [],
      "name": "vault",
      "outputs": [
        {
          "internalType": "contract IYearnVault",
          "name": "",
          "type": "address"
        }
      ],
      "stateMutability": "view",
      "type": "function"
    }
  ],
  "transactionHash": "0x3811ba57743a536fbaaec9bf4878f1b01a3651d08e90c458648c4de60f14b27f",
  "args": [
    "0xB08742E82cC6743D8a1Cf2473aD36c9Ea9D477fD",
    "0xa258C4606Ca8206D8aA700cE2143D7db854D168c"
  ],
  "solcInputHash": "0cd7455f38df5b0573a18a0dd579f71a",
  "bytecode": "0x60c06040523480156200001157600080fd5b5060405162000d5f38038062000d5f8339818101604052810190620000379190620001c1565b600073ffffffffffffffffffffffffffffffffffffffff168273ffffffffffffffffffffffffffffffffffffffff161415620000aa576040517f08c379a0000000000000000000000000000000000000000000000000000000008152600401620000a19062000272565b60405180910390fd5b600073ffffffffffffffffffffffffffffffffffffffff168173ffffffffffffffffffffffffffffffffffffffff1614156200011d576040517f08c379a0000000000000000000000000000000000000000000000000000000008152600401620001149062000250565b60405180910390fd5b8173ffffffffffffffffffffffffffffffffffffffff1660a08173ffffffffffffffffffffffffffffffffffffffff1660601b815250508073ffffffffffffffffffffffffffffffffffffffff1660808173ffffffffffffffffffffffffffffffffffffffff1660601b81525050505062000387565b600081519050620001a48162000353565b92915050565b600081519050620001bb816200036d565b92915050565b60008060408385031215620001d557600080fd5b6000620001e58582860162000193565b9250506020620001f885828601620001aa565b9150509250929050565b600062000211601a8362000294565b91506200021e8262000301565b602082019050919050565b600062000238601c8362000294565b915062000245826200032a565b602082019050919050565b600060208201905081810360008301526200026b8162000202565b9050919050565b600060208201905081810360008301526200028d8162000229565b9050919050565b600082825260208201905092915050565b6000620002b282620002e1565b9050919050565b6000620002c682620002a5565b9050919050565b6000620002da82620002a5565b9050919050565b600073ffffffffffffffffffffffffffffffffffffffff82169050919050565b7f5f7661756c7420616464726573732063616e6e6f742062652030000000000000600082015250565b7f5f666163746f727920616464726573732063616e6e6f74206265203000000000600082015250565b6200035e81620002b9565b81146200036a57600080fd5b50565b6200037881620002cd565b81146200038457600080fd5b50565b60805160601c60a05160601c610991620003ce6000396000818160d701526103c5015260008181610113015281816102620152818161030c01526103e901526109916000f3fe608060405234801561001057600080fd5b506004361061004c5760003560e01c8063313ce5671461005157806350d25bcd1461006f578063c45a01551461008d578063fbfa77cf146100ab575b600080fd5b6100596100c9565b60405161006691906105bf565b60405180910390f35b6100776100d2565b6040516100849190610584565b60405180910390f35b6100956103c3565b6040516100a2919061054e565b60405180910390f35b6100b36103e7565b6040516100c09190610569565b60405180910390f35b60006012905090565b6000807f000000000000000000000000000000000000000000000000000000000000000073ffffffffffffffffffffffffffffffffffffffff166397cecb257f000000000000000000000000000000000000000000000000000000000000000073ffffffffffffffffffffffffffffffffffffffff1663fc0c546a6040518163ffffffff1660e01b815260040160206040518083038186803b15801561017757600080fd5b505afa15801561018b573d6000803e3d6000fd5b505050506040513d601f19601f820116820180604052508101906101af919061044a565b6040518263ffffffff1660e01b81526004016101cb9190610533565b60206040518083038186803b1580156101e357600080fd5b505afa1580156101f7573d6000803e3d6000fd5b505050506040513d601f19601f8201168201806040525081019061021b9190610473565b905060008111610260576040517f08c379a00000000000000000000000000000000000000000000000000000000081526004016102579061059f565b60405180910390fd5b7f000000000000000000000000000000000000000000000000000000000000000073ffffffffffffffffffffffffffffffffffffffff1663313ce5676040518163ffffffff1660e01b815260040160206040518083038186803b1580156102c657600080fd5b505afa1580156102da573d6000803e3d6000fd5b505050506040513d601f19601f820116820180604052508101906102fe919061049c565b600a61030a919061066f565b7f000000000000000000000000000000000000000000000000000000000000000073ffffffffffffffffffffffffffffffffffffffff166399530b066040518163ffffffff1660e01b815260040160206040518083038186803b15801561037057600080fd5b505afa158015610384573d6000803e3d6000fd5b505050506040513d601f19601f820116820180604052508101906103a8919061049c565b826103b3919061078d565b6103bd91906105eb565b91505090565b7f000000000000000000000000000000000000000000000000000000000000000081565b7f000000000000000000000000000000000000000000000000000000000000000081565b60008151905061041a81610916565b92915050565b60008151905061042f8161092d565b92915050565b60008151905061044481610944565b92915050565b60006020828403121561045c57600080fd5b600061046a8482850161040b565b91505092915050565b60006020828403121561048557600080fd5b600061049384828501610420565b91505092915050565b6000602082840312156104ae57600080fd5b60006104bc84828501610435565b91505092915050565b6104ce816107e7565b82525050565b6104dd8161083a565b82525050565b6104ec8161085e565b82525050565b6104fb816107f9565b82525050565b600061050e600c836105da565b9150610519826108ed565b602082019050919050565b61052d8161082d565b82525050565b600060208201905061054860008301846104c5565b92915050565b600060208201905061056360008301846104d4565b92915050565b600060208201905061057e60008301846104e3565b92915050565b600060208201905061059960008301846104f2565b92915050565b600060208201905081810360008301526105b881610501565b9050919050565b60006020820190506105d46000830184610524565b92915050565b600082825260208201905092915050565b60006105f682610823565b915061060183610823565b925082610611576106106108b1565b5b828204905092915050565b6000808291508390505b60018511156106665780860481111561064257610641610882565b5b60018516156106515780820291505b808102905061065f856108e0565b9450610626565b94509492505050565b600061067a82610823565b915061068583610823565b92506106b27fffffffffffffffffffffffffffffffffffffffffffffffffffffffffffffffff84846106ba565b905092915050565b6000826106ca5760019050610786565b816106d85760009050610786565b81600181146106ee57600281146106f857610727565b6001915050610786565b60ff84111561070a57610709610882565b5b8360020a91508482111561072157610720610882565b5b50610786565b5060208310610133831016604e8410600b841016171561075c5782820a90508381111561075757610756610882565b5b610786565b610769848484600161061c565b925090508184048111156107805761077f610882565b5b81810290505b9392505050565b600061079882610823565b91506107a383610823565b9250817fffffffffffffffffffffffffffffffffffffffffffffffffffffffffffffffff04831182151516156107dc576107db610882565b5b828202905092915050565b60006107f282610803565b9050919050565b6000819050919050565b600073ffffffffffffffffffffffffffffffffffffffff82169050919050565b6000819050919050565b600060ff82169050919050565b60006108458261084c565b9050919050565b600061085782610803565b9050919050565b600061086982610870565b9050919050565b600061087b82610803565b9050919050565b7f4e487b7100000000000000000000000000000000000000000000000000000000600052601160045260246000fd5b7f4e487b7100000000000000000000000000000000000000000000000000000000600052601260045260246000fd5b60008160011c9050919050565b7f21746f6b656e2070726963650000000000000000000000000000000000000000600082015250565b61091f816107e7565b811461092a57600080fd5b50565b610936816107f9565b811461094157600080fd5b50565b61094d81610823565b811461095857600080fd5b5056fea26469706673582212209b8edc50bd7dac908b7c22fa88e4a14e7b6d6411e9cb118d84743403d174807564736f6c63430008040033",
  "devdoc": {
    "kind": "dev",
    "methods": {},
    "title": "yearn finance vault tokne price oracle",
    "version": 1
  },
  "userdoc": {
    "kind": "user",
    "methods": {
      "factory()": {
        "notice": "address to the price factory"
      },
      "vault()": {
        "notice": "address to the yearn vault"
      }
    },
    "version": 1
  },
  "storageLayout": {
    "storage": [],
    "types": null
  }
}