{
  "address": "0xAE81EdeA2b361f4bf315AF5Fc58a7074FEd422e5",
  "abi": [
    {
      "anonymous": false,
      "inputs": [
        {
          "indexed": false,
          "internalType": "uint8",
          "name": "version",
          "type": "uint8"
        }
      ],
      "name": "Initialized",
      "type": "event"
    },
    {
      "anonymous": false,
      "inputs": [
        {
          "indexed": true,
          "internalType": "address",
          "name": "from",
          "type": "address"
        },
        {
          "indexed": true,
          "internalType": "address",
          "name": "token",
          "type": "address"
        },
        {
          "indexed": false,
          "internalType": "uint256",
          "name": "amount",
          "type": "uint256"
        }
      ],
      "name": "LogEmergencyWithdraw",
      "type": "event"
    },
    {
      "anonymous": false,
      "inputs": [
        {
          "indexed": true,
          "internalType": "address",
          "name": "previousOwner",
          "type": "address"
        },
        {
          "indexed": true,
          "internalType": "address",
          "name": "newOwner",
          "type": "address"
        }
      ],
      "name": "OwnershipTransferred",
      "type": "event"
    },
    {
      "anonymous": false,
      "inputs": [
        {
          "indexed": false,
          "internalType": "address",
          "name": "account",
          "type": "address"
        }
      ],
      "name": "Paused",
      "type": "event"
    },
    {
      "anonymous": false,
      "inputs": [
        {
          "indexed": false,
          "internalType": "address",
          "name": "account",
          "type": "address"
        }
      ],
      "name": "Unpaused",
      "type": "event"
    },
    {
      "inputs": [],
      "name": "dropsYearnMarket",
      "outputs": [
        {
          "internalType": "contract IDropsYearnMarket",
          "name": "",
          "type": "address"
        }
      ],
      "stateMutability": "view",
      "type": "function"
    },
    {
      "inputs": [
        {
          "internalType": "address",
          "name": "asset",
          "type": "address"
        },
        {
          "internalType": "address",
          "name": "receiver",
          "type": "address"
        }
      ],
      "name": "emergencyWithdraw",
      "outputs": [],
      "stateMutability": "nonpayable",
      "type": "function"
    },
    {
      "inputs": [
        {
          "internalType": "contract IYearnVault",
          "name": "_yVault",
          "type": "address"
        },
        {
          "internalType": "contract IDropsYearnMarket",
          "name": "_dropsYearnMarket",
          "type": "address"
        }
      ],
      "name": "initialize",
      "outputs": [],
      "stateMutability": "payable",
      "type": "function"
    },
    {
      "inputs": [],
      "name": "owner",
      "outputs": [
        {
          "internalType": "address",
          "name": "",
          "type": "address"
        }
      ],
      "stateMutability": "view",
      "type": "function"
    },
    {
      "inputs": [],
      "name": "pause",
      "outputs": [],
      "stateMutability": "nonpayable",
      "type": "function"
    },
    {
      "inputs": [],
      "name": "paused",
      "outputs": [
        {
          "internalType": "bool",
          "name": "",
          "type": "bool"
        }
      ],
      "stateMutability": "view",
      "type": "function"
    },
    {
      "inputs": [
        {
          "internalType": "address",
          "name": "receiver",
          "type": "address"
        },
        {
          "internalType": "uint256",
          "name": "amount",
          "type": "uint256"
        }
      ],
      "name": "redeem",
      "outputs": [
        {
          "internalType": "uint256",
          "name": "assets",
          "type": "uint256"
        }
      ],
      "stateMutability": "nonpayable",
      "type": "function"
    },
    {
      "inputs": [],
      "name": "renounceOwnership",
      "outputs": [],
      "stateMutability": "nonpayable",
      "type": "function"
    },
    {
      "inputs": [
        {
          "internalType": "uint256",
          "name": "amount",
          "type": "uint256"
        }
      ],
      "name": "repayInYVTokens",
      "outputs": [],
      "stateMutability": "nonpayable",
      "type": "function"
    },
    {
      "inputs": [
        {
          "internalType": "contract IYearnVault",
          "name": "_yVault",
          "type": "address"
        },
        {
          "internalType": "contract IDropsYearnMarket",
          "name": "_dropsYearnMarket",
          "type": "address"
        }
      ],
      "name": "setAddresses",
      "outputs": [],
      "stateMutability": "nonpayable",
      "type": "function"
    },
    {
      "inputs": [
        {
          "internalType": "uint256",
          "name": "amount",
          "type": "uint256"
        }
      ],
      "name": "supplyInYVTokens",
      "outputs": [],
      "stateMutability": "nonpayable",
      "type": "function"
    },
    {
      "inputs": [],
      "name": "token",
      "outputs": [
        {
          "internalType": "contract IERC20Upgradeable",
          "name": "",
          "type": "address"
        }
      ],
      "stateMutability": "view",
      "type": "function"
    },
    {
      "inputs": [
        {
          "internalType": "address",
          "name": "newOwner",
          "type": "address"
        }
      ],
      "name": "transferOwnership",
      "outputs": [],
      "stateMutability": "nonpayable",
      "type": "function"
    },
    {
      "inputs": [],
      "name": "unpause",
      "outputs": [],
      "stateMutability": "nonpayable",
      "type": "function"
    },
    {
      "inputs": [],
      "name": "yVault",
      "outputs": [
        {
          "internalType": "contract IYearnVault",
          "name": "",
          "type": "address"
        }
      ],
      "stateMutability": "view",
      "type": "function"
    }
  ],
  "transactionHash": "0xec37fe933d82b81570dca546ed025dab5a52e07fec7bf79434404dcb1ff1112f",
  "args": [],
  "solcInputHash": "619b181875baace002ea3f751bb63994",
  "bytecode": "0x608060405234801561001057600080fd5b50613268806100206000396000f3fe6080604052600436106100e85760003560e01c80638456cb591161008a578063ac4fef6311610059578063ac4fef6314610287578063ce1ce93a146102b2578063f2fde38b146102db578063fc0c546a14610304576100e8565b80638456cb59146101f35780638da5cb5b1461020a57806390107afe14610235578063ab2a2aea1461025e576100e8565b8063485cc955116100c6578063485cc9551461016c5780635c975abb146101885780636382d9ad146101b3578063715018a6146101dc576100e8565b80631e9a6950146100ed57806333303f8e1461012a5780633f4ba83a14610155575b600080fd5b3480156100f957600080fd5b50610114600480360381019061010f91906121e4565b61032f565b6040516101219190612b6b565b60405180910390f35b34801561013657600080fd5b5061013f610672565b60405161014c9190612873565b60405180910390f35b34801561016157600080fd5b5061016a610698565b005b61018660048036038101906101819190612272565b6106b2565b005b34801561019457600080fd5b5061019d61080c565b6040516101aa9190612822565b60405180910390f35b3480156101bf57600080fd5b506101da60048036038101906101d591906121a8565b610823565b005b3480156101e857600080fd5b506101f16109f2565b005b3480156101ff57600080fd5b50610208610a06565b005b34801561021657600080fd5b5061021f610a20565b60405161022c919061274e565b60405180910390f35b34801561024157600080fd5b5061025c60048036038101906102579190612272565b610a4a565b005b34801561026a57600080fd5b50610285600480360381019061028091906122ae565b610a60565b005b34801561029357600080fd5b5061029c610e78565b6040516102a9919061283d565b60405180910390f35b3480156102be57600080fd5b506102d960048036038101906102d491906122ae565b610e9e565b005b3480156102e757600080fd5b5061030260048036038101906102fd9190612156565b611071565b005b34801561031057600080fd5b506103196110f5565b6040516103269190612858565b60405180910390f35b600061033961111b565b610341611165565b60008211610384576040517f08c379a000000000000000000000000000000000000000000000000000000000815260040161037b90612a6b565b60405180910390fd5b600073ffffffffffffffffffffffffffffffffffffffff168373ffffffffffffffffffffffffffffffffffffffff1614156103f4576040517f08c379a00000000000000000000000000000000000000000000000000000000081526004016103eb90612b2b565b60405180910390fd5b60cb60009054906101000a900473ffffffffffffffffffffffffffffffffffffffff1673ffffffffffffffffffffffffffffffffffffffff163373ffffffffffffffffffffffffffffffffffffffff1614610484576040517f08c379a000000000000000000000000000000000000000000000000000000000815260040161047b90612a0b565b60405180910390fd5b8160c960009054906101000a900473ffffffffffffffffffffffffffffffffffffffff1673ffffffffffffffffffffffffffffffffffffffff166370a08231306040518263ffffffff1660e01b81526004016104e0919061274e565b60206040518083038186803b1580156104f857600080fd5b505afa15801561050c573d6000803e3d6000fd5b505050506040513d601f19601f8201168201806040525081019061053091906122d7565b1015610571576040517f08c379a0000000000000000000000000000000000000000000000000000000008152600401610568906129ab565b60405180910390fd5b60c960009054906101000a900473ffffffffffffffffffffffffffffffffffffffff1673ffffffffffffffffffffffffffffffffffffffff1662f714ce83856040518363ffffffff1660e01b81526004016105cd929190612b86565b602060405180830381600087803b1580156105e757600080fd5b505af11580156105fb573d6000803e3d6000fd5b505050506040513d601f19601f8201168201806040525081019061061f91906122d7565b905060008111610664576040517f08c379a000000000000000000000000000000000000000000000000000000000815260040161065b90612a2b565b60405180910390fd5b61066c6111b5565b92915050565b60c960009054906101000a900473ffffffffffffffffffffffffffffffffffffffff1681565b6106a06111be565b6106a8611207565b6106b0611285565b565b60008060019054906101000a900460ff161590508080156106e35750600160008054906101000a900460ff1660ff16105b8061071057506106f2306112e8565b15801561070f5750600160008054906101000a900460ff1660ff16145b5b61074f576040517f08c379a00000000000000000000000000000000000000000000000000000000081526004016107469061296b565b60405180910390fd5b60016000806101000a81548160ff021916908360ff160217905550801561078c576001600060016101000a81548160ff0219169083151502179055505b61079461130b565b61079c611364565b6107a46113bd565b6107ae8383611416565b80156108075760008060016101000a81548160ff0219169083151502179055507f7f26b83ff96e1f2b6a682f133852f6798a09c465da95921460cefb384740249860016040516107fe919061288e565b60405180910390a15b505050565b6000609760009054906101000a900460ff16905090565b61082b611207565b60008073ffffffffffffffffffffffffffffffffffffffff168373ffffffffffffffffffffffffffffffffffffffff1614156108c7573073ffffffffffffffffffffffffffffffffffffffff163190508173ffffffffffffffffffffffffffffffffffffffff166108fc829081150290604051600060405180830381858888f193505050501580156108c1573d6000803e3d6000fd5b5061097e565b8273ffffffffffffffffffffffffffffffffffffffff166370a08231306040518263ffffffff1660e01b8152600401610900919061274e565b60206040518083038186803b15801561091857600080fd5b505afa15801561092c573d6000803e3d6000fd5b505050506040513d601f19601f8201168201806040525081019061095091906122d7565b905061097d82828573ffffffffffffffffffffffffffffffffffffffff166116259092919063ffffffff16565b5b60008111156109ed578273ffffffffffffffffffffffffffffffffffffffff168273ffffffffffffffffffffffffffffffffffffffff167f46250b0a744e514bfdb95561a293ae5220bba28e3ef598ba6772e909fefd7cc7836040516109e49190612b6b565b60405180910390a35b505050565b6109fa611207565b610a0460006116ab565b565b610a0e61111b565b610a16611207565b610a1e611771565b565b6000606560009054906101000a900473ffffffffffffffffffffffffffffffffffffffff16905090565b610a52611207565b610a5c8282611416565b5050565b610a6861111b565b610a70611165565b60008111610ab3576040517f08c379a0000000000000000000000000000000000000000000000000000000008152600401610aaa90612a6b565b60405180910390fd5b60003390506000610ac482846117d4565b9050610b3560cb60009054906101000a900473ffffffffffffffffffffffffffffffffffffffff168260c960009054906101000a900473ffffffffffffffffffffffffffffffffffffffff1673ffffffffffffffffffffffffffffffffffffffff16611b279092919063ffffffff16565b600060cb60009054906101000a900473ffffffffffffffffffffffffffffffffffffffff1673ffffffffffffffffffffffffffffffffffffffff1663b723b34e83856040518363ffffffff1660e01b8152600401610b94929190612b86565b602060405180830381600087803b158015610bae57600080fd5b505af1158015610bc2573d6000803e3d6000fd5b505050506040513d601f19601f82011682018060405250810190610be691906122d7565b905060008114610c2b576040517f08c379a0000000000000000000000000000000000000000000000000000000008152600401610c2290612acb565b60405180910390fd5b600060cb60009054906101000a900473ffffffffffffffffffffffffffffffffffffffff1673ffffffffffffffffffffffffffffffffffffffff16635fe3b5676040518163ffffffff1660e01b815260040160206040518083038186803b158015610c9557600080fd5b505afa158015610ca9573d6000803e3d6000fd5b505050506040513d601f19601f82011682018060405250810190610ccd9190612249565b90506000600167ffffffffffffffff811115610d12577f4e487b7100000000000000000000000000000000000000000000000000000000600052604160045260246000fd5b604051908082528060200260200182016040528015610d405781602001602082028036833780820191505090505b50905060cb60009054906101000a900473ffffffffffffffffffffffffffffffffffffffff1681600081518110610da0577f4e487b7100000000000000000000000000000000000000000000000000000000600052603260045260246000fd5b602002602001019073ffffffffffffffffffffffffffffffffffffffff16908173ffffffffffffffffffffffffffffffffffffffff16815250508173ffffffffffffffffffffffffffffffffffffffff166333e4212982876040518363ffffffff1660e01b8152600401610e159291906127f2565b602060405180830381600087803b158015610e2f57600080fd5b505af1158015610e43573d6000803e3d6000fd5b505050506040513d601f19601f82011682018060405250810190610e6791906122d7565b505050505050610e756111b5565b50565b60cb60009054906101000a900473ffffffffffffffffffffffffffffffffffffffff1681565b610ea661111b565b610eae611165565b60008111610ef1576040517f08c379a0000000000000000000000000000000000000000000000000000000008152600401610ee890612a6b565b60405180910390fd5b6000610efd33836117d4565b9050610f6e60cb60009054906101000a900473ffffffffffffffffffffffffffffffffffffffff168260c960009054906101000a900473ffffffffffffffffffffffffffffffffffffffff1673ffffffffffffffffffffffffffffffffffffffff16611b279092919063ffffffff16565b600060cb60009054906101000a900473ffffffffffffffffffffffffffffffffffffffff1673ffffffffffffffffffffffffffffffffffffffff16632608f81833846040518363ffffffff1660e01b8152600401610fcd9291906127c9565b602060405180830381600087803b158015610fe757600080fd5b505af1158015610ffb573d6000803e3d6000fd5b505050506040513d601f19601f8201168201806040525081019061101f91906122d7565b905060008114611064576040517f08c379a000000000000000000000000000000000000000000000000000000000815260040161105b9061292b565b60405180910390fd5b505061106e6111b5565b50565b611079611207565b600073ffffffffffffffffffffffffffffffffffffffff168173ffffffffffffffffffffffffffffffffffffffff1614156110e9576040517f08c379a00000000000000000000000000000000000000000000000000000000081526004016110e0906128eb565b60405180910390fd5b6110f2816116ab565b50565b60ca60009054906101000a900473ffffffffffffffffffffffffffffffffffffffff1681565b61112361080c565b15611163576040517f08c379a000000000000000000000000000000000000000000000000000000000815260040161115a9061294b565b60405180910390fd5b565b600260015414156111ab576040517f08c379a00000000000000000000000000000000000000000000000000000000081526004016111a290612b0b565b60405180910390fd5b6002600181905550565b60018081905550565b6111c661080c565b611205576040517f08c379a00000000000000000000000000000000000000000000000000000000081526004016111fc906128cb565b60405180910390fd5b565b61120f611c85565b73ffffffffffffffffffffffffffffffffffffffff1661122d610a20565b73ffffffffffffffffffffffffffffffffffffffff1614611283576040517f08c379a000000000000000000000000000000000000000000000000000000000815260040161127a906129cb565b60405180910390fd5b565b61128d6111be565b6000609760006101000a81548160ff0219169083151502179055507f5db9ee0a495bf2e6ff9c91a7834c1ba4fdd244a5e8aa4e537bd38aeae4b073aa6112d1611c85565b6040516112de919061274e565b60405180910390a1565b6000808273ffffffffffffffffffffffffffffffffffffffff163b119050919050565b600060019054906101000a900460ff1661135a576040517f08c379a000000000000000000000000000000000000000000000000000000000815260040161135190612aab565b60405180910390fd5b611362611c8d565b565b600060019054906101000a900460ff166113b3576040517f08c379a00000000000000000000000000000000000000000000000000000000081526004016113aa90612aab565b60405180910390fd5b6113bb611cee565b565b600060019054906101000a900460ff1661140c576040517f08c379a000000000000000000000000000000000000000000000000000000000815260040161140390612aab565b60405180910390fd5b611414611d46565b565b600073ffffffffffffffffffffffffffffffffffffffff168273ffffffffffffffffffffffffffffffffffffffff16141580156114805750600073ffffffffffffffffffffffffffffffffffffffff168173ffffffffffffffffffffffffffffffffffffffff1614155b6114bf576040517f08c379a00000000000000000000000000000000000000000000000000000000081526004016114b690612a8b565b60405180910390fd5b8160c960006101000a81548173ffffffffffffffffffffffffffffffffffffffff021916908373ffffffffffffffffffffffffffffffffffffffff1602179055508060cb60006101000a81548173ffffffffffffffffffffffffffffffffffffffff021916908373ffffffffffffffffffffffffffffffffffffffff16021790555060c960009054906101000a900473ffffffffffffffffffffffffffffffffffffffff1673ffffffffffffffffffffffffffffffffffffffff1663fc0c546a6040518163ffffffff1660e01b815260040160206040518083038186803b1580156115a957600080fd5b505afa1580156115bd573d6000803e3d6000fd5b505050506040513d601f19601f820116820180604052508101906115e1919061217f565b60ca60006101000a81548173ffffffffffffffffffffffffffffffffffffffff021916908373ffffffffffffffffffffffffffffffffffffffff1602179055505050565b6116a68363a9059cbb60e01b84846040516024016116449291906127c9565b604051602081830303815290604052907bffffffffffffffffffffffffffffffffffffffffffffffffffffffff19166020820180517bffffffffffffffffffffffffffffffffffffffffffffffffffffffff8381831617835250505050611db2565b505050565b6000606560009054906101000a900473ffffffffffffffffffffffffffffffffffffffff16905081606560006101000a81548173ffffffffffffffffffffffffffffffffffffffff021916908373ffffffffffffffffffffffffffffffffffffffff1602179055508173ffffffffffffffffffffffffffffffffffffffff168173ffffffffffffffffffffffffffffffffffffffff167f8be0079c531659141344cd1fd0a4f28419497f9722a3daafe3b4186f6b6457e060405160405180910390a35050565b61177961111b565b6001609760006101000a81548160ff0219169083151502179055507f62e78cea01bee320cd4e420270b5ea74000d11b0c9f74754ebdbfc544b05a2586117bd611c85565b6040516117ca919061274e565b60405180910390a1565b60008160ca60009054906101000a900473ffffffffffffffffffffffffffffffffffffffff1673ffffffffffffffffffffffffffffffffffffffff1663dd62ed3e85306040518363ffffffff1660e01b8152600401611834929190612769565b60206040518083038186803b15801561184c57600080fd5b505afa158015611860573d6000803e3d6000fd5b505050506040513d601f19601f8201168201806040525081019061188491906122d7565b10156118c5576040517f08c379a00000000000000000000000000000000000000000000000000000000081526004016118bc906129eb565b60405180910390fd5b61191483308460ca60009054906101000a900473ffffffffffffffffffffffffffffffffffffffff1673ffffffffffffffffffffffffffffffffffffffff16611e7a909392919063ffffffff16565b61198360c960009054906101000a900473ffffffffffffffffffffffffffffffffffffffff168360ca60009054906101000a900473ffffffffffffffffffffffffffffffffffffffff1673ffffffffffffffffffffffffffffffffffffffff16611b279092919063ffffffff16565b60c960009054906101000a900473ffffffffffffffffffffffffffffffffffffffff1673ffffffffffffffffffffffffffffffffffffffff16636e553f6583306040518363ffffffff1660e01b81526004016119e0929190612b86565b602060405180830381600087803b1580156119fa57600080fd5b505af1158015611a0e573d6000803e3d6000fd5b505050506040513d601f19601f82011682018060405250810190611a3291906122d7565b90508060c960009054906101000a900473ffffffffffffffffffffffffffffffffffffffff1673ffffffffffffffffffffffffffffffffffffffff166370a08231306040518263ffffffff1660e01b8152600401611a90919061274e565b60206040518083038186803b158015611aa857600080fd5b505afa158015611abc573d6000803e3d6000fd5b505050506040513d601f19601f82011682018060405250810190611ae091906122d7565b1015611b21576040517f08c379a0000000000000000000000000000000000000000000000000000000008152600401611b189061298b565b60405180910390fd5b92915050565b6000811480611bc0575060008373ffffffffffffffffffffffffffffffffffffffff1663dd62ed3e30856040518363ffffffff1660e01b8152600401611b6e929190612769565b60206040518083038186803b158015611b8657600080fd5b505afa158015611b9a573d6000803e3d6000fd5b505050506040513d601f19601f82011682018060405250810190611bbe91906122d7565b145b611bff576040517f08c379a0000000000000000000000000000000000000000000000000000000008152600401611bf690612b4b565b60405180910390fd5b611c808363095ea7b360e01b8484604051602401611c1e9291906127c9565b604051602081830303815290604052907bffffffffffffffffffffffffffffffffffffffffffffffffffffffff19166020820180517bffffffffffffffffffffffffffffffffffffffffffffffffffffffff8381831617835250505050611db2565b505050565b600033905090565b600060019054906101000a900460ff16611cdc576040517f08c379a0000000000000000000000000000000000000000000000000000000008152600401611cd390612aab565b60405180910390fd5b611cec611ce7611c85565b6116ab565b565b600060019054906101000a900460ff16611d3d576040517f08c379a0000000000000000000000000000000000000000000000000000000008152600401611d3490612aab565b60405180910390fd5b60018081905550565b600060019054906101000a900460ff16611d95576040517f08c379a0000000000000000000000000000000000000000000000000000000008152600401611d8c90612aab565b60405180910390fd5b6000609760006101000a81548160ff021916908315150217905550565b6000611e14826040518060400160405280602081526020017f5361666545524332303a206c6f772d6c6576656c2063616c6c206661696c65648152508573ffffffffffffffffffffffffffffffffffffffff16611f039092919063ffffffff16565b9050600081511480611e36575080806020019051810190611e359190612220565b5b611e75576040517f08c379a0000000000000000000000000000000000000000000000000000000008152600401611e6c90612aeb565b60405180910390fd5b505050565b611efd846323b872dd60e01b858585604051602401611e9b93929190612792565b604051602081830303815290604052907bffffffffffffffffffffffffffffffffffffffffffffffffffffffff19166020820180517bffffffffffffffffffffffffffffffffffffffffffffffffffffffff8381831617835250505050611db2565b50505050565b6060611f128484600085611f1b565b90509392505050565b606082471015611f60576040517f08c379a0000000000000000000000000000000000000000000000000000000008152600401611f579061290b565b60405180910390fd5b6000808673ffffffffffffffffffffffffffffffffffffffff168587604051611f899190612737565b60006040518083038185875af1925050503d8060008114611fc6576040519150601f19603f3d011682016040523d82523d6000602084013e611fcb565b606091505b5091509150611fdc87838387611fe8565b92505050949350505050565b6060831561204b5760008351141561204357612003856112e8565b612042576040517f08c379a000000000000000000000000000000000000000000000000000000000815260040161203990612a4b565b60405180910390fd5b5b829050612056565b612055838361205e565b5b949350505050565b6000825111156120715781518083602001fd5b806040517f08c379a00000000000000000000000000000000000000000000000000000000081526004016120a591906128a9565b60405180910390fd5b6000813590506120bd816131a8565b92915050565b6000815190506120d2816131a8565b92915050565b6000815190506120e7816131bf565b92915050565b6000815190506120fc816131d6565b92915050565b600081359050612111816131ed565b92915050565b60008135905061212681613204565b92915050565b60008135905061213b8161321b565b92915050565b6000815190506121508161321b565b92915050565b60006020828403121561216857600080fd5b6000612176848285016120ae565b91505092915050565b60006020828403121561219157600080fd5b600061219f848285016120c3565b91505092915050565b600080604083850312156121bb57600080fd5b60006121c9858286016120ae565b92505060206121da858286016120ae565b9150509250929050565b600080604083850312156121f757600080fd5b6000612205858286016120ae565b92505060206122168582860161212c565b9150509250929050565b60006020828403121561223257600080fd5b6000612240848285016120d8565b91505092915050565b60006020828403121561225b57600080fd5b6000612269848285016120ed565b91505092915050565b6000806040838503121561228557600080fd5b600061229385828601612117565b92505060206122a485828601612102565b9150509250929050565b6000602082840312156122c057600080fd5b60006122ce8482850161212c565b91505092915050565b6000602082840312156122e957600080fd5b60006122f784828501612141565b91505092915050565b600061230c8383612318565b60208301905092915050565b61232181612c1a565b82525050565b61233081612c1a565b82525050565b600061234182612bbf565b61234b8185612bed565b935061235683612baf565b8060005b8381101561238757815161236e8882612300565b975061237983612be0565b92505060018101905061235a565b5085935050505092915050565b61239d81612c2c565b82525050565b60006123ae82612bca565b6123b88185612bfe565b93506123c8818560208601612d23565b80840191505092915050565b6123dd81612ca5565b82525050565b6123ec81612cc9565b82525050565b6123fb81612ced565b82525050565b61240a81612d11565b82525050565b600061241b82612bd5565b6124258185612c09565b9350612435818560208601612d23565b61243e81612d56565b840191505092915050565b6000612456601483612c09565b915061246182612d67565b602082019050919050565b6000612479602683612c09565b915061248482612d90565b604082019050919050565b600061249c602683612c09565b91506124a782612ddf565b604082019050919050565b60006124bf601283612c09565b91506124ca82612e2e565b602082019050919050565b60006124e2601083612c09565b91506124ed82612e57565b602082019050919050565b6000612505602e83612c09565b915061251082612e80565b604082019050919050565b6000612528600883612c09565b915061253382612ecf565b602082019050919050565b600061254b600c83612c09565b915061255682612ef8565b602082019050919050565b600061256e602083612c09565b915061257982612f21565b602082019050919050565b6000612591600a83612c09565b915061259c82612f4a565b602082019050919050565b60006125b4600783612c09565b91506125bf82612f73565b602082019050919050565b60006125d7600783612c09565b91506125e282612f9c565b602082019050919050565b60006125fa601d83612c09565b915061260582612fc5565b602082019050919050565b600061261d600783612c09565b915061262882612fee565b602082019050919050565b6000612640600883612c09565b915061264b82613017565b602082019050919050565b6000612663602b83612c09565b915061266e82613040565b604082019050919050565b6000612686600583612c09565b91506126918261308f565b602082019050919050565b60006126a9602a83612c09565b91506126b4826130b8565b604082019050919050565b60006126cc601f83612c09565b91506126d782613107565b602082019050919050565b60006126ef600983612c09565b91506126fa82613130565b602082019050919050565b6000612712603683612c09565b915061271d82613159565b604082019050919050565b61273181612c8e565b82525050565b600061274382846123a3565b915081905092915050565b60006020820190506127636000830184612327565b92915050565b600060408201905061277e6000830185612327565b61278b6020830184612327565b9392505050565b60006060820190506127a76000830186612327565b6127b46020830185612327565b6127c16040830184612728565b949350505050565b60006040820190506127de6000830185612327565b6127eb6020830184612728565b9392505050565b6000604082019050818103600083015261280c8185612336565b905061281b6020830184612327565b9392505050565b60006020820190506128376000830184612394565b92915050565b600060208201905061285260008301846123d4565b92915050565b600060208201905061286d60008301846123e3565b92915050565b600060208201905061288860008301846123f2565b92915050565b60006020820190506128a36000830184612401565b92915050565b600060208201905081810360008301526128c38184612410565b905092915050565b600060208201905081810360008301526128e481612449565b9050919050565b600060208201905081810360008301526129048161246c565b9050919050565b600060208201905081810360008301526129248161248f565b9050919050565b60006020820190508181036000830152612944816124b2565b9050919050565b60006020820190508181036000830152612964816124d5565b9050919050565b60006020820190508181036000830152612984816124f8565b9050919050565b600060208201905081810360008301526129a48161251b565b9050919050565b600060208201905081810360008301526129c48161253e565b9050919050565b600060208201905081810360008301526129e481612561565b9050919050565b60006020820190508181036000830152612a0481612584565b9050919050565b60006020820190508181036000830152612a24816125a7565b9050919050565b60006020820190508181036000830152612a44816125ca565b9050919050565b60006020820190508181036000830152612a64816125ed565b9050919050565b60006020820190508181036000830152612a8481612610565b9050919050565b60006020820190508181036000830152612aa481612633565b9050919050565b60006020820190508181036000830152612ac481612656565b9050919050565b60006020820190508181036000830152612ae481612679565b9050919050565b60006020820190508181036000830152612b048161269c565b9050919050565b60006020820190508181036000830152612b24816126bf565b9050919050565b60006020820190508181036000830152612b44816126e2565b9050919050565b60006020820190508181036000830152612b6481612705565b9050919050565b6000602082019050612b806000830184612728565b92915050565b6000604082019050612b9b6000830185612728565b612ba86020830184612327565b9392505050565b6000819050602082019050919050565b600081519050919050565b600081519050919050565b600081519050919050565b6000602082019050919050565b600082825260208201905092915050565b600081905092915050565b600082825260208201905092915050565b6000612c2582612c6e565b9050919050565b60008115159050919050565b6000612c4382612c1a565b9050919050565b6000612c5582612c1a565b9050919050565b6000612c6782612c1a565b9050919050565b600073ffffffffffffffffffffffffffffffffffffffff82169050919050565b6000819050919050565b600060ff82169050919050565b6000612cb082612cb7565b9050919050565b6000612cc282612c6e565b9050919050565b6000612cd482612cdb565b9050919050565b6000612ce682612c6e565b9050919050565b6000612cf882612cff565b9050919050565b6000612d0a82612c6e565b9050919050565b6000612d1c82612c98565b9050919050565b60005b83811015612d41578082015181840152602081019050612d26565b83811115612d50576000848401525b50505050565b6000601f19601f8301169050919050565b7f5061757361626c653a206e6f7420706175736564000000000000000000000000600082015250565b7f4f776e61626c653a206e6577206f776e657220697320746865207a65726f206160008201527f6464726573730000000000000000000000000000000000000000000000000000602082015250565b7f416464726573733a20696e73756666696369656e742062616c616e636520666f60008201527f722063616c6c0000000000000000000000000000000000000000000000000000602082015250565b7f217265706179426f72726f77426568616c660000000000000000000000000000600082015250565b7f5061757361626c653a2070617573656400000000000000000000000000000000600082015250565b7f496e697469616c697a61626c653a20636f6e747261637420697320616c72656160008201527f647920696e697469616c697a6564000000000000000000000000000000000000602082015250565b7f216465706f736974000000000000000000000000000000000000000000000000600082015250565b7f217661756c74416d6f756e740000000000000000000000000000000000000000600082015250565b7f4f776e61626c653a2063616c6c6572206973206e6f7420746865206f776e6572600082015250565b7f21616c6c6f77616e636500000000000000000000000000000000000000000000600082015250565b7f216d61726b657400000000000000000000000000000000000000000000000000600082015250565b7f2161737365747300000000000000000000000000000000000000000000000000600082015250565b7f416464726573733a2063616c6c20746f206e6f6e2d636f6e7472616374000000600082015250565b7f21616d6f756e7400000000000000000000000000000000000000000000000000600082015250565b7f2161646472657373000000000000000000000000000000000000000000000000600082015250565b7f496e697469616c697a61626c653a20636f6e7472616374206973206e6f74206960008201527f6e697469616c697a696e67000000000000000000000000000000000000000000602082015250565b7f216d696e74000000000000000000000000000000000000000000000000000000600082015250565b7f5361666545524332303a204552433230206f7065726174696f6e20646964206e60008201527f6f74207375636365656400000000000000000000000000000000000000000000602082015250565b7f5265656e7472616e637947756172643a207265656e7472616e742063616c6c00600082015250565b7f2172656365697665720000000000000000000000000000000000000000000000600082015250565b7f5361666545524332303a20617070726f76652066726f6d206e6f6e2d7a65726f60008201527f20746f206e6f6e2d7a65726f20616c6c6f77616e636500000000000000000000602082015250565b6131b181612c1a565b81146131bc57600080fd5b50565b6131c881612c2c565b81146131d357600080fd5b50565b6131df81612c38565b81146131ea57600080fd5b50565b6131f681612c4a565b811461320157600080fd5b50565b61320d81612c5c565b811461321857600080fd5b50565b61322481612c8e565b811461322f57600080fd5b5056fea26469706673582212202b35d7985612b33f22d4b281ea2caf3bd96a710a3dacfaa645d0e4eafbab1aba64736f6c63430008040033",
  "devdoc": {
    "kind": "dev",
    "methods": {
      "owner()": {
        "details": "Returns the address of the current owner."
      },
      "paused()": {
        "details": "Returns true if the contract is paused, and false otherwise."
      },
      "renounceOwnership()": {
        "details": "Leaves the contract without owner. It will not be possible to call `onlyOwner` functions. Can only be called by the current owner. NOTE: Renouncing ownership will leave the contract without an owner, thereby disabling any functionality that is only available to the owner."
      },
      "repayInYVTokens(uint256)": {
        "details": "callter should approve this contract before calling.      deposit tokens into yearn yVault and receives yvTokens (yVault shares)      repay in yvTokens"
      },
      "supplyInYVTokens(uint256)": {
        "details": "callter should approve this contract before calling.      deposit tokens into yearn yVault and receives yvTokens (yVault shares)      supply yvTokens into market and enable them as collateral"
      },
      "transferOwnership(address)": {
        "details": "Transfers ownership of the contract to a new account (`newOwner`). Can only be called by the current owner."
      }
    },
    "version": 1
  },
  "userdoc": {
    "events": {
      "LogEmergencyWithdraw(address,address,uint256)": {
        "notice": "emitted when withdraw happens"
      }
    },
    "kind": "user",
    "methods": {
      "dropsYearnMarket()": {
        "notice": "token to deposit into yearn yVault"
      },
      "redeem(address,uint256)": {
        "notice": "market will call this function to withdraw tokens from yearn yVault (yvToken)"
      },
      "repayInYVTokens(uint256)": {
        "notice": "repay in yvTokens"
      },
      "supplyInYVTokens(uint256)": {
        "notice": "supply yvTokens into market"
      },
      "token()": {
        "notice": "token to deposit into yearn yVault"
      },
      "yVault()": {
        "notice": "yearn Vault"
      }
    },
    "version": 1
  },
  "storageLayout": {
    "storage": [
      {
        "astId": 186,
        "contract": "contracts/d6-market-migrations/YVTokenMigration.sol:YVTokenMigration",
        "label": "_initialized",
        "offset": 0,
        "slot": "0",
        "type": "t_uint8"
      },
      {
        "astId": 189,
        "contract": "contracts/d6-market-migrations/YVTokenMigration.sol:YVTokenMigration",
        "label": "_initializing",
        "offset": 1,
        "slot": "0",
        "type": "t_bool"
      },
      {
        "astId": 489,
        "contract": "contracts/d6-market-migrations/YVTokenMigration.sol:YVTokenMigration",
        "label": "_status",
        "offset": 0,
        "slot": "1",
        "type": "t_uint256"
      },
      {
        "astId": 558,
        "contract": "contracts/d6-market-migrations/YVTokenMigration.sol:YVTokenMigration",
        "label": "__gap",
        "offset": 0,
        "slot": "2",
        "type": "t_array(t_uint256)49_storage"
      },
      {
        "astId": 1420,
        "contract": "contracts/d6-market-migrations/YVTokenMigration.sol:YVTokenMigration",
        "label": "__gap",
        "offset": 0,
        "slot": "51",
        "type": "t_array(t_uint256)50_storage"
      },
      {
        "astId": 58,
        "contract": "contracts/d6-market-migrations/YVTokenMigration.sol:YVTokenMigration",
        "label": "_owner",
        "offset": 0,
        "slot": "101",
        "type": "t_address"
      },
      {
        "astId": 178,
        "contract": "contracts/d6-market-migrations/YVTokenMigration.sol:YVTokenMigration",
        "label": "__gap",
        "offset": 0,
        "slot": "102",
        "type": "t_array(t_uint256)49_storage"
      },
      {
        "astId": 369,
        "contract": "contracts/d6-market-migrations/YVTokenMigration.sol:YVTokenMigration",
        "label": "_paused",
        "offset": 0,
        "slot": "151",
        "type": "t_bool"
      },
      {
        "astId": 474,
        "contract": "contracts/d6-market-migrations/YVTokenMigration.sol:YVTokenMigration",
        "label": "__gap",
        "offset": 0,
        "slot": "152",
        "type": "t_array(t_uint256)49_storage"
      },
      {
        "astId": 1549,
        "contract": "contracts/d6-market-migrations/YVTokenMigration.sol:YVTokenMigration",
        "label": "yVault",
        "offset": 0,
        "slot": "201",
        "type": "t_contract(IYearnVault)2167"
      },
      {
        "astId": 1553,
        "contract": "contracts/d6-market-migrations/YVTokenMigration.sol:YVTokenMigration",
        "label": "token",
        "offset": 0,
        "slot": "202",
        "type": "t_contract(IERC20Upgradeable)637"
      },
      {
        "astId": 1557,
        "contract": "contracts/d6-market-migrations/YVTokenMigration.sol:YVTokenMigration",
        "label": "dropsYearnMarket",
        "offset": 0,
        "slot": "203",
        "type": "t_contract(IDropsYearnMarket)2097"
      }
    ],
    "types": {
      "t_address": {
        "encoding": "inplace",
        "label": "address",
        "numberOfBytes": "20"
      },
      "t_array(t_uint256)49_storage": {
        "base": "t_uint256",
        "encoding": "inplace",
        "label": "uint256[49]",
        "numberOfBytes": "1568"
      },
      "t_array(t_uint256)50_storage": {
        "base": "t_uint256",
        "encoding": "inplace",
        "label": "uint256[50]",
        "numberOfBytes": "1600"
      },
      "t_bool": {
        "encoding": "inplace",
        "label": "bool",
        "numberOfBytes": "1"
      },
      "t_contract(IDropsYearnMarket)2097": {
        "encoding": "inplace",
        "label": "contract IDropsYearnMarket",
        "numberOfBytes": "20"
      },
      "t_contract(IERC20Upgradeable)637": {
        "encoding": "inplace",
        "label": "contract IERC20Upgradeable",
        "numberOfBytes": "20"
      },
      "t_contract(IYearnVault)2167": {
        "encoding": "inplace",
        "label": "contract IYearnVault",
        "numberOfBytes": "20"
      },
      "t_uint256": {
        "encoding": "inplace",
        "label": "uint256",
        "numberOfBytes": "32"
      },
      "t_uint8": {
        "encoding": "inplace",
        "label": "uint8",
        "numberOfBytes": "1"
      }
    }
  }
}