{
  "address": "0xe32DABfe23cd630f592794e939A18dF039bE57ea",
  "abi": [
    {
      "anonymous": false,
      "inputs": [
        {
          "indexed": false,
          "internalType": "uint8",
          "name": "version",
          "type": "uint8"
        }
      ],
      "name": "Initialized",
      "type": "event"
    },
    {
      "anonymous": false,
      "inputs": [
        {
          "indexed": true,
          "internalType": "address",
          "name": "from",
          "type": "address"
        },
        {
          "indexed": true,
          "internalType": "address",
          "name": "token",
          "type": "address"
        },
        {
          "indexed": false,
          "internalType": "uint256",
          "name": "amount",
          "type": "uint256"
        }
      ],
      "name": "LogEmergencyWithdraw",
      "type": "event"
    },
    {
      "anonymous": false,
      "inputs": [
        {
          "indexed": true,
          "internalType": "address",
          "name": "previousOwner",
          "type": "address"
        },
        {
          "indexed": true,
          "internalType": "address",
          "name": "newOwner",
          "type": "address"
        }
      ],
      "name": "OwnershipTransferred",
      "type": "event"
    },
    {
      "anonymous": false,
      "inputs": [
        {
          "indexed": false,
          "internalType": "address",
          "name": "account",
          "type": "address"
        }
      ],
      "name": "Paused",
      "type": "event"
    },
    {
      "anonymous": false,
      "inputs": [
        {
          "indexed": false,
          "internalType": "address",
          "name": "account",
          "type": "address"
        }
      ],
      "name": "Unpaused",
      "type": "event"
    },
    {
      "inputs": [],
      "name": "dropsYearnMarket",
      "outputs": [
        {
          "internalType": "contract IDropsYearnMarket",
          "name": "",
          "type": "address"
        }
      ],
      "stateMutability": "view",
      "type": "function"
    },
    {
      "inputs": [
        {
          "internalType": "address",
          "name": "asset",
          "type": "address"
        },
        {
          "internalType": "address",
          "name": "receiver",
          "type": "address"
        }
      ],
      "name": "emergencyWithdraw",
      "outputs": [],
      "stateMutability": "nonpayable",
      "type": "function"
    },
    {
      "inputs": [
        {
          "internalType": "contract IYearnVault",
          "name": "_yVault",
          "type": "address"
        },
        {
          "internalType": "contract IDropsYearnMarket",
          "name": "_dropsYearnMarket",
          "type": "address"
        }
      ],
      "name": "initialize",
      "outputs": [],
      "stateMutability": "payable",
      "type": "function"
    },
    {
      "inputs": [],
      "name": "owner",
      "outputs": [
        {
          "internalType": "address",
          "name": "",
          "type": "address"
        }
      ],
      "stateMutability": "view",
      "type": "function"
    },
    {
      "inputs": [],
      "name": "pause",
      "outputs": [],
      "stateMutability": "nonpayable",
      "type": "function"
    },
    {
      "inputs": [],
      "name": "paused",
      "outputs": [
        {
          "internalType": "bool",
          "name": "",
          "type": "bool"
        }
      ],
      "stateMutability": "view",
      "type": "function"
    },
    {
      "inputs": [
        {
          "internalType": "address",
          "name": "receiver",
          "type": "address"
        },
        {
          "internalType": "uint256",
          "name": "amount",
          "type": "uint256"
        }
      ],
      "name": "redeem",
      "outputs": [
        {
          "internalType": "uint256",
          "name": "assets",
          "type": "uint256"
        }
      ],
      "stateMutability": "nonpayable",
      "type": "function"
    },
    {
      "inputs": [],
      "name": "renounceOwnership",
      "outputs": [],
      "stateMutability": "nonpayable",
      "type": "function"
    },
    {
      "inputs": [
        {
          "internalType": "uint256",
          "name": "amount",
          "type": "uint256"
        }
      ],
      "name": "repayInYVTokens",
      "outputs": [],
      "stateMutability": "nonpayable",
      "type": "function"
    },
    {
      "inputs": [
        {
          "internalType": "contract IYearnVault",
          "name": "_yVault",
          "type": "address"
        },
        {
          "internalType": "contract IDropsYearnMarket",
          "name": "_dropsYearnMarket",
          "type": "address"
        }
      ],
      "name": "setAddresses",
      "outputs": [],
      "stateMutability": "nonpayable",
      "type": "function"
    },
    {
      "inputs": [
        {
          "internalType": "uint256",
          "name": "amount",
          "type": "uint256"
        }
      ],
      "name": "supplyInYVTokens",
      "outputs": [],
      "stateMutability": "nonpayable",
      "type": "function"
    },
    {
      "inputs": [],
      "name": "token",
      "outputs": [
        {
          "internalType": "contract IERC20Upgradeable",
          "name": "",
          "type": "address"
        }
      ],
      "stateMutability": "view",
      "type": "function"
    },
    {
      "inputs": [
        {
          "internalType": "address",
          "name": "newOwner",
          "type": "address"
        }
      ],
      "name": "transferOwnership",
      "outputs": [],
      "stateMutability": "nonpayable",
      "type": "function"
    },
    {
      "inputs": [],
      "name": "unpause",
      "outputs": [],
      "stateMutability": "nonpayable",
      "type": "function"
    },
    {
      "inputs": [],
      "name": "yVault",
      "outputs": [
        {
          "internalType": "contract IYearnVault",
          "name": "",
          "type": "address"
        }
      ],
      "stateMutability": "view",
      "type": "function"
    }
  ],
  "transactionHash": "0x4c89abde34c95ab94ed1cf88f8e400e9c47e894b18f37ca1d573d6e6c41232d8",
  "args": [],
  "solcInputHash": "3fe99b477e0bd405d22a940f60a67189",
  "bytecode": "0x608060405234801561001057600080fd5b50612d5f806100206000396000f3fe6080604052600436106100e85760003560e01c80638456cb591161008a578063ac4fef6311610059578063ac4fef6314610287578063ce1ce93a146102b2578063f2fde38b146102db578063fc0c546a14610304576100e8565b80638456cb59146101f35780638da5cb5b1461020a57806390107afe14610235578063ab2a2aea1461025e576100e8565b8063485cc955116100c6578063485cc9551461016c5780635c975abb146101885780636382d9ad146101b3578063715018a6146101dc576100e8565b80631e9a6950146100ed57806333303f8e1461012a5780633f4ba83a14610155575b600080fd5b3480156100f957600080fd5b50610114600480360381019061010f9190611eb1565b61032f565b604051610121919061272c565b60405180910390f35b34801561013657600080fd5b5061013f6105bf565b60405161014c91906124b4565b60405180910390f35b34801561016157600080fd5b5061016a6105e5565b005b61018660048036038101906101819190611f3f565b6105ff565b005b34801561019457600080fd5b5061019d610759565b6040516101aa9190612463565b60405180910390f35b3480156101bf57600080fd5b506101da60048036038101906101d59190611e75565b610770565b005b3480156101e857600080fd5b506101f161093f565b005b3480156101ff57600080fd5b50610208610953565b005b34801561021657600080fd5b5061021f61096d565b60405161022c919061238f565b60405180910390f35b34801561024157600080fd5b5061025c60048036038101906102579190611f3f565b610997565b005b34801561026a57600080fd5b5061028560048036038101906102809190611f7b565b610b05565b005b34801561029357600080fd5b5061029c610e6c565b6040516102a9919061247e565b60405180910390f35b3480156102be57600080fd5b506102d960048036038101906102d49190611f7b565b610e92565b005b3480156102e757600080fd5b5061030260048036038101906102fd9190611e23565b610fb4565b005b34801561031057600080fd5b50610319611038565b6040516103269190612499565b60405180910390f35b600061033961105e565b6103416110a8565b60cb60009054906101000a900473ffffffffffffffffffffffffffffffffffffffff1673ffffffffffffffffffffffffffffffffffffffff163373ffffffffffffffffffffffffffffffffffffffff16146103d1576040517f08c379a00000000000000000000000000000000000000000000000000000000081526004016103c89061264c565b60405180910390fd5b8160c960009054906101000a900473ffffffffffffffffffffffffffffffffffffffff1673ffffffffffffffffffffffffffffffffffffffff166370a08231306040518263ffffffff1660e01b815260040161042d919061238f565b60206040518083038186803b15801561044557600080fd5b505afa158015610459573d6000803e3d6000fd5b505050506040513d601f19601f8201168201806040525081019061047d9190611fa4565b10156104be576040517f08c379a00000000000000000000000000000000000000000000000000000000081526004016104b5906125ec565b60405180910390fd5b60c960009054906101000a900473ffffffffffffffffffffffffffffffffffffffff1673ffffffffffffffffffffffffffffffffffffffff1662f714ce83856040518363ffffffff1660e01b815260040161051a929190612747565b602060405180830381600087803b15801561053457600080fd5b505af1158015610548573d6000803e3d6000fd5b505050506040513d601f19601f8201168201806040525081019061056c9190611fa4565b9050600081116105b1576040517f08c379a00000000000000000000000000000000000000000000000000000000081526004016105a89061266c565b60405180910390fd5b6105b96110f8565b92915050565b60c960009054906101000a900473ffffffffffffffffffffffffffffffffffffffff1681565b6105ed611101565b6105f561114a565b6105fd6111c8565b565b60008060019054906101000a900460ff161590508080156106305750600160008054906101000a900460ff1660ff16105b8061065d575061063f3061122b565b15801561065c5750600160008054906101000a900460ff1660ff16145b5b61069c576040517f08c379a0000000000000000000000000000000000000000000000000000000008152600401610693906125ac565b60405180910390fd5b60016000806101000a81548160ff021916908360ff16021790555080156106d9576001600060016101000a81548160ff0219169083151502179055505b6106e161124e565b6106e96112a7565b6106f1611300565b6106fb8383611359565b80156107545760008060016101000a81548160ff0219169083151502179055507f7f26b83ff96e1f2b6a682f133852f6798a09c465da95921460cefb3847402498600160405161074b91906124cf565b60405180910390a15b505050565b6000609760009054906101000a900460ff16905090565b61077861114a565b60008073ffffffffffffffffffffffffffffffffffffffff168373ffffffffffffffffffffffffffffffffffffffff161415610814573073ffffffffffffffffffffffffffffffffffffffff163190508173ffffffffffffffffffffffffffffffffffffffff166108fc829081150290604051600060405180830381858888f1935050505015801561080e573d6000803e3d6000fd5b506108cb565b8273ffffffffffffffffffffffffffffffffffffffff166370a08231306040518263ffffffff1660e01b815260040161084d919061238f565b60206040518083038186803b15801561086557600080fd5b505afa158015610879573d6000803e3d6000fd5b505050506040513d601f19601f8201168201806040525081019061089d9190611fa4565b90506108ca82828573ffffffffffffffffffffffffffffffffffffffff166114bf9092919063ffffffff16565b5b600081111561093a578273ffffffffffffffffffffffffffffffffffffffff168273ffffffffffffffffffffffffffffffffffffffff167f46250b0a744e514bfdb95561a293ae5220bba28e3ef598ba6772e909fefd7cc783604051610931919061272c565b60405180910390a35b505050565b61094761114a565b6109516000611545565b565b61095b61105e565b61096361114a565b61096b61160b565b565b6000606560009054906101000a900473ffffffffffffffffffffffffffffffffffffffff16905090565b61099f61114a565b8160c960006101000a81548173ffffffffffffffffffffffffffffffffffffffff021916908373ffffffffffffffffffffffffffffffffffffffff1602179055508060cb60006101000a81548173ffffffffffffffffffffffffffffffffffffffff021916908373ffffffffffffffffffffffffffffffffffffffff16021790555060c960009054906101000a900473ffffffffffffffffffffffffffffffffffffffff1673ffffffffffffffffffffffffffffffffffffffff1663fc0c546a6040518163ffffffff1660e01b815260040160206040518083038186803b158015610a8957600080fd5b505afa158015610a9d573d6000803e3d6000fd5b505050506040513d601f19601f82011682018060405250810190610ac19190611e4c565b60ca60006101000a81548173ffffffffffffffffffffffffffffffffffffffff021916908373ffffffffffffffffffffffffffffffffffffffff1602179055505050565b610b0d61105e565b610b156110a8565b60003390506000610b26828461166e565b9050600060cb60009054906101000a900473ffffffffffffffffffffffffffffffffffffffff1673ffffffffffffffffffffffffffffffffffffffff1663b723b34e83856040518363ffffffff1660e01b8152600401610b87929190612747565b602060405180830381600087803b158015610ba157600080fd5b505af1158015610bb5573d6000803e3d6000fd5b505050506040513d601f19601f82011682018060405250810190610bd99190611fa4565b90506000811415610c1f576040517f08c379a0000000000000000000000000000000000000000000000000000000008152600401610c16906126cc565b60405180910390fd5b600060cb60009054906101000a900473ffffffffffffffffffffffffffffffffffffffff1673ffffffffffffffffffffffffffffffffffffffff16635fe3b5676040518163ffffffff1660e01b815260040160206040518083038186803b158015610c8957600080fd5b505afa158015610c9d573d6000803e3d6000fd5b505050506040513d601f19601f82011682018060405250810190610cc19190611f16565b90506000600167ffffffffffffffff811115610d06577f4e487b7100000000000000000000000000000000000000000000000000000000600052604160045260246000fd5b604051908082528060200260200182016040528015610d345781602001602082028036833780820191505090505b50905060cb60009054906101000a900473ffffffffffffffffffffffffffffffffffffffff1681600081518110610d94577f4e487b7100000000000000000000000000000000000000000000000000000000600052603260045260246000fd5b602002602001019073ffffffffffffffffffffffffffffffffffffffff16908173ffffffffffffffffffffffffffffffffffffffff16815250508173ffffffffffffffffffffffffffffffffffffffff166333e4212982876040518363ffffffff1660e01b8152600401610e09929190612433565b602060405180830381600087803b158015610e2357600080fd5b505af1158015610e37573d6000803e3d6000fd5b505050506040513d601f19601f82011682018060405250810190610e5b9190611fa4565b505050505050610e696110f8565b50565b60cb60009054906101000a900473ffffffffffffffffffffffffffffffffffffffff1681565b610e9a61105e565b610ea26110a8565b6000610eae338361166e565b9050600060cb60009054906101000a900473ffffffffffffffffffffffffffffffffffffffff1673ffffffffffffffffffffffffffffffffffffffff16632608f81833846040518363ffffffff1660e01b8152600401610f0f92919061240a565b602060405180830381600087803b158015610f2957600080fd5b505af1158015610f3d573d6000803e3d6000fd5b505050506040513d601f19601f82011682018060405250810190610f619190611fa4565b90506000811415610fa7576040517f08c379a0000000000000000000000000000000000000000000000000000000008152600401610f9e9061256c565b60405180910390fd5b5050610fb16110f8565b50565b610fbc61114a565b600073ffffffffffffffffffffffffffffffffffffffff168173ffffffffffffffffffffffffffffffffffffffff16141561102c576040517f08c379a00000000000000000000000000000000000000000000000000000000081526004016110239061252c565b60405180910390fd5b61103581611545565b50565b60ca60009054906101000a900473ffffffffffffffffffffffffffffffffffffffff1681565b611066610759565b156110a6576040517f08c379a000000000000000000000000000000000000000000000000000000000815260040161109d9061258c565b60405180910390fd5b565b600260015414156110ee576040517f08c379a00000000000000000000000000000000000000000000000000000000081526004016110e59061270c565b60405180910390fd5b6002600181905550565b60018081905550565b611109610759565b611148576040517f08c379a000000000000000000000000000000000000000000000000000000000815260040161113f9061250c565b60405180910390fd5b565b611152611952565b73ffffffffffffffffffffffffffffffffffffffff1661117061096d565b73ffffffffffffffffffffffffffffffffffffffff16146111c6576040517f08c379a00000000000000000000000000000000000000000000000000000000081526004016111bd9061260c565b60405180910390fd5b565b6111d0611101565b6000609760006101000a81548160ff0219169083151502179055507f5db9ee0a495bf2e6ff9c91a7834c1ba4fdd244a5e8aa4e537bd38aeae4b073aa611214611952565b604051611221919061238f565b60405180910390a1565b6000808273ffffffffffffffffffffffffffffffffffffffff163b119050919050565b600060019054906101000a900460ff1661129d576040517f08c379a0000000000000000000000000000000000000000000000000000000008152600401611294906126ac565b60405180910390fd5b6112a561195a565b565b600060019054906101000a900460ff166112f6576040517f08c379a00000000000000000000000000000000000000000000000000000000081526004016112ed906126ac565b60405180910390fd5b6112fe6119bb565b565b600060019054906101000a900460ff1661134f576040517f08c379a0000000000000000000000000000000000000000000000000000000008152600401611346906126ac565b60405180910390fd5b611357611a13565b565b8160c960006101000a81548173ffffffffffffffffffffffffffffffffffffffff021916908373ffffffffffffffffffffffffffffffffffffffff1602179055508060cb60006101000a81548173ffffffffffffffffffffffffffffffffffffffff021916908373ffffffffffffffffffffffffffffffffffffffff16021790555060c960009054906101000a900473ffffffffffffffffffffffffffffffffffffffff1673ffffffffffffffffffffffffffffffffffffffff1663fc0c546a6040518163ffffffff1660e01b815260040160206040518083038186803b15801561144357600080fd5b505afa158015611457573d6000803e3d6000fd5b505050506040513d601f19601f8201168201806040525081019061147b9190611e4c565b60ca60006101000a81548173ffffffffffffffffffffffffffffffffffffffff021916908373ffffffffffffffffffffffffffffffffffffffff1602179055505050565b6115408363a9059cbb60e01b84846040516024016114de92919061240a565b604051602081830303815290604052907bffffffffffffffffffffffffffffffffffffffffffffffffffffffff19166020820180517bffffffffffffffffffffffffffffffffffffffffffffffffffffffff8381831617835250505050611a7f565b505050565b6000606560009054906101000a900473ffffffffffffffffffffffffffffffffffffffff16905081606560006101000a81548173ffffffffffffffffffffffffffffffffffffffff021916908373ffffffffffffffffffffffffffffffffffffffff1602179055508173ffffffffffffffffffffffffffffffffffffffff168173ffffffffffffffffffffffffffffffffffffffff167f8be0079c531659141344cd1fd0a4f28419497f9722a3daafe3b4186f6b6457e060405160405180910390a35050565b61161361105e565b6001609760006101000a81548160ff0219169083151502179055507f62e78cea01bee320cd4e420270b5ea74000d11b0c9f74754ebdbfc544b05a258611657611952565b604051611664919061238f565b60405180910390a1565b60008160ca60009054906101000a900473ffffffffffffffffffffffffffffffffffffffff1673ffffffffffffffffffffffffffffffffffffffff1663dd62ed3e85306040518363ffffffff1660e01b81526004016116ce9291906123aa565b60206040518083038186803b1580156116e657600080fd5b505afa1580156116fa573d6000803e3d6000fd5b505050506040513d601f19601f8201168201806040525081019061171e9190611fa4565b101561175f576040517f08c379a00000000000000000000000000000000000000000000000000000000081526004016117569061262c565b60405180910390fd5b6117ae83308460ca60009054906101000a900473ffffffffffffffffffffffffffffffffffffffff1673ffffffffffffffffffffffffffffffffffffffff16611b47909392919063ffffffff16565b60c960009054906101000a900473ffffffffffffffffffffffffffffffffffffffff1673ffffffffffffffffffffffffffffffffffffffff16636e553f6583306040518363ffffffff1660e01b815260040161180b929190612747565b602060405180830381600087803b15801561182557600080fd5b505af1158015611839573d6000803e3d6000fd5b505050506040513d601f19601f8201168201806040525081019061185d9190611fa4565b90508060c960009054906101000a900473ffffffffffffffffffffffffffffffffffffffff1673ffffffffffffffffffffffffffffffffffffffff166370a08231306040518263ffffffff1660e01b81526004016118bb919061238f565b60206040518083038186803b1580156118d357600080fd5b505afa1580156118e7573d6000803e3d6000fd5b505050506040513d601f19601f8201168201806040525081019061190b9190611fa4565b101561194c576040517f08c379a0000000000000000000000000000000000000000000000000000000008152600401611943906125cc565b60405180910390fd5b92915050565b600033905090565b600060019054906101000a900460ff166119a9576040517f08c379a00000000000000000000000000000000000000000000000000000000081526004016119a0906126ac565b60405180910390fd5b6119b96119b4611952565b611545565b565b600060019054906101000a900460ff16611a0a576040517f08c379a0000000000000000000000000000000000000000000000000000000008152600401611a01906126ac565b60405180910390fd5b60018081905550565b600060019054906101000a900460ff16611a62576040517f08c379a0000000000000000000000000000000000000000000000000000000008152600401611a59906126ac565b60405180910390fd5b6000609760006101000a81548160ff021916908315150217905550565b6000611ae1826040518060400160405280602081526020017f5361666545524332303a206c6f772d6c6576656c2063616c6c206661696c65648152508573ffffffffffffffffffffffffffffffffffffffff16611bd09092919063ffffffff16565b9050600081511480611b03575080806020019051810190611b029190611eed565b5b611b42576040517f08c379a0000000000000000000000000000000000000000000000000000000008152600401611b39906126ec565b60405180910390fd5b505050565b611bca846323b872dd60e01b858585604051602401611b68939291906123d3565b604051602081830303815290604052907bffffffffffffffffffffffffffffffffffffffffffffffffffffffff19166020820180517bffffffffffffffffffffffffffffffffffffffffffffffffffffffff8381831617835250505050611a7f565b50505050565b6060611bdf8484600085611be8565b90509392505050565b606082471015611c2d576040517f08c379a0000000000000000000000000000000000000000000000000000000008152600401611c249061254c565b60405180910390fd5b6000808673ffffffffffffffffffffffffffffffffffffffff168587604051611c569190612378565b60006040518083038185875af1925050503d8060008114611c93576040519150601f19603f3d011682016040523d82523d6000602084013e611c98565b606091505b5091509150611ca987838387611cb5565b92505050949350505050565b60608315611d1857600083511415611d1057611cd08561122b565b611d0f576040517f08c379a0000000000000000000000000000000000000000000000000000000008152600401611d069061268c565b60405180910390fd5b5b829050611d23565b611d228383611d2b565b5b949350505050565b600082511115611d3e5781518083602001fd5b806040517f08c379a0000000000000000000000000000000000000000000000000000000008152600401611d7291906124ea565b60405180910390fd5b600081359050611d8a81612c9f565b92915050565b600081519050611d9f81612c9f565b92915050565b600081519050611db481612cb6565b92915050565b600081519050611dc981612ccd565b92915050565b600081359050611dde81612ce4565b92915050565b600081359050611df381612cfb565b92915050565b600081359050611e0881612d12565b92915050565b600081519050611e1d81612d12565b92915050565b600060208284031215611e3557600080fd5b6000611e4384828501611d7b565b91505092915050565b600060208284031215611e5e57600080fd5b6000611e6c84828501611d90565b91505092915050565b60008060408385031215611e8857600080fd5b6000611e9685828601611d7b565b9250506020611ea785828601611d7b565b9150509250929050565b60008060408385031215611ec457600080fd5b6000611ed285828601611d7b565b9250506020611ee385828601611df9565b9150509250929050565b600060208284031215611eff57600080fd5b6000611f0d84828501611da5565b91505092915050565b600060208284031215611f2857600080fd5b6000611f3684828501611dba565b91505092915050565b60008060408385031215611f5257600080fd5b6000611f6085828601611de4565b9250506020611f7185828601611dcf565b9150509250929050565b600060208284031215611f8d57600080fd5b6000611f9b84828501611df9565b91505092915050565b600060208284031215611fb657600080fd5b6000611fc484828501611e0e565b91505092915050565b6000611fd98383611fe5565b60208301905092915050565b611fee816127db565b82525050565b611ffd816127db565b82525050565b600061200e82612780565b61201881856127ae565b935061202383612770565b8060005b8381101561205457815161203b8882611fcd565b9750612046836127a1565b925050600181019050612027565b5085935050505092915050565b61206a816127ed565b82525050565b600061207b8261278b565b61208581856127bf565b93506120958185602086016128e4565b80840191505092915050565b6120aa81612866565b82525050565b6120b98161288a565b82525050565b6120c8816128ae565b82525050565b6120d7816128d2565b82525050565b60006120e882612796565b6120f281856127ca565b93506121028185602086016128e4565b61210b81612917565b840191505092915050565b60006121236014836127ca565b915061212e82612928565b602082019050919050565b60006121466026836127ca565b915061215182612951565b604082019050919050565b60006121696026836127ca565b9150612174826129a0565b604082019050919050565b600061218c6012836127ca565b9150612197826129ef565b602082019050919050565b60006121af6010836127ca565b91506121ba82612a18565b602082019050919050565b60006121d2602e836127ca565b91506121dd82612a41565b604082019050919050565b60006121f56008836127ca565b915061220082612a90565b602082019050919050565b6000612218600c836127ca565b915061222382612ab9565b602082019050919050565b600061223b6020836127ca565b915061224682612ae2565b602082019050919050565b600061225e600a836127ca565b915061226982612b0b565b602082019050919050565b60006122816007836127ca565b915061228c82612b34565b602082019050919050565b60006122a46007836127ca565b91506122af82612b5d565b602082019050919050565b60006122c7601d836127ca565b91506122d282612b86565b602082019050919050565b60006122ea602b836127ca565b91506122f582612baf565b604082019050919050565b600061230d6005836127ca565b915061231882612bfe565b602082019050919050565b6000612330602a836127ca565b915061233b82612c27565b604082019050919050565b6000612353601f836127ca565b915061235e82612c76565b602082019050919050565b6123728161284f565b82525050565b60006123848284612070565b915081905092915050565b60006020820190506123a46000830184611ff4565b92915050565b60006040820190506123bf6000830185611ff4565b6123cc6020830184611ff4565b9392505050565b60006060820190506123e86000830186611ff4565b6123f56020830185611ff4565b6124026040830184612369565b949350505050565b600060408201905061241f6000830185611ff4565b61242c6020830184612369565b9392505050565b6000604082019050818103600083015261244d8185612003565b905061245c6020830184611ff4565b9392505050565b60006020820190506124786000830184612061565b92915050565b600060208201905061249360008301846120a1565b92915050565b60006020820190506124ae60008301846120b0565b92915050565b60006020820190506124c960008301846120bf565b92915050565b60006020820190506124e460008301846120ce565b92915050565b6000602082019050818103600083015261250481846120dd565b905092915050565b6000602082019050818103600083015261252581612116565b9050919050565b6000602082019050818103600083015261254581612139565b9050919050565b600060208201905081810360008301526125658161215c565b9050919050565b600060208201905081810360008301526125858161217f565b9050919050565b600060208201905081810360008301526125a5816121a2565b9050919050565b600060208201905081810360008301526125c5816121c5565b9050919050565b600060208201905081810360008301526125e5816121e8565b9050919050565b600060208201905081810360008301526126058161220b565b9050919050565b600060208201905081810360008301526126258161222e565b9050919050565b6000602082019050818103600083015261264581612251565b9050919050565b6000602082019050818103600083015261266581612274565b9050919050565b6000602082019050818103600083015261268581612297565b9050919050565b600060208201905081810360008301526126a5816122ba565b9050919050565b600060208201905081810360008301526126c5816122dd565b9050919050565b600060208201905081810360008301526126e581612300565b9050919050565b6000602082019050818103600083015261270581612323565b9050919050565b6000602082019050818103600083015261272581612346565b9050919050565b60006020820190506127416000830184612369565b92915050565b600060408201905061275c6000830185612369565b6127696020830184611ff4565b9392505050565b6000819050602082019050919050565b600081519050919050565b600081519050919050565b600081519050919050565b6000602082019050919050565b600082825260208201905092915050565b600081905092915050565b600082825260208201905092915050565b60006127e68261282f565b9050919050565b60008115159050919050565b6000612804826127db565b9050919050565b6000612816826127db565b9050919050565b6000612828826127db565b9050919050565b600073ffffffffffffffffffffffffffffffffffffffff82169050919050565b6000819050919050565b600060ff82169050919050565b600061287182612878565b9050919050565b60006128838261282f565b9050919050565b60006128958261289c565b9050919050565b60006128a78261282f565b9050919050565b60006128b9826128c0565b9050919050565b60006128cb8261282f565b9050919050565b60006128dd82612859565b9050919050565b60005b838110156129025780820151818401526020810190506128e7565b83811115612911576000848401525b50505050565b6000601f19601f8301169050919050565b7f5061757361626c653a206e6f7420706175736564000000000000000000000000600082015250565b7f4f776e61626c653a206e6577206f776e657220697320746865207a65726f206160008201527f6464726573730000000000000000000000000000000000000000000000000000602082015250565b7f416464726573733a20696e73756666696369656e742062616c616e636520666f60008201527f722063616c6c0000000000000000000000000000000000000000000000000000602082015250565b7f217265706179426f72726f77426568616c660000000000000000000000000000600082015250565b7f5061757361626c653a2070617573656400000000000000000000000000000000600082015250565b7f496e697469616c697a61626c653a20636f6e747261637420697320616c72656160008201527f647920696e697469616c697a6564000000000000000000000000000000000000602082015250565b7f216465706f736974000000000000000000000000000000000000000000000000600082015250565b7f217661756c74416d6f756e740000000000000000000000000000000000000000600082015250565b7f4f776e61626c653a2063616c6c6572206973206e6f7420746865206f776e6572600082015250565b7f21616c6c6f77616e636500000000000000000000000000000000000000000000600082015250565b7f216d61726b657400000000000000000000000000000000000000000000000000600082015250565b7f2161737365747300000000000000000000000000000000000000000000000000600082015250565b7f416464726573733a2063616c6c20746f206e6f6e2d636f6e7472616374000000600082015250565b7f496e697469616c697a61626c653a20636f6e7472616374206973206e6f74206960008201527f6e697469616c697a696e67000000000000000000000000000000000000000000602082015250565b7f216d696e74000000000000000000000000000000000000000000000000000000600082015250565b7f5361666545524332303a204552433230206f7065726174696f6e20646964206e60008201527f6f74207375636365656400000000000000000000000000000000000000000000602082015250565b7f5265656e7472616e637947756172643a207265656e7472616e742063616c6c00600082015250565b612ca8816127db565b8114612cb357600080fd5b50565b612cbf816127ed565b8114612cca57600080fd5b50565b612cd6816127f9565b8114612ce157600080fd5b50565b612ced8161280b565b8114612cf857600080fd5b50565b612d048161281d565b8114612d0f57600080fd5b50565b612d1b8161284f565b8114612d2657600080fd5b5056fea2646970667358221220738171a77bf3e566a58d459f3d98d66445ca26c42ecff8a4ebb1b0476f3e709764736f6c63430008040033",
  "devdoc": {
    "kind": "dev",
    "methods": {
      "owner()": {
        "details": "Returns the address of the current owner."
      },
      "paused()": {
        "details": "Returns true if the contract is paused, and false otherwise."
      },
      "renounceOwnership()": {
        "details": "Leaves the contract without owner. It will not be possible to call `onlyOwner` functions. Can only be called by the current owner. NOTE: Renouncing ownership will leave the contract without an owner, thereby disabling any functionality that is only available to the owner."
      },
      "supplyInYVTokens(uint256)": {
        "details": "callter should approve this contract before calling.      deposit tokens into yearn yVault and receives yvTokens (yVault shares)      supply yvTokens into market and enable them as collateral"
      },
      "transferOwnership(address)": {
        "details": "Transfers ownership of the contract to a new account (`newOwner`). Can only be called by the current owner."
      }
    },
    "version": 1
  },
  "userdoc": {
    "events": {
      "LogEmergencyWithdraw(address,address,uint256)": {
        "notice": "emitted when withdraw happens"
      }
    },
    "kind": "user",
    "methods": {
      "dropsYearnMarket()": {
        "notice": "token to deposit into yearn yVault"
      },
      "redeem(address,uint256)": {
        "notice": "market will call this function to withdraw tokens from yearn yVault (yvToken)"
      },
      "repayInYVTokens(uint256)": {
        "notice": "repay in yvTokens"
      },
      "supplyInYVTokens(uint256)": {
        "notice": "supply yvTokens into market"
      },
      "token()": {
        "notice": "token to deposit into yearn yVault"
      },
      "yVault()": {
        "notice": "yearn Vault"
      }
    },
    "version": 1
  },
  "storageLayout": {
    "storage": [
      {
        "astId": 232,
        "contract": "contracts/yearn-migration/YVTokenMigration.sol:YVTokenMigration",
        "label": "_initialized",
        "offset": 0,
        "slot": "0",
        "type": "t_uint8"
      },
      {
        "astId": 235,
        "contract": "contracts/yearn-migration/YVTokenMigration.sol:YVTokenMigration",
        "label": "_initializing",
        "offset": 1,
        "slot": "0",
        "type": "t_bool"
      },
      {
        "astId": 535,
        "contract": "contracts/yearn-migration/YVTokenMigration.sol:YVTokenMigration",
        "label": "_status",
        "offset": 0,
        "slot": "1",
        "type": "t_uint256"
      },
      {
        "astId": 604,
        "contract": "contracts/yearn-migration/YVTokenMigration.sol:YVTokenMigration",
        "label": "__gap",
        "offset": 0,
        "slot": "2",
        "type": "t_array(t_uint256)49_storage"
      },
      {
        "astId": 1466,
        "contract": "contracts/yearn-migration/YVTokenMigration.sol:YVTokenMigration",
        "label": "__gap",
        "offset": 0,
        "slot": "51",
        "type": "t_array(t_uint256)50_storage"
      },
      {
        "astId": 104,
        "contract": "contracts/yearn-migration/YVTokenMigration.sol:YVTokenMigration",
        "label": "_owner",
        "offset": 0,
        "slot": "101",
        "type": "t_address"
      },
      {
        "astId": 224,
        "contract": "contracts/yearn-migration/YVTokenMigration.sol:YVTokenMigration",
        "label": "__gap",
        "offset": 0,
        "slot": "102",
        "type": "t_array(t_uint256)49_storage"
      },
      {
        "astId": 415,
        "contract": "contracts/yearn-migration/YVTokenMigration.sol:YVTokenMigration",
        "label": "_paused",
        "offset": 0,
        "slot": "151",
        "type": "t_bool"
      },
      {
        "astId": 520,
        "contract": "contracts/yearn-migration/YVTokenMigration.sol:YVTokenMigration",
        "label": "__gap",
        "offset": 0,
        "slot": "152",
        "type": "t_array(t_uint256)49_storage"
      },
      {
        "astId": 8145,
        "contract": "contracts/yearn-migration/YVTokenMigration.sol:YVTokenMigration",
        "label": "yVault",
        "offset": 0,
        "slot": "201",
        "type": "t_contract(IYearnVault)4070"
      },
      {
        "astId": 8149,
        "contract": "contracts/yearn-migration/YVTokenMigration.sol:YVTokenMigration",
        "label": "token",
        "offset": 0,
        "slot": "202",
        "type": "t_contract(IERC20Upgradeable)683"
      },
      {
        "astId": 8153,
        "contract": "contracts/yearn-migration/YVTokenMigration.sol:YVTokenMigration",
        "label": "dropsYearnMarket",
        "offset": 0,
        "slot": "203",
        "type": "t_contract(IDropsYearnMarket)4000"
      }
    ],
    "types": {
      "t_address": {
        "encoding": "inplace",
        "label": "address",
        "numberOfBytes": "20"
      },
      "t_array(t_uint256)49_storage": {
        "base": "t_uint256",
        "encoding": "inplace",
        "label": "uint256[49]",
        "numberOfBytes": "1568"
      },
      "t_array(t_uint256)50_storage": {
        "base": "t_uint256",
        "encoding": "inplace",
        "label": "uint256[50]",
        "numberOfBytes": "1600"
      },
      "t_bool": {
        "encoding": "inplace",
        "label": "bool",
        "numberOfBytes": "1"
      },
      "t_contract(IDropsYearnMarket)4000": {
        "encoding": "inplace",
        "label": "contract IDropsYearnMarket",
        "numberOfBytes": "20"
      },
      "t_contract(IERC20Upgradeable)683": {
        "encoding": "inplace",
        "label": "contract IERC20Upgradeable",
        "numberOfBytes": "20"
      },
      "t_contract(IYearnVault)4070": {
        "encoding": "inplace",
        "label": "contract IYearnVault",
        "numberOfBytes": "20"
      },
      "t_uint256": {
        "encoding": "inplace",
        "label": "uint256",
        "numberOfBytes": "32"
      },
      "t_uint8": {
        "encoding": "inplace",
        "label": "uint8",
        "numberOfBytes": "1"
      }
    }
  }
}